{
    "contractName": "EthereumClaimsRegistry",
    "abi": [
        {
            "anonymous": false,
            "inputs": [
                {
                    "indexed": false,
                    "internalType": "bytes32",
                    "name": "hash",
                    "type": "bytes32"
                }
            ],
            "name": "CheckHash",
            "type": "event"
        },
        {
            "anonymous": false,
            "inputs": [
                {
                    "indexed": false,
                    "internalType": "address",
                    "name": "claimHolder",
                    "type": "address"
                }
            ],
            "name": "ClaimHolderAdded",
            "type": "event"
        },
        {
            "inputs": [
                {
                    "internalType": "address",
                    "name": "holder",
                    "type": "address"
                },
                {
                    "internalType": "uint256",
                    "name": "_claimType",
                    "type": "uint256"
                },
                {
                    "internalType": "uint256",
                    "name": "_scheme",
                    "type": "uint256"
                },
                {
                    "internalType": "address",
                    "name": "_issuer",
                    "type": "address"
                },
                {
                    "internalType": "bytes",
                    "name": "_signature",
                    "type": "bytes"
                },
                {
                    "internalType": "bytes",
                    "name": "_data",
                    "type": "bytes"
                },
                {
                    "internalType": "string",
                    "name": "_uri",
                    "type": "string"
                }
            ],
            "name": "addClaim",
            "outputs": [
                {
                    "internalType": "bytes32",
                    "name": "claimID",
                    "type": "bytes32"
                }
            ],
            "stateMutability": "nonpayable",
            "type": "function"
        },
        {
            "inputs": [],
            "name": "addClaimHolder",
            "outputs": [
                {
                    "internalType": "address",
                    "name": "contractAddr",
                    "type": "address"
                },
                {
                    "internalType": "contract xClaimHolder",
                    "name": "",
                    "type": "address"
                }
            ],
            "stateMutability": "nonpayable",
            "type": "function"
        },
        {
            "inputs": [
                {
                    "internalType": "address",
                    "name": "_holder",
                    "type": "address"
                },
                {
                    "internalType": "bytes32",
                    "name": "_key",
                    "type": "bytes32"
                },
                {
                    "internalType": "uint256",
                    "name": "_purpose",
                    "type": "uint256"
                },
                {
                    "internalType": "uint256",
                    "name": "_type",
                    "type": "uint256"
                }
            ],
            "name": "addKey",
            "outputs": [
                {
                    "internalType": "bool",
                    "name": "success",
                    "type": "bool"
                }
            ],
            "stateMutability": "nonpayable",
            "type": "function"
        },
        {
            "inputs": [
                {
                    "internalType": "address",
                    "name": "issuer",
                    "type": "address"
                },
                {
                    "internalType": "address",
                    "name": "_identity",
                    "type": "address"
                },
                {
                    "internalType": "uint256",
                    "name": "claimType",
                    "type": "uint256"
                }
            ],
            "name": "checkClaim",
            "outputs": [
                {
                    "internalType": "bool",
                    "name": "claimValid",
                    "type": "bool"
                }
            ],
            "stateMutability": "nonpayable",
            "type": "function"
        },
        {
            "inputs": [
                {
                    "internalType": "address",
                    "name": "issuer",
                    "type": "address"
                },
                {
                    "internalType": "address",
                    "name": "_identity",
                    "type": "address"
                },
                {
                    "internalType": "uint256",
                    "name": "claimType",
                    "type": "uint256"
                },
                {
                    "internalType": "bytes",
                    "name": "data",
                    "type": "bytes"
                }
            ],
            "name": "checkClaimByData",
            "outputs": [
                {
                    "internalType": "bool",
                    "name": "claimValid",
                    "type": "bool"
                }
            ],
            "stateMutability": "nonpayable",
            "type": "function"
        },
        {
            "inputs": [
                {
                    "internalType": "address",
                    "name": "",
                    "type": "address"
                }
            ],
            "name": "claimHolder",
            "outputs": [
                {
                    "internalType": "contract xClaimHolder",
                    "name": "",
                    "type": "address"
                }
            ],
            "stateMutability": "view",
            "type": "function"
        },
        {
            "inputs": [
                {
                    "internalType": "address",
                    "name": "holder",
                    "type": "address"
                }
            ],
            "name": "destroy",
            "outputs": [],
            "stateMutability": "nonpayable",
            "type": "function"
        },
        {
            "inputs": [
                {
                    "internalType": "address",
                    "name": "holder",
                    "type": "address"
                },
                {
                    "internalType": "bytes32",
                    "name": "_claimId",
                    "type": "bytes32"
                }
            ],
            "name": "getClaim",
            "outputs": [
                {
                    "internalType": "uint256",
                    "name": "claimType",
                    "type": "uint256"
                },
                {
                    "internalType": "uint256",
                    "name": "scheme",
                    "type": "uint256"
                },
                {
                    "internalType": "address",
                    "name": "issuer",
                    "type": "address"
                },
                {
                    "internalType": "bytes",
                    "name": "signature",
                    "type": "bytes"
                },
                {
                    "internalType": "bytes",
                    "name": "data",
                    "type": "bytes"
                },
                {
                    "internalType": "string",
                    "name": "uri",
                    "type": "string"
                }
            ],
            "stateMutability": "view",
            "type": "function"
        },
        {
            "inputs": [
                {
                    "internalType": "address",
                    "name": "addr",
                    "type": "address"
                }
            ],
            "name": "getClaimHolder",
            "outputs": [
                {
                    "internalType": "contract xClaimHolder",
                    "name": "",
                    "type": "address"
                }
            ],
            "stateMutability": "view",
            "type": "function"
        },
        {
            "inputs": [
                {
                    "internalType": "address",
                    "name": "holder",
                    "type": "address"
                },
                {
                    "internalType": "uint256",
                    "name": "_claimType",
                    "type": "uint256"
                }
            ],
            "name": "getClaimIdsByType",
            "outputs": [
                {
                    "internalType": "bytes32[]",
                    "name": "claimIds",
                    "type": "bytes32[]"
                }
            ],
            "stateMutability": "view",
            "type": "function"
        },
        {
            "inputs": [
                {
                    "internalType": "address",
                    "name": "_holder",
                    "type": "address"
                },
                {
                    "internalType": "bytes32",
                    "name": "_key",
                    "type": "bytes32"
                }
            ],
            "name": "getKey",
            "outputs": [
                {
                    "internalType": "uint256",
                    "name": "purpose",
                    "type": "uint256"
                },
                {
                    "internalType": "uint256",
                    "name": "keyType",
                    "type": "uint256"
                },
                {
                    "internalType": "bytes32",
                    "name": "key",
                    "type": "bytes32"
                }
            ],
            "stateMutability": "view",
            "type": "function"
        },
        {
            "inputs": [
                {
                    "internalType": "address",
                    "name": "_holder",
                    "type": "address"
                },
                {
                    "internalType": "bytes32",
                    "name": "_key",
                    "type": "bytes32"
                }
            ],
            "name": "getKeyPurpose",
            "outputs": [
                {
                    "internalType": "uint256",
                    "name": "purpose",
                    "type": "uint256"
                }
            ],
            "stateMutability": "view",
            "type": "function"
        },
        {
            "inputs": [
                {
                    "internalType": "address",
                    "name": "_holder",
                    "type": "address"
                },
                {
                    "internalType": "uint256",
                    "name": "_purpose",
                    "type": "uint256"
                }
            ],
            "name": "getKeysByPurpose",
            "outputs": [
                {
                    "internalType": "bytes32[]",
                    "name": "_keys",
                    "type": "bytes32[]"
                }
            ],
            "stateMutability": "view",
            "type": "function"
        },
        {
            "inputs": [
                {
                    "internalType": "address",
                    "name": "holder",
                    "type": "address"
                },
                {
                    "internalType": "bytes32",
                    "name": "_claimId",
                    "type": "bytes32"
                }
            ],
            "name": "removeClaim",
            "outputs": [],
            "stateMutability": "nonpayable",
            "type": "function"
        },
        {
            "inputs": [
                {
                    "internalType": "address",
                    "name": "_holder",
                    "type": "address"
                },
                {
                    "internalType": "bytes32",
                    "name": "_key",
                    "type": "bytes32"
                }
            ],
            "name": "removeKey",
            "outputs": [
                {
                    "internalType": "bool",
                    "name": "success",
                    "type": "bool"
                }
            ],
            "stateMutability": "nonpayable",
            "type": "function"
        }
    ],
    "bytecode": "608060405234801561001057600080fd5b506134da806100206000396000f3fe608060405234801561001057600080fd5b50600436106100f45760003560e01c80634361443f11610097578063dbfe87e111610066578063dbfe87e114610262578063ed71842a1461028a578063f8ba8f84146102ab578063fdde0e66146102be57600080fd5b80634361443f1461020457806362fdbdbb14610229578063a1c8ca7e1461023c578063b1fea4551461024f57600080fd5b8063237ed9b4116100d3578063237ed9b41461017a578063314f5c111461018d5780633468ed3d146101bb578063423401b3146101db57600080fd5b8062f55d9d146100f95780630803a73e1461010e5780630e2f957514610136575b600080fd5b61010c610107366004610ac0565b6102d1565b005b61012161011c366004610add565b61033e565b60405190151581526020015b60405180910390f35b610162610144366004610ac0565b6001600160a01b039081166000908152602081905260409020541690565b6040516001600160a01b03909116815260200161012d565b610121610188366004610b1e565b61040a565b6101a061019b366004610b59565b61049f565b6040805193845260208401929092529082015260600161012d565b6101ce6101c9366004610b59565b61052e565b60405161012d9190610b85565b6101626101e9366004610ac0565b6000602081905290815260409020546001600160a01b031681565b610217610212366004610b59565b6105b4565b60405161012d96959493929190610c25565b610121610237366004610d4a565b610656565b61010c61024a366004610b59565b6106d6565b61012161025d366004610b59565b610759565b61026a6107d7565b604080516001600160a01b0393841681529290911660208301520161012d565b61029d610298366004610db6565b610935565b60405190815260200161012d565b61029d6102b9366004610b59565b6109cd565b6101ce6102cc366004610b59565b610a49565b6001600160a01b038181166000908152602081905260409081902054905162f55d9d60e01b815230600482015291169062f55d9d90602401600060405180830381600087803b15801561032357600080fd5b505af1158015610337573d6000803e3d6000fd5b5050505050565b60008360405161034d90610a8e565b6001600160a01b039091168152602001604051809103906000f080158015610379573d6000803e3d6000fd5b506001600160a01b03848116600090815260208190526040908190205490516301c1569360e11b8152908216600482015260248101859052911690630382ad26906044016020604051808303816000875af11580156103dc573d6000803e3d6000fd5b505050506040513d601f19601f820116820180604052508101906104009190610e77565b90505b9392505050565b6001600160a01b038481166000908152602081905260408082205490516274e04960e61b815260048101879052602481018690526044810185905291921690631d381240906064015b6020604051808303816000875af1158015610472573d6000803e3d6000fd5b505050506040513d601f19601f820116820180604052508101906104969190610e77565b95945050505050565b6001600160a01b0382811660009081526020819052604080822054905163012aaac760e41b815260048101859052919283928392909116906312aaac7090602401606060405180830381865afa1580156104fd573d6000803e3d6000fd5b505050506040513d601f19601f820116820180604052508101906105219190610e99565b9250925092509250925092565b6001600160a01b03828116600090815260208190526040908190205490516348087b9360e11b8152600481018490526060929190911690639010f726906024015b600060405180830381865afa15801561058c573d6000803e3d6000fd5b505050506040513d6000823e601f3d908101601f191682016040526104039190810190610ec7565b6001600160a01b0382811660009081526020819052604080822054905163c9100bcb60e01b815260048101859052919283928392606092839283929091169063c9100bcb90602401600060405180830381865afa158015610619573d6000803e3d6000fd5b505050506040513d6000823e601f3d908101601f191682016040526106419190810190610fb1565b949d939c50919a509850965090945092505050565b60008460405161066590610a8e565b6001600160a01b039091168152602001604051809103906000f080158015610691573d6000803e3d6000fd5b506001600160a01b0385811660009081526020819052604090819020549051638b3f722760e01b815292821692638b3f72279261045392169087908790600401611073565b6001600160a01b0382811660009081526020819052604090819020549051632777212560e11b815260048101849052911690634eee424a906024016020604051808303816000875af1158015610730573d6000803e3d6000fd5b505050506040513d601f19601f820116820180604052508101906107549190610e77565b505050565b6001600160a01b0382811660009081526020819052604080822054905163862642f560e01b8152600481018590529192169063862642f5906024016020604051808303816000875af11580156107b3573d6000803e3d6000fd5b505050506040513d601f19601f820116820180604052508101906104039190610e77565b60008060006040516107e890610a9b565b604051809103906000f080158015610804573d6000803e3d6000fd5b506001600160a01b0381166000818152602081815260409182902080546001600160a01b0319168417905590519182529194508492507fafb6f8637d656c4460e35a55ee8a5366eea247a9f2730f3c002540c353be0870910160405180910390a16040516bffffffffffffffffffffffff19606083901b1660208201527f17d999f08836220ec49e62e94e67cc71744bd1abf3749c454443c40547c0acad9060340160408051601f1981840301815290829052805160209182012082520160405180910390a16040516bffffffffffffffffffffffff19606085901b1660208201527f17d999f08836220ec49e62e94e67cc71744bd1abf3749c454443c40547c0acad9060340160408051601f1981840301815290829052805160209182012082520160405180910390a191929050565b6001600160a01b0380881660009081526020819052604080822054905163b1a34e0d60e01b81529192169063b1a34e0d9061097e908a908a908a908a908a908a90600401610c25565b6020604051808303816000875af115801561099d573d6000803e3d6000fd5b505050506040513d601f19601f820116820180604052508101906109c1919061109a565b98975050505050505050565b6001600160a01b038281166000908152602081905260408082205490516301960d4560e11b8152600481018590529192169063032c1a8a90602401602060405180830381865afa158015610a25573d6000803e3d6000fd5b505050506040513d601f19601f82011682018060405250810190610403919061109a565b6001600160a01b038281166000908152602081905260409081902054905163262b54f560e01b815260048101849052606092919091169063262b54f59060240161056f565b610ae3806110b483390190565b61190e80611b9783390190565b6001600160a01b0381168114610abd57600080fd5b50565b600060208284031215610ad257600080fd5b813561040381610aa8565b600080600060608486031215610af257600080fd5b8335610afd81610aa8565b92506020840135610b0d81610aa8565b929592945050506040919091013590565b60008060008060808587031215610b3457600080fd5b8435610b3f81610aa8565b966020860135965060408601359560600135945092505050565b60008060408385031215610b6c57600080fd5b8235610b7781610aa8565b946020939093013593505050565b6020808252825182820181905260009190848201906040850190845b81811015610bbd57835183529284019291840191600101610ba1565b50909695505050505050565b60005b83811015610be4578181015183820152602001610bcc565b83811115610bf3576000848401525b50505050565b60008151808452610c11816020860160208601610bc9565b601f01601f19169290920160200192915050565b86815285602082015260018060a01b038516604082015260c060608201526000610c5260c0830186610bf9565b8281036080840152610c648186610bf9565b905082810360a0840152610c788185610bf9565b9998505050505050505050565b634e487b7160e01b600052604160045260246000fd5b604051601f8201601f1916810167ffffffffffffffff81118282101715610cc457610cc4610c85565b604052919050565b600067ffffffffffffffff821115610ce657610ce6610c85565b50601f01601f191660200190565b600082601f830112610d0557600080fd5b8135610d18610d1382610ccc565b610c9b565b818152846020838601011115610d2d57600080fd5b816020850160208301376000918101602001919091529392505050565b60008060008060808587031215610d6057600080fd5b8435610d6b81610aa8565b93506020850135610d7b81610aa8565b925060408501359150606085013567ffffffffffffffff811115610d9e57600080fd5b610daa87828801610cf4565b91505092959194509250565b600080600080600080600060e0888a031215610dd157600080fd5b8735610ddc81610aa8565b965060208801359550604088013594506060880135610dfa81610aa8565b9350608088013567ffffffffffffffff80821115610e1757600080fd5b610e238b838c01610cf4565b945060a08a0135915080821115610e3957600080fd5b610e458b838c01610cf4565b935060c08a0135915080821115610e5b57600080fd5b50610e688a828b01610cf4565b91505092959891949750929550565b600060208284031215610e8957600080fd5b8151801515811461040357600080fd5b600080600060608486031215610eae57600080fd5b8351925060208401519150604084015190509250925092565b60006020808385031215610eda57600080fd5b825167ffffffffffffffff80821115610ef257600080fd5b818501915085601f830112610f0657600080fd5b815181811115610f1857610f18610c85565b8060051b9150610f29848301610c9b565b8181529183018401918481019088841115610f4357600080fd5b938501935b838510156109c157845182529385019390850190610f48565b6000610f6f610d1384610ccc565b9050828152838383011115610f8357600080fd5b610403836020830184610bc9565b600082601f830112610fa257600080fd5b61040383835160208501610f61565b60008060008060008060c08789031215610fca57600080fd5b86519550602087015194506040870151610fe381610aa8565b606088015190945067ffffffffffffffff8082111561100157600080fd5b61100d8a838b01610f91565b9450608089015191508082111561102357600080fd5b61102f8a838b01610f91565b935060a089015191508082111561104557600080fd5b508701601f8101891361105757600080fd5b61106689825160208401610f61565b9150509295509295509295565b60018060a01b03841681528260208201526060604082015260006104966060830184610bf9565b6000602082840312156110ac57600080fd5b505191905056fe608060405234801561001057600080fd5b50604051610ae3380380610ae383398101604081905261002f91610054565b600080546001600160a01b0319166001600160a01b0392909216919091179055610084565b60006020828403121561006657600080fd5b81516001600160a01b038116811461007d57600080fd5b9392505050565b610a50806100936000396000f3fe608060405234801561001057600080fd5b50600436106100575760003560e01c80630382ad261461005c57806336938354146100845780638b3f7227146100af5780639fecd554146100c2578063c3b129e3146100d5575b600080fd5b61006f61006a366004610650565b6100e8565b60405190151581526020015b60405180910390f35b600054610097906001600160a01b031681565b6040516001600160a01b03909116815260200161007b565b61006f6100bd366004610741565b61018f565b61006f6100d0366004610650565b61036f565b6100976100e336600461079a565b610587565b60006100f4838361036f565b1561014357604080516001600160a01b0385168152602081018490527f5637aa6b77cde2de563765b75a65099af73d3bf22cb9d089a64a01777823208e910160405180910390a1506001610189565b604080516001600160a01b0385168152602081018490527fc1e461cfcaa9ff5efbb053582a325fbfebec1d94ac7e9d9958ee7f74c2b6b558910160405180910390a15060005b92915050565b600061019b84846100e8565b15610364576000806000606080606060008a8a6040516020016101d792919060609290921b6001600160601b0319168252601482015260340190565b60408051808303601f1901815290829052805160209091012063c9100bcb60e01b82526004820181905291506001600160a01b038c169063c9100bcb90602401600060405180830381865afa158015610234573d6000803e3d6000fd5b505050506040513d6000823e601f3d908101601f1916820160405261025c919081019061085f565b604051959c50939a5091985096509450925060009061027f908590602001610921565b60405160208183030381529060405280519060200120905060008a6040516020016102aa9190610921565b60405160208183030381529060405280519060200120821490508015610317577f7e54aeae6370c736a777431d1b6499b1bf8c637a79cc7ba218c42e0c80eba7ee8d8d8d6040516102fd9392919061093d565b60405180910390a160019950505050505050505050610368565b7fbf207365b0ed61ed7c246fb715c47f510e96e0531d0842e6621f3ee9211722108d8d8d60405161034a9392919061093d565b60405180910390a160009950505050505050505050610368565b5060005b9392505050565b600080600080606080600088886040516020016103a592919060609290921b6001600160601b0319168252601482015260340190565b60408051808303601f1901815290829052805160209091012063c9100bcb60e01b82526004820181905291506001600160a01b038a169063c9100bcb90602401600060405180830381865afa158015610402573d6000803e3d6000fd5b505050506040513d6000823e601f3d908101601f1916820160405261042a919081019061085f565b50604051949a5092985090965094509250600090610450908b908b908690602001610986565b6040516020818303038152906040528051906020012090506000816040516020016104a791907f19457468657265756d205369676e6564204d6573736167653a0a3332000000008152601c810191909152603c0190565b60405160208183030381529060405280519060200120905060006104cb8683610587565b6040516001600160601b0319606083901b16602082015290915060009060340160408051808303601f1901815290829052805160209091012060005463d202158d60e01b835260048301829052600360248401529092506001600160a01b03169063d202158d90604401602060405180830381865afa158015610552573d6000803e3d6000fd5b505050506040513d601f19601f8201168201806040525081019061057691906109c5565b9d9c50505050505050505050505050565b60008060008085516041146105a25760009350505050610189565b50505060208301516040840151606085015160001a601b8110156105ce576105cb601b826109e7565b90505b6040805160008082526020820180845288905260ff841692820192909252606081018590526080810184905260019060a0016020604051602081039080840390855afa158015610622573d6000803e3d6000fd5b5050604051601f19015198975050505050505050565b6001600160a01b038116811461064d57600080fd5b50565b6000806040838503121561066357600080fd5b823561066e81610638565b946020939093013593505050565b634e487b7160e01b600052604160045260246000fd5b604051601f8201601f1916810167ffffffffffffffff811182821017156106bb576106bb61067c565b604052919050565b600067ffffffffffffffff8211156106dd576106dd61067c565b50601f01601f191660200190565b600082601f8301126106fc57600080fd5b813561070f61070a826106c3565b610692565b81815284602083860101111561072457600080fd5b816020850160208301376000918101602001919091529392505050565b60008060006060848603121561075657600080fd5b833561076181610638565b925060208401359150604084013567ffffffffffffffff81111561078457600080fd5b610790868287016106eb565b9150509250925092565b600080604083850312156107ad57600080fd5b823567ffffffffffffffff8111156107c457600080fd5b6107d0858286016106eb565b95602094909401359450505050565b60005b838110156107fa5781810151838201526020016107e2565b83811115610809576000848401525b50505050565b600061081d61070a846106c3565b905082815283838301111561083157600080fd5b6103688360208301846107df565b600082601f83011261085057600080fd5b6103688383516020850161080f565b60008060008060008060c0878903121561087857600080fd5b8651955060208701519450604087015161089181610638565b606088015190945067ffffffffffffffff808211156108af57600080fd5b6108bb8a838b0161083f565b945060808901519150808211156108d157600080fd5b6108dd8a838b0161083f565b935060a08901519150808211156108f357600080fd5b508701601f8101891361090557600080fd5b6109148982516020840161080f565b9150509295509295509295565b600082516109338184602087016107df565b9190910192915050565b60018060a01b038416815282602082015260606040820152600082518060608401526109708160808501602087016107df565b601f01601f191691909101608001949350505050565b6bffffffffffffffffffffffff198460601b168152826014820152600082516109b68160348501602087016107df565b91909101603401949350505050565b6000602082840312156109d757600080fd5b8151801515811461036857600080fd5b600060ff821660ff84168060ff03821115610a1257634e487b7160e01b600052601160045260246000fd5b01939250505056fea264697066735822122058bbaed5c89ca5cb28641aae3b2e173244d0739cc6d1366da47de72aa53a842d64736f6c634300080b0033608060405234801561001057600080fd5b506040516001600160601b03193360601b16602082015260009060340160408051808303601f1901815282825280516020918201206000818152600192839052928320600281018290558281558083018390557fe90b7bceb6e7df5418fb78d8ee546e97c83a08bbccc01a0644d599ccd2a7c2e080548085019091557f7fef4bf8f63cf9dd467136c679c02b5c17fcf6322d9562512bf5eb952cf7cc5301829055549094509092909184917f480000bb1edad8ca1470381cc334b1917fbd51c6531f3a623ea8e0ec7e38a6e99190a45061181f806100ef6000396000f3fe608060405234801561001057600080fd5b50600436106100e95760003560e01c8063747442d31161008c578063b1a34e0d11610066578063b1a34e0d14610232578063b61d27f614610245578063c9100bcb14610258578063d202158d1461027d57600080fd5b8063747442d3146101f9578063862642f51461020c5780639010f7261461021f57600080fd5b80631d381240116100c85780631d38124014610183578063262b54f5146101a657806330690424146101c65780634eee424a146101e657600080fd5b8062f55d9d146100ee578063032c1a8a1461010357806312aaac7014610136575b600080fd5b6101016100fc366004611170565b610290565b005b610123610111366004611194565b60009081526001602052604090205490565b6040519081526020015b60405180910390f35b610168610144366004611194565b60008181526001602081905260409091208054918101546002909101549193909250565b6040805193845260208401929092529082015260600161012d565b6101966101913660046111ad565b61029c565b604051901515815260200161012d565b6101b96101b4366004611194565b6103bb565b60405161012d91906111d9565b6101d96101d4366004611194565b61041d565b60405161012d919061126a565b6101966101f4366004611194565b610663565b6101966102073660046112f1565b61076d565b61019661021a366004611194565b6109cb565b6101b961022d366004611194565b610a81565b6101236102403660046113d2565b610ae1565b610123610253366004611493565b610cea565b61026b610266366004611194565b610e4b565b60405161012d969594939291906114ec565b61019661028b36600461154c565b61104c565b806001600160a01b0316ff5b6000838152600160205260408120600201548414156102f75760405162461bcd60e51b81526020600482015260126024820152714b657920616c72656164792065786973747360701b60448201526064015b60405180910390fd5b33301461034b5761032f33604051602001610312919061156e565b60405160208183030381529060405280519060200120600161104c565b61034b5760405162461bcd60e51b81526004016102ee9061158b565b600084815260016020818152604080842060028082018a90558882559084018790558785528252808420805493840181558452908320909101869055518391859187917f480000bb1edad8ca1470381cc334b1917fbd51c6531f3a623ea8e0ec7e38a6e991a45060019392505050565b60008181526005602090815260409182902080548351818402810184019094528084526060939283018282801561041157602002820191906000526020600020905b8154815260200190600101908083116103fd575b50505050509050919050565b61045f6040518060c00160405280600081526020016000815260200160006001600160a01b031681526020016060815260200160608152602001606081525090565b600082815260046020908152604091829020825160c0810184528154815260018201549281019290925260028101546001600160a01b0316928201929092526003820180549192916060840191906104b6906115ce565b80601f01602080910402602001604051908101604052809291908181526020018280546104e2906115ce565b801561052f5780601f106105045761010080835404028352916020019161052f565b820191906000526020600020905b81548152906001019060200180831161051257829003601f168201915b50505050508152602001600482018054610548906115ce565b80601f0160208091040260200160405190810160405280929190818152602001828054610574906115ce565b80156105c15780601f10610596576101008083540402835291602001916105c1565b820191906000526020600020905b8154815290600101906020018083116105a457829003601f168201915b505050505081526020016005820180546105da906115ce565b80601f0160208091040260200160405190810160405280929190818152602001828054610606906115ce565b80156106535780601f1061062857610100808354040283529160200191610653565b820191906000526020600020905b81548152906001019060200180831161063657829003601f168201915b5050505050815250509050919050565b600033301461069c5761068033604051602001610312919061156e565b61069c5760405162461bcd60e51b81526004016102ee9061158b565b60008281526004602081905260409182902060028101548154600183015494516001600160a01b0390921694909387937f3cf57863a89432c61c4a27073c6ee39e8a764bff5a05aebfbcdcdc80b2e6130a936107079392600383019290810191600590910190611680565b60405180910390a46000828152600460205260408120818155600181018290556002810180546001600160a01b0319169055906107476003830182611085565b610755600483016000611085565b610763600583016000611085565b5060019392505050565b60006107a033604051602001610783919061156e565b60405160208183030381529060405280519060200120600261104c565b6107ec5760405162461bcd60e51b815260206004820152601f60248201527f53656e64657220646f6573206e6f74206861766520616374696f6e206b65790060448201526064016102ee565b827fb3932da477fe5d6c8ff2eafef050c0f3a1af18fc07121001482600f36f3715d883604051610820911515815260200190565b60405180910390a26060600183151514156109a657600084815260036020819052604091829020908101805460ff19166001179055805491516001600160a01b039092169161087291600201906116ca565b6000604051808303816000865af19150503d80600081146108af576040519150601f19603f3d011682016040523d82523d6000602084013e6108b4565b606091505b509092509050811561093c57600084815260036020819052604091829020908101805461ff00191661010017905560018101548154925190926001600160a01b03169187917f1f920dbda597d7bf95035464170fa58d0a4b57f13a1c315ace6793b9f63688b89161092a9160029091019061173c565b60405180910390a460019150506109c5565b6000848152600360205260409081902060018101548154925190926001600160a01b03169187917fe10c49d9f7c71da23262367013434763cfdb2332267641728d25cd712c5c6a68916109949160029091019061173c565b60405180910390a460009150506109c5565b5050600082815260036020819052604090912001805460ff1916905560015b92915050565b6000818152600160205260408120600201548214610a195760405162461bcd60e51b815260206004820152600b60248201526a4e6f2073756368206b657960a81b60448201526064016102ee565b6000828152600160208190526040808320918201548254600290930154915190937f585a4aef50f8267a92b32412b331b20f7f8b96f2245b253b9cc50dcc621d339791a450600090815260016020819052604082208281558082018390556002019190915590565b60008181526002602090815260409182902080548351818402810184019094528084526060939283018282801561041157602002820191906000526020600020908154815260200190600101908083116103fd5750505050509050919050565b6040516bffffffffffffffffffffffff193060601b16602082015260348101879052600090819060540160408051601f1981840301815291905280516020909101209050333014610bb757610b5d33604051602001610b40919061156e565b60405160208183030381529060405280519060200120600361104c565b610bb75760405162461bcd60e51b815260206004820152602560248201527f53656e64657220646f6573206e6f74206861766520636c61696d207369676e6560448201526472206b657960d81b60648201526084016102ee565b6000818152600460205260409020600201546001600160a01b03878116911614610bfd576000888152600560209081526040822080546001810182559083529120018190555b6000818152600460209081526040909120898155600181018990556002810180546001600160a01b0319166001600160a01b038a161790558651610c49926003909201918801906110c2565b5060008181526004602081815260409092208651610c6f939190920191908701906110c2565b5060008181526004602090815260409091208451610c95926005909201918601906110c2565b50856001600160a01b031688827f46149b18aa084502c3f12bc75e19eda8bda8d102b82cce8474677a6d0d5f43c58a898989604051610cd7949392919061174f565b60405180910390a4979650505050505050565b60008054815260036020819052604082200154610100900460ff1615610d455760405162461bcd60e51b815260206004820152601060248201526f105b1c9958591e48195e1958dd5d195960821b60448201526064016102ee565b60008054815260036020908152604080832080546001600160a01b0319166001600160a01b03891617905582548352808320600101869055825483529091208351610d98926002909201918501906110c2565b5082846001600160a01b03166000547f8afcfabcb00e47a53a8fc3e9f23ff47ee1926194bb1350dd007c50b412a6cee885604051610dd6919061178e565b60405180910390a4610df233604051602001610312919061156e565b80610e0c5750610e0c33604051602001610783919061156e565b15610e2057610e1e600054600161076d565b505b600080549080610e2f836117b7565b91905055506001600054610e4391906117d2565b949350505050565b600081815260046020819052604082208054600182015460028301546003840180548796879660609687968796919590946001600160a01b03909216939092908101916005909101908390610e9f906115ce565b80601f0160208091040260200160405190810160405280929190818152602001828054610ecb906115ce565b8015610f185780601f10610eed57610100808354040283529160200191610f18565b820191906000526020600020905b815481529060010190602001808311610efb57829003601f168201915b50505050509250818054610f2b906115ce565b80601f0160208091040260200160405190810160405280929190818152602001828054610f57906115ce565b8015610fa45780601f10610f7957610100808354040283529160200191610fa4565b820191906000526020600020905b815481529060010190602001808311610f8757829003601f168201915b50505050509150808054610fb7906115ce565b80601f0160208091040260200160405190810160405280929190818152602001828054610fe3906115ce565b80156110305780601f1061100557610100808354040283529160200191611030565b820191906000526020600020905b81548152906001019060200180831161101357829003601f168201915b5050505050905095509550955095509550955091939550919395565b600082815260016020526040812060020154819061106e5760009150506109c5565b505060009182526001602052604090912054111590565b508054611091906115ce565b6000825580601f106110a1575050565b601f0160209004906000526020600020908101906110bf9190611146565b50565b8280546110ce906115ce565b90600052602060002090601f0160209004810192826110f05760008555611136565b82601f1061110957805160ff1916838001178555611136565b82800160010185558215611136579182015b8281111561113657825182559160200191906001019061111b565b50611142929150611146565b5090565b5b808211156111425760008155600101611147565b6001600160a01b03811681146110bf57600080fd5b60006020828403121561118257600080fd5b813561118d8161115b565b9392505050565b6000602082840312156111a657600080fd5b5035919050565b6000806000606084860312156111c257600080fd5b505081359360208301359350604090920135919050565b6020808252825182820181905260009190848201906040850190845b81811015611211578351835292840192918401916001016111f5565b50909695505050505050565b6000815180845260005b8181101561124357602081850181015186830182015201611227565b81811115611255576000602083870101525b50601f01601f19169290920160200192915050565b60208152815160208201526020820151604082015260018060a01b0360408301511660608201526000606083015160c060808401526112ac60e084018261121d565b90506080840151601f19808584030160a08601526112ca838361121d565b925060a08601519150808584030160c0860152506112e8828261121d565b95945050505050565b6000806040838503121561130457600080fd5b823591506020830135801515811461131b57600080fd5b809150509250929050565b634e487b7160e01b600052604160045260246000fd5b600067ffffffffffffffff8084111561135757611357611326565b604051601f8501601f19908116603f0116810190828211818310171561137f5761137f611326565b8160405280935085815286868601111561139857600080fd5b858560208301376000602087830101525050509392505050565b600082601f8301126113c357600080fd5b61118d8383356020850161133c565b60008060008060008060c087890312156113eb57600080fd5b863595506020870135945060408701356114048161115b565b9350606087013567ffffffffffffffff8082111561142157600080fd5b61142d8a838b016113b2565b9450608089013591508082111561144357600080fd5b61144f8a838b016113b2565b935060a089013591508082111561146557600080fd5b508701601f8101891361147757600080fd5b6114868982356020840161133c565b9150509295509295509295565b6000806000606084860312156114a857600080fd5b83356114b38161115b565b925060208401359150604084013567ffffffffffffffff8111156114d657600080fd5b6114e2868287016113b2565b9150509250925092565b86815285602082015260018060a01b038516604082015260c06060820152600061151960c083018661121d565b828103608084015261152b818661121d565b905082810360a084015261153f818561121d565b9998505050505050505050565b6000806040838503121561155f57600080fd5b50508035926020909101359150565b60609190911b6bffffffffffffffffffffffff1916815260140190565b60208082526023908201527f53656e64657220646f6573206e6f742068617665206d616e6167656d656e74206040820152626b657960e81b606082015260800190565b600181811c908216806115e257607f821691505b6020821081141561160357634e487b7160e01b600052602260045260246000fd5b50919050565b60008154611616816115ce565b808552602060018381168015611633576001811461164757611675565b60ff19851688840152604088019550611675565b866000528260002060005b8581101561166d5781548a8201860152908301908401611652565b890184019650505b505050505092915050565b8481526080602082015260006116996080830186611609565b82810360408401526116ab8186611609565b905082810360608401526116bf8185611609565b979650505050505050565b60008083546116d8816115ce565b600182811680156116f0576001811461170157611730565b60ff19841687528287019450611730565b8760005260208060002060005b858110156117275781548a82015290840190820161170e565b50505082870194505b50929695505050505050565b60208152600061118d6020830184611609565b848152608060208201526000611768608083018661121d565b828103604084015261177a818661121d565b905082810360608401526116bf818561121d565b60208152600061118d602083018461121d565b634e487b7160e01b600052601160045260246000fd5b60006000198214156117cb576117cb6117a1565b5060010190565b6000828210156117e4576117e46117a1565b50039056fea2646970667358221220feb08c1424860b42ecfb192a7eed93d9be4a95d313b211f9e0446a9f6edb0a7d64736f6c634300080b0033a26469706673582212201598c6a445be6d108da9b63d31850d98aaa2045bed34392eeeb0fc247d010c7f64736f6c634300080b0033",
    "sourcePath": "c:/workspace/rpModule/blockchain/contracts/EthereumClaimsRegistry.sol",
    "compiler": {
        "name": "solc",
        "version": "0.8.11+commit.d7f03943"
    },
    "functionHashes": {
        "addClaim(address,uint256,uint256,address,bytes,bytes,string)": "ed71842a",
        "addClaimHolder()": "dbfe87e1",
        "addKey(address,bytes32,uint256,uint256)": "237ed9b4",
        "checkClaim(address,address,uint256)": "0803a73e",
        "checkClaimByData(address,address,uint256,bytes)": "62fdbdbb",
        "claimHolder(address)": "423401b3",
        "destroy(address)": "00f55d9d",
        "getClaim(address,bytes32)": "4361443f",
        "getClaimHolder(address)": "0e2f9575",
        "getClaimIdsByType(address,uint256)": "fdde0e66",
        "getKey(address,bytes32)": "314f5c11",
        "getKeyPurpose(address,bytes32)": "f8ba8f84",
        "getKeysByPurpose(address,uint256)": "3468ed3d",
        "removeClaim(address,bytes32)": "a1c8ca7e",
        "removeKey(address,bytes32)": "b1fea455"
    },
    "gasEstimates": {
        "creation": {
            "codeDepositCost": "2706000",
            "executionCost": "2938",
            "totalCost": "2708938"
        },
        "external": {
            "addClaim(address,uint256,uint256,address,bytes,bytes,string)": "infinite",
            "addClaimHolder()": "infinite",
            "addKey(address,bytes32,uint256,uint256)": "infinite",
            "checkClaim(address,address,uint256)": "infinite",
            "checkClaimByData(address,address,uint256,bytes)": "infinite",
            "claimHolder(address)": "2644",
            "destroy(address)": "infinite",
            "getClaim(address,bytes32)": "infinite",
            "getClaimHolder(address)": "2632",
            "getClaimIdsByType(address,uint256)": "infinite",
            "getKey(address,bytes32)": "infinite",
            "getKeyPurpose(address,bytes32)": "infinite",
            "getKeysByPurpose(address,uint256)": "infinite",
            "removeClaim(address,bytes32)": "infinite",
            "removeKey(address,bytes32)": "infinite"
        }
    }
}