{
  "contractName": "ClaimHolder",
  "abi": [
    {
      "anonymous": false,
      "inputs": [
        {
          "indexed": true,
          "internalType": "uint256",
          "name": "executionId",
          "type": "uint256"
        },
        {
          "indexed": false,
          "internalType": "bool",
          "name": "approved",
          "type": "bool"
        }
      ],
      "name": "Approved",
      "type": "event"
    },
    {
      "anonymous": false,
      "inputs": [
        {
          "indexed": true,
          "internalType": "bytes32",
          "name": "claimId",
          "type": "bytes32"
        },
        {
          "indexed": true,
          "internalType": "uint256",
          "name": "claimType",
          "type": "uint256"
        },
        {
          "indexed": true,
          "internalType": "address",
          "name": "issuer",
          "type": "address"
        },
        {
          "indexed": false,
          "internalType": "uint256",
          "name": "signatureType",
          "type": "uint256"
        },
        {
          "indexed": false,
          "internalType": "bytes32",
          "name": "signature",
          "type": "bytes32"
        },
        {
          "indexed": false,
          "internalType": "bytes",
          "name": "claim",
          "type": "bytes"
        },
        {
          "indexed": false,
          "internalType": "string",
          "name": "uri",
          "type": "string"
        }
      ],
      "name": "ClaimAdded",
      "type": "event"
    },
    {
      "anonymous": false,
      "inputs": [
        {
          "indexed": true,
          "internalType": "bytes32",
          "name": "claimId",
          "type": "bytes32"
        },
        {
          "indexed": true,
          "internalType": "uint256",
          "name": "claimType",
          "type": "uint256"
        },
        {
          "indexed": false,
          "internalType": "uint256",
          "name": "scheme",
          "type": "uint256"
        },
        {
          "indexed": true,
          "internalType": "address",
          "name": "issuer",
          "type": "address"
        },
        {
          "indexed": false,
          "internalType": "bytes",
          "name": "signature",
          "type": "bytes"
        },
        {
          "indexed": false,
          "internalType": "bytes",
          "name": "data",
          "type": "bytes"
        },
        {
          "indexed": false,
          "internalType": "string",
          "name": "uri",
          "type": "string"
        }
      ],
      "name": "ClaimAdded",
      "type": "event"
    },
    {
      "anonymous": false,
      "inputs": [
        {
          "indexed": true,
          "internalType": "bytes32",
          "name": "claimId",
          "type": "bytes32"
        },
        {
          "indexed": true,
          "internalType": "uint256",
          "name": "claimType",
          "type": "uint256"
        },
        {
          "indexed": false,
          "internalType": "uint256",
          "name": "scheme",
          "type": "uint256"
        },
        {
          "indexed": true,
          "internalType": "address",
          "name": "issuer",
          "type": "address"
        },
        {
          "indexed": false,
          "internalType": "bytes",
          "name": "signature",
          "type": "bytes"
        },
        {
          "indexed": false,
          "internalType": "bytes",
          "name": "data",
          "type": "bytes"
        },
        {
          "indexed": false,
          "internalType": "string",
          "name": "uri",
          "type": "string"
        }
      ],
      "name": "ClaimChanged",
      "type": "event"
    },
    {
      "anonymous": false,
      "inputs": [
        {
          "indexed": true,
          "internalType": "bytes32",
          "name": "claimId",
          "type": "bytes32"
        },
        {
          "indexed": true,
          "internalType": "uint256",
          "name": "claimType",
          "type": "uint256"
        },
        {
          "indexed": false,
          "internalType": "uint256",
          "name": "scheme",
          "type": "uint256"
        },
        {
          "indexed": true,
          "internalType": "address",
          "name": "issuer",
          "type": "address"
        },
        {
          "indexed": false,
          "internalType": "bytes",
          "name": "signature",
          "type": "bytes"
        },
        {
          "indexed": false,
          "internalType": "bytes",
          "name": "data",
          "type": "bytes"
        },
        {
          "indexed": false,
          "internalType": "string",
          "name": "uri",
          "type": "string"
        }
      ],
      "name": "ClaimRemoved",
      "type": "event"
    },
    {
      "anonymous": false,
      "inputs": [
        {
          "indexed": true,
          "internalType": "uint256",
          "name": "claimRequestId",
          "type": "uint256"
        },
        {
          "indexed": true,
          "internalType": "uint256",
          "name": "claimType",
          "type": "uint256"
        },
        {
          "indexed": false,
          "internalType": "uint256",
          "name": "scheme",
          "type": "uint256"
        },
        {
          "indexed": true,
          "internalType": "address",
          "name": "issuer",
          "type": "address"
        },
        {
          "indexed": false,
          "internalType": "bytes",
          "name": "signature",
          "type": "bytes"
        },
        {
          "indexed": false,
          "internalType": "bytes",
          "name": "data",
          "type": "bytes"
        },
        {
          "indexed": false,
          "internalType": "string",
          "name": "uri",
          "type": "string"
        }
      ],
      "name": "ClaimRequested",
      "type": "event"
    },
    {
      "anonymous": false,
      "inputs": [
        {
          "indexed": true,
          "internalType": "uint256",
          "name": "executionId",
          "type": "uint256"
        },
        {
          "indexed": true,
          "internalType": "address",
          "name": "to",
          "type": "address"
        },
        {
          "indexed": true,
          "internalType": "uint256",
          "name": "value",
          "type": "uint256"
        },
        {
          "indexed": false,
          "internalType": "bytes",
          "name": "data",
          "type": "bytes"
        }
      ],
      "name": "Executed",
      "type": "event"
    },
    {
      "anonymous": false,
      "inputs": [
        {
          "indexed": true,
          "internalType": "uint256",
          "name": "executionId",
          "type": "uint256"
        },
        {
          "indexed": true,
          "internalType": "address",
          "name": "to",
          "type": "address"
        },
        {
          "indexed": true,
          "internalType": "uint256",
          "name": "value",
          "type": "uint256"
        },
        {
          "indexed": false,
          "internalType": "bytes",
          "name": "data",
          "type": "bytes"
        }
      ],
      "name": "ExecutionFailed",
      "type": "event"
    },
    {
      "anonymous": false,
      "inputs": [
        {
          "indexed": true,
          "internalType": "uint256",
          "name": "executionId",
          "type": "uint256"
        },
        {
          "indexed": true,
          "internalType": "address",
          "name": "to",
          "type": "address"
        },
        {
          "indexed": true,
          "internalType": "uint256",
          "name": "value",
          "type": "uint256"
        },
        {
          "indexed": false,
          "internalType": "bytes",
          "name": "data",
          "type": "bytes"
        }
      ],
      "name": "ExecutionRequested",
      "type": "event"
    },
    {
      "anonymous": false,
      "inputs": [
        {
          "indexed": true,
          "internalType": "bytes32",
          "name": "key",
          "type": "bytes32"
        },
        {
          "indexed": true,
          "internalType": "uint256",
          "name": "purpose",
          "type": "uint256"
        },
        {
          "indexed": true,
          "internalType": "uint256",
          "name": "keyType",
          "type": "uint256"
        }
      ],
      "name": "KeyAdded",
      "type": "event"
    },
    {
      "anonymous": false,
      "inputs": [
        {
          "indexed": true,
          "internalType": "bytes32",
          "name": "key",
          "type": "bytes32"
        },
        {
          "indexed": true,
          "internalType": "uint256",
          "name": "purpose",
          "type": "uint256"
        },
        {
          "indexed": true,
          "internalType": "uint256",
          "name": "keyType",
          "type": "uint256"
        }
      ],
      "name": "KeyRemoved",
      "type": "event"
    },
    {
      "inputs": [
        {
          "internalType": "bytes32",
          "name": "_key",
          "type": "bytes32"
        },
        {
          "internalType": "uint256",
          "name": "_purpose",
          "type": "uint256"
        },
        {
          "internalType": "uint256",
          "name": "_type",
          "type": "uint256"
        }
      ],
      "name": "addKey",
      "outputs": [
        {
          "internalType": "bool",
          "name": "success",
          "type": "bool"
        }
      ],
      "stateMutability": "nonpayable",
      "type": "function"
    },
    {
      "inputs": [
        {
          "internalType": "uint256",
          "name": "_id",
          "type": "uint256"
        },
        {
          "internalType": "bool",
          "name": "_approve",
          "type": "bool"
        }
      ],
      "name": "approve",
      "outputs": [
        {
          "internalType": "bool",
          "name": "success",
          "type": "bool"
        }
      ],
      "stateMutability": "nonpayable",
      "type": "function"
    },
    {
      "inputs": [
        {
          "internalType": "address",
          "name": "_to",
          "type": "address"
        },
        {
          "internalType": "uint256",
          "name": "_value",
          "type": "uint256"
        },
        {
          "internalType": "bytes",
          "name": "_data",
          "type": "bytes"
        }
      ],
      "name": "execute",
      "outputs": [
        {
          "internalType": "uint256",
          "name": "executionId",
          "type": "uint256"
        }
      ],
      "stateMutability": "nonpayable",
      "type": "function"
    },
    {
      "inputs": [
        {
          "internalType": "bytes32",
          "name": "_key",
          "type": "bytes32"
        }
      ],
      "name": "getKey",
      "outputs": [
        {
          "internalType": "uint256",
          "name": "purpose",
          "type": "uint256"
        },
        {
          "internalType": "uint256",
          "name": "keyType",
          "type": "uint256"
        },
        {
          "internalType": "bytes32",
          "name": "key",
          "type": "bytes32"
        }
      ],
      "stateMutability": "view",
      "type": "function"
    },
    {
      "inputs": [
        {
          "internalType": "bytes32",
          "name": "_key",
          "type": "bytes32"
        }
      ],
      "name": "getKeyPurpose",
      "outputs": [
        {
          "internalType": "uint256",
          "name": "purpose",
          "type": "uint256"
        }
      ],
      "stateMutability": "view",
      "type": "function"
    },
    {
      "inputs": [
        {
          "internalType": "uint256",
          "name": "_purpose",
          "type": "uint256"
        }
      ],
      "name": "getKeysByPurpose",
      "outputs": [
        {
          "internalType": "bytes32[]",
          "name": "_keys",
          "type": "bytes32[]"
        }
      ],
      "stateMutability": "view",
      "type": "function"
    },
    {
      "inputs": [
        {
          "internalType": "bytes32",
          "name": "_key",
          "type": "bytes32"
        },
        {
          "internalType": "uint256",
          "name": "_purpose",
          "type": "uint256"
        }
      ],
      "name": "keyHasPurpose",
      "outputs": [
        {
          "internalType": "bool",
          "name": "result",
          "type": "bool"
        }
      ],
      "stateMutability": "view",
      "type": "function"
    },
    {
      "inputs": [
        {
          "internalType": "bytes32",
          "name": "_key",
          "type": "bytes32"
        }
      ],
      "name": "removeKey",
      "outputs": [
        {
          "internalType": "bool",
          "name": "success",
          "type": "bool"
        }
      ],
      "stateMutability": "nonpayable",
      "type": "function"
    },
    {
      "inputs": [
        {
          "internalType": "uint256",
          "name": "_claimType",
          "type": "uint256"
        },
        {
          "internalType": "uint256",
          "name": "_scheme",
          "type": "uint256"
        },
        {
          "internalType": "address",
          "name": "_issuer",
          "type": "address"
        },
        {
          "internalType": "bytes",
          "name": "_signature",
          "type": "bytes"
        },
        {
          "internalType": "bytes",
          "name": "_data",
          "type": "bytes"
        },
        {
          "internalType": "string",
          "name": "_uri",
          "type": "string"
        }
      ],
      "name": "addClaim",
      "outputs": [
        {
          "internalType": "bytes32",
          "name": "claimRequestId",
          "type": "bytes32"
        }
      ],
      "stateMutability": "nonpayable",
      "type": "function"
    },
    {
      "inputs": [
        {
          "internalType": "bytes32",
          "name": "_claimId",
          "type": "bytes32"
        }
      ],
      "name": "removeClaim",
      "outputs": [
        {
          "internalType": "bool",
          "name": "success",
          "type": "bool"
        }
      ],
      "stateMutability": "nonpayable",
      "type": "function"
    },
    {
      "inputs": [
        {
          "internalType": "bytes32",
          "name": "_claimId",
          "type": "bytes32"
        }
      ],
      "name": "getClaim",
      "outputs": [
        {
          "internalType": "uint256",
          "name": "claimType",
          "type": "uint256"
        },
        {
          "internalType": "uint256",
          "name": "scheme",
          "type": "uint256"
        },
        {
          "internalType": "address",
          "name": "issuer",
          "type": "address"
        },
        {
          "internalType": "bytes",
          "name": "signature",
          "type": "bytes"
        },
        {
          "internalType": "bytes",
          "name": "data",
          "type": "bytes"
        },
        {
          "internalType": "string",
          "name": "uri",
          "type": "string"
        }
      ],
      "stateMutability": "view",
      "type": "function"
    },
    {
      "inputs": [
        {
          "internalType": "uint256",
          "name": "_claimType",
          "type": "uint256"
        }
      ],
      "name": "getClaimIdsByType",
      "outputs": [
        {
          "internalType": "bytes32[]",
          "name": "claimIds",
          "type": "bytes32[]"
        }
      ],
      "stateMutability": "view",
      "type": "function"
    }
  ],
  "bytecode": "0x60806040523480156200001157600080fd5b5060003360405160200162000027919062000132565b6040516020818303038152906040528051906020012090508060016000838152602001908152602001600020600201819055506001806000838152602001908152602001600020600001819055506001806000838152602001908152602001600020600101819055506002600060018152602001908152602001600020819080600181540180825580915050600190039060005260206000200160009091909190915055600180600083815260200190815260200160002060000154827f480000bb1edad8ca1470381cc334b1917fbd51c6531f3a623ea8e0ec7e38a6e960405160405180910390a450620001b8565b6200012c62000126826200014f565b62000183565b82525050565b600062000140828462000117565b60148201915081905092915050565b60006200015c8262000163565b9050919050565b600073ffffffffffffffffffffffffffffffffffffffff82169050919050565b6000620001908262000197565b9050919050565b6000620001a482620001ab565b9050919050565b60008160601b9050919050565b6125bb80620001c86000396000f3fe608060405234801561001057600080fd5b50600436106100b45760003560e01c8063862642f511610071578063862642f5146101db5780639010f7261461020b578063b1a34e0d1461023b578063b61d27f61461026b578063c9100bcb1461029b578063d202158d146102d0576100b4565b8063032c1a8a146100b957806312aaac70146100e95780631d3812401461011b578063262b54f51461014b5780634eee424a1461017b578063747442d3146101ab575b600080fd5b6100d360048036038101906100ce919061179b565b610300565b6040516100e09190611ef1565b60405180910390f35b61010360048036038101906100fe919061179b565b610320565b60405161011293929190612036565b60405180910390f35b61013560048036038101906101309190611800565b610377565b6040516101429190611db7565b60405180910390f35b6101656004803603810190610160919061184f565b61053b565b6040516101729190611d95565b60405180910390f35b6101956004803603810190610190919061179b565b6105a6565b6040516101a29190611db7565b60405180910390f35b6101c560048036038101906101c09190611878565b6107c9565b6040516101d29190611db7565b60405180910390f35b6101f560048036038101906101f0919061179b565b610b52565b6040516102029190611db7565b60405180910390f35b6102256004803603810190610220919061184f565b610c54565b6040516102329190611d95565b60405180910390f35b610255600480360381019061025091906118b4565b610cbf565b6040516102629190611dd2565b60405180910390f35b61028560048036038101906102809190611734565b610fa5565b6040516102929190611ef1565b60405180910390f35b6102b560048036038101906102b0919061179b565b6111a8565b6040516102c796959493929190611fc0565b60405180910390f35b6102ea60048036038101906102e591906117c4565b611412565b6040516102f79190611db7565b60405180910390f35b600060016000838152602001908152602001600020600001549050919050565b60008060006001600085815260200190815260200160002060000154600160008681526020019081526020016000206001015460016000878152602001908152602001600020600201549250925092509193909250565b600083600160008681526020019081526020016000206002015414156103d2576040517f08c379a00000000000000000000000000000000000000000000000000000000081526004016103c990611e51565b60405180910390fd5b3073ffffffffffffffffffffffffffffffffffffffff163373ffffffffffffffffffffffffffffffffffffffff161461047657610436336040516020016104199190611d37565b604051602081830303815290604052805190602001206001611412565b610475576040517f08c379a000000000000000000000000000000000000000000000000000000000815260040161046c90611eb1565b60405180910390fd5b5b836001600086815260200190815260200160002060020181905550826001600086815260200190815260200160002060000181905550816001600086815260200190815260200160002060010181905550600260008481526020019081526020016000208490806001815401808255809150506001900390600052602060002001600090919091909150558183857f480000bb1edad8ca1470381cc334b1917fbd51c6531f3a623ea8e0ec7e38a6e960405160405180910390a4600190509392505050565b60606005600083815260200190815260200160002080548060200260200160405190810160405280929190818152602001828054801561059a57602002820191906000526020600020905b815481526020019060010190808311610586575b50505050509050919050565b60003073ffffffffffffffffffffffffffffffffffffffff163373ffffffffffffffffffffffffffffffffffffffff161461064c5761060c336040516020016105ef9190611d37565b604051602081830303815290604052805190602001206001611412565b61064b576040517f08c379a000000000000000000000000000000000000000000000000000000000815260040161064290611eb1565b60405180910390fd5b5b6004600083815260200190815260200160002060020160009054906101000a900473ffffffffffffffffffffffffffffffffffffffff1673ffffffffffffffffffffffffffffffffffffffff166004600084815260200190815260200160002060000154837f3cf57863a89432c61c4a27073c6ee39e8a764bff5a05aebfbcdcdc80b2e6130a60046000878152602001908152602001600020600101546004600088815260200190815260200160002060030160046000898152602001908152602001600020600401600460008a815260200190815260200160002060050160405161073b9493929190611f66565b60405180910390a46004600083815260200190815260200160002060008082016000905560018201600090556002820160006101000a81549073ffffffffffffffffffffffffffffffffffffffff021916905560038201600061079e9190611467565b6004820160006107ae9190611467565b6005820160006107be91906114a7565b505060019050919050565b60006107fc336040516020016107df9190611d37565b604051602081830303815290604052805190602001206002611412565b61083b576040517f08c379a000000000000000000000000000000000000000000000000000000000815260040161083290611e31565b60405180910390fd5b827fb3932da477fe5d6c8ff2eafef050c0f3a1af18fc07121001482600f36f3715d88360405161086b9190611db7565b60405180910390a26060600115158315151415610b175760016003600086815260200190815260200160002060030160006101000a81548160ff0219169083151502179055506003600085815260200190815260200160002060000160009054906101000a900473ffffffffffffffffffffffffffffffffffffffff1673ffffffffffffffffffffffffffffffffffffffff16600360008681526020019081526020016000206002016040516109219190611d7e565b6000604051808303816000865af19150503d806000811461095e576040519150601f19603f3d011682016040523d82523d6000602084013e610963565b606091505b5080925081935050508115610a5c5760016003600086815260200190815260200160002060030160016101000a81548160ff02191690831515021790555060036000858152602001908152602001600020600101546003600086815260200190815260200160002060000160009054906101000a900473ffffffffffffffffffffffffffffffffffffffff1673ffffffffffffffffffffffffffffffffffffffff16857f1f920dbda597d7bf95035464170fa58d0a4b57f13a1c315ace6793b9f63688b860036000898152602001908152602001600020600201604051610a4a9190611e0f565b60405180910390a46001915050610b4c565b60036000858152602001908152602001600020600101546003600086815260200190815260200160002060000160009054906101000a900473ffffffffffffffffffffffffffffffffffffffff1673ffffffffffffffffffffffffffffffffffffffff16857fe10c49d9f7c71da23262367013434763cfdb2332267641728d25cd712c5c6a6860036000898152602001908152602001600020600201604051610b059190611e0f565b60405180910390a46000915050610b4c565b60006003600086815260200190815260200160002060030160006101000a81548160ff02191690831515021790555060019150505b92915050565b600081600160008481526020019081526020016000206002015414610bac576040517f08c379a0000000000000000000000000000000000000000000000000000000008152600401610ba390611ed1565b60405180910390fd5b6001600083815260200190815260200160002060010154600160008481526020019081526020016000206000015460016000858152602001908152602001600020600201547f585a4aef50f8267a92b32412b331b20f7f8b96f2245b253b9cc50dcc621d339760405160405180910390a46001600083815260200190815260200160002060008082016000905560018201600090556002820160009055505060019050919050565b606060026000838152602001908152602001600020805480602002602001604051908101604052809291908181526020018280548015610cb357602002820191906000526020600020905b815481526020019060010190808311610c9f575b50505050509050919050565b6000808588604051602001610cd5929190611d52565b6040516020818303038152906040528051906020012090503073ffffffffffffffffffffffffffffffffffffffff163373ffffffffffffffffffffffffffffffffffffffff1614610d9157610d5133604051602001610d349190611d37565b604051602081830303815290604052805190602001206003611412565b610d90576040517f08c379a0000000000000000000000000000000000000000000000000000000008152600401610d8790611e71565b60405180910390fd5b5b8573ffffffffffffffffffffffffffffffffffffffff166004600083815260200190815260200160002060020160009054906101000a900473ffffffffffffffffffffffffffffffffffffffff1673ffffffffffffffffffffffffffffffffffffffff1614610e3557600560008981526020019081526020016000208190806001815401808255809150506001900390600052602060002001600090919091909150555b876004600083815260200190815260200160002060000181905550866004600083815260200190815260200160002060010181905550856004600083815260200190815260200160002060020160006101000a81548173ffffffffffffffffffffffffffffffffffffffff021916908373ffffffffffffffffffffffffffffffffffffffff16021790555084600460008381526020019081526020016000206003019080519060200190610eea9291906114e7565b5083600460008381526020019081526020016000206004019080519060200190610f159291906114e7565b5082600460008381526020019081526020016000206005019080519060200190610f4092919061156d565b508573ffffffffffffffffffffffffffffffffffffffff1688827f46149b18aa084502c3f12bc75e19eda8bda8d102b82cce8474677a6d0d5f43c58a898989604051610f8f9493929190611f0c565b60405180910390a4809150509695505050505050565b6000600360008054815260200190815260200160002060030160019054906101000a900460ff161561100c576040517f08c379a000000000000000000000000000000000000000000000000000000000815260040161100390611e91565b60405180910390fd5b83600360008054815260200190815260200160002060000160006101000a81548173ffffffffffffffffffffffffffffffffffffffff021916908373ffffffffffffffffffffffffffffffffffffffff1602179055508260036000805481526020019081526020016000206001018190555081600360008054815260200190815260200160002060020190805190602001906110a99291906114e7565b50828473ffffffffffffffffffffffffffffffffffffffff166000547f8afcfabcb00e47a53a8fc3e9f23ff47ee1926194bb1350dd007c50b412a6cee8856040516110f49190611ded565b60405180910390a461112d336040516020016111109190611d37565b604051602081830303815290604052805190602001206001611412565b806111655750611164336040516020016111479190611d37565b604051602081830303815290604052805190602001206002611412565b5b156111795761117760005460016107c9565b505b60008081548092919061118b906122c5565b9190505550600160005461119f919061219a565b90509392505050565b6000806000606080606060046000888152602001908152602001600020600001546004600089815260200190815260200160002060010154600460008a815260200190815260200160002060020160009054906101000a900473ffffffffffffffffffffffffffffffffffffffff16600460008b8152602001908152602001600020600301600460008c8152602001908152602001600020600401600460008d815260200190815260200160002060050182805461126590612262565b80601f016020809104026020016040519081016040528092919081815260200182805461129190612262565b80156112de5780601f106112b3576101008083540402835291602001916112de565b820191906000526020600020905b8154815290600101906020018083116112c157829003601f168201915b505050505092508180546112f190612262565b80601f016020809104026020016040519081016040528092919081815260200182805461131d90612262565b801561136a5780601f1061133f5761010080835404028352916020019161136a565b820191906000526020600020905b81548152906001019060200180831161134d57829003601f168201915b5050505050915080805461137d90612262565b80601f01602080910402602001604051908101604052809291908181526020018280546113a990612262565b80156113f65780601f106113cb576101008083540402835291602001916113f6565b820191906000526020600020905b8154815290600101906020018083116113d957829003601f168201915b5050505050905095509550955095509550955091939550919395565b6000806000801b60016000868152602001908152602001600020600201541415611440576000915050611461565b82600160008681526020019081526020016000206000015411159050809150505b92915050565b50805461147390612262565b6000825580601f1061148557506114a4565b601f0160209004906000526020600020908101906114a391906115f3565b5b50565b5080546114b390612262565b6000825580601f106114c557506114e4565b601f0160209004906000526020600020908101906114e391906115f3565b5b50565b8280546114f390612262565b90600052602060002090601f016020900481019282611515576000855561155c565b82601f1061152e57805160ff191683800117855561155c565b8280016001018555821561155c579182015b8281111561155b578251825591602001919060010190611540565b5b50905061156991906115f3565b5090565b82805461157990612262565b90600052602060002090601f01602090048101928261159b57600085556115e2565b82601f106115b457805160ff19168380011785556115e2565b828001600101855582156115e2579182015b828111156115e15782518255916020019190600101906115c6565b5b5090506115ef91906115f3565b5090565b5b8082111561160c5760008160009055506001016115f4565b5090565b600061162361161e84612092565b61206d565b90508281526020810184848401111561163b57600080fd5b611646848285612220565b509392505050565b600061166161165c846120c3565b61206d565b90508281526020810184848401111561167957600080fd5b611684848285612220565b509392505050565b60008135905061169b81612529565b92915050565b6000813590506116b081612540565b92915050565b6000813590506116c581612557565b92915050565b600082601f8301126116dc57600080fd5b81356116ec848260208601611610565b91505092915050565b600082601f83011261170657600080fd5b813561171684826020860161164e565b91505092915050565b60008135905061172e8161256e565b92915050565b60008060006060848603121561174957600080fd5b60006117578682870161168c565b93505060206117688682870161171f565b925050604084013567ffffffffffffffff81111561178557600080fd5b611791868287016116cb565b9150509250925092565b6000602082840312156117ad57600080fd5b60006117bb848285016116b6565b91505092915050565b600080604083850312156117d757600080fd5b60006117e5858286016116b6565b92505060206117f68582860161171f565b9150509250929050565b60008060006060848603121561181557600080fd5b6000611823868287016116b6565b93505060206118348682870161171f565b92505060406118458682870161171f565b9150509250925092565b60006020828403121561186157600080fd5b600061186f8482850161171f565b91505092915050565b6000806040838503121561188b57600080fd5b60006118998582860161171f565b92505060206118aa858286016116a1565b9150509250929050565b60008060008060008060c087890312156118cd57600080fd5b60006118db89828a0161171f565b96505060206118ec89828a0161171f565b95505060406118fd89828a0161168c565b945050606087013567ffffffffffffffff81111561191a57600080fd5b61192689828a016116cb565b935050608087013567ffffffffffffffff81111561194357600080fd5b61194f89828a016116cb565b92505060a087013567ffffffffffffffff81111561196c57600080fd5b61197889828a016116f5565b9150509295509295509295565b60006119918383611a30565b60208301905092915050565b6119a6816121ce565b82525050565b6119bd6119b8826121ce565b61230e565b82525050565b60006119ce8261212e565b6119d8818561215c565b93506119e3836120f4565b8060005b83811015611a145781516119fb8882611985565b9750611a068361214f565b9250506001810190506119e7565b5085935050505092915050565b611a2a816121e0565b82525050565b611a39816121ec565b82525050565b611a48816121ec565b82525050565b6000611a5982612139565b611a63818561216d565b9350611a7381856020860161222f565b611a7c816123c9565b840191505092915050565b60008154611a9481612262565b611a9e818661216d565b94506001821660008114611ab95760018114611acb57611afe565b60ff1983168652602086019350611afe565b611ad485612104565b60005b83811015611af657815481890152600182019150602081019050611ad7565b808801955050505b50505092915050565b60008154611b1481612262565b611b1e818661217e565b94506001821660008114611b395760018114611b4a57611b7d565b60ff19831686528186019350611b7d565b611b5385612104565b60005b83811015611b7557815481890152600182019150602081019050611b56565b838801955050505b50505092915050565b6000611b9182612144565b611b9b8185612189565b9350611bab81856020860161222f565b611bb4816123c9565b840191505092915050565b60008154611bcc81612262565b611bd68186612189565b94506001821660008114611bf15760018114611c0357611c36565b60ff1983168652602086019350611c36565b611c0c85612119565b60005b83811015611c2e57815481890152600182019150602081019050611c0f565b808801955050505b50505092915050565b6000611c4c601f83612189565b9150611c57826123e7565b602082019050919050565b6000611c6f601283612189565b9150611c7a82612410565b602082019050919050565b6000611c92602583612189565b9150611c9d82612439565b604082019050919050565b6000611cb5601083612189565b9150611cc082612488565b602082019050919050565b6000611cd8602383612189565b9150611ce3826124b1565b604082019050919050565b6000611cfb600b83612189565b9150611d0682612500565b602082019050919050565b611d1a81612216565b82525050565b611d31611d2c82612216565b612332565b82525050565b6000611d4382846119ac565b60148201915081905092915050565b6000611d5e82856119ac565b601482019150611d6e8284611d20565b6020820191508190509392505050565b6000611d8a8284611b07565b915081905092915050565b60006020820190508181036000830152611daf81846119c3565b905092915050565b6000602082019050611dcc6000830184611a21565b92915050565b6000602082019050611de76000830184611a3f565b92915050565b60006020820190508181036000830152611e078184611a4e565b905092915050565b60006020820190508181036000830152611e298184611a87565b905092915050565b60006020820190508181036000830152611e4a81611c3f565b9050919050565b60006020820190508181036000830152611e6a81611c62565b9050919050565b60006020820190508181036000830152611e8a81611c85565b9050919050565b60006020820190508181036000830152611eaa81611ca8565b9050919050565b60006020820190508181036000830152611eca81611ccb565b9050919050565b60006020820190508181036000830152611eea81611cee565b9050919050565b6000602082019050611f066000830184611d11565b92915050565b6000608082019050611f216000830187611d11565b8181036020830152611f338186611a4e565b90508181036040830152611f478185611a4e565b90508181036060830152611f5b8184611b86565b905095945050505050565b6000608082019050611f7b6000830187611d11565b8181036020830152611f8d8186611a87565b90508181036040830152611fa18185611a87565b90508181036060830152611fb58184611bbf565b905095945050505050565b600060c082019050611fd56000830189611d11565b611fe26020830188611d11565b611fef604083018761199d565b81810360608301526120018186611a4e565b905081810360808301526120158185611a4e565b905081810360a08301526120298184611b86565b9050979650505050505050565b600060608201905061204b6000830186611d11565b6120586020830185611d11565b6120656040830184611a3f565b949350505050565b6000612077612088565b90506120838282612294565b919050565b6000604051905090565b600067ffffffffffffffff8211156120ad576120ac61239a565b5b6120b6826123c9565b9050602081019050919050565b600067ffffffffffffffff8211156120de576120dd61239a565b5b6120e7826123c9565b9050602081019050919050565b6000819050602082019050919050565b60008190508160005260206000209050919050565b60008190508160005260206000209050919050565b600081519050919050565b600081519050919050565b600081519050919050565b6000602082019050919050565b600082825260208201905092915050565b600082825260208201905092915050565b600081905092915050565b600082825260208201905092915050565b60006121a582612216565b91506121b083612216565b9250828210156121c3576121c261233c565b5b828203905092915050565b60006121d9826121f6565b9050919050565b60008115159050919050565b6000819050919050565b600073ffffffffffffffffffffffffffffffffffffffff82169050919050565b6000819050919050565b82818337600083830152505050565b60005b8381101561224d578082015181840152602081019050612232565b8381111561225c576000848401525b50505050565b6000600282049050600182168061227a57607f821691505b6020821081141561228e5761228d61236b565b5b50919050565b61229d826123c9565b810181811067ffffffffffffffff821117156122bc576122bb61239a565b5b80604052505050565b60006122d082612216565b91507fffffffffffffffffffffffffffffffffffffffffffffffffffffffffffffffff8214156123035761230261233c565b5b600182019050919050565b600061231982612320565b9050919050565b600061232b826123da565b9050919050565b6000819050919050565b7f4e487b7100000000000000000000000000000000000000000000000000000000600052601160045260246000fd5b7f4e487b7100000000000000000000000000000000000000000000000000000000600052602260045260246000fd5b7f4e487b7100000000000000000000000000000000000000000000000000000000600052604160045260246000fd5b6000601f19601f8301169050919050565b60008160601b9050919050565b7f53656e64657220646f6573206e6f74206861766520616374696f6e206b657900600082015250565b7f4b657920616c7265616479206578697374730000000000000000000000000000600082015250565b7f53656e64657220646f6573206e6f74206861766520636c61696d207369676e6560008201527f72206b6579000000000000000000000000000000000000000000000000000000602082015250565b7f416c726561647920657865637574656400000000000000000000000000000000600082015250565b7f53656e64657220646f6573206e6f742068617665206d616e6167656d656e742060008201527f6b65790000000000000000000000000000000000000000000000000000000000602082015250565b7f4e6f2073756368206b6579000000000000000000000000000000000000000000600082015250565b612532816121ce565b811461253d57600080fd5b50565b612549816121e0565b811461255457600080fd5b50565b612560816121ec565b811461256b57600080fd5b50565b61257781612216565b811461258257600080fd5b5056fea264697066735822122093a6291848e56e7063ed5bc634e4e75ae41f7ab97780e78a47d9e40c9451878264736f6c63430008010033",
  "immutableReferences": {},
  "source": "// SPDX-License-Identifier: MIT\r\npragma solidity >=0.4.22 <0.9.0;\r\n\r\nimport './ERC735.sol';\r\nimport './KeyHolder.sol';\r\n\r\n// **Warning!** This file is a protoype version of our work around ERC 725.\r\n// This file is now out of date and **should not be used**.\r\n// Our current identity contracts are here:\r\n// https://github.com/OriginProtocol/origin/tree/master/origin-contracts/contracts/identity\r\n\r\ncontract ClaimHolder is KeyHolder, ERC735 {\r\n\r\n    mapping (bytes32 => Claim) claims;\r\n    mapping (uint256 => bytes32[]) claimsByType;\r\n\r\n    function addClaim(\r\n        uint256 _claimType,         //Attribute (Biometric information, Name, etc.)\r\n        uint256 _scheme,            //How the cliam shud be processed (1=RSA, 2=ECDSA, ...)\r\n        address _issuer,            //Address of the issuer\r\n        bytes memory _signature,    //Signature from issuer (keccak256(address identityHolder_address, uint256 _ topic, bytes data) or keccak256(abi.encode(identityHolder_address, topic, data))\r\n        bytes memory _data,         //Hash of the data or actual data\r\n        string memory _uri          //Location of the claim\r\n    )\r\n        public override\r\n        returns (bytes32 claimRequestId)\r\n    {\r\n        bytes32 claimId = keccak256(abi.encodePacked(_issuer, _claimType));\r\n\r\n        if (msg.sender != address(this)) {\r\n          require(keyHasPurpose(keccak256(abi.encodePacked(msg.sender)), 3), \"Sender does not have claim signer key\");\r\n        }\r\n\r\n        if (claims[claimId].issuer != _issuer) {\r\n            claimsByType[_claimType].push(claimId);\r\n        }\r\n\r\n        claims[claimId].claimType = _claimType;\r\n        claims[claimId].scheme = _scheme;\r\n        claims[claimId].issuer = _issuer;\r\n        claims[claimId].signature = _signature;\r\n        claims[claimId].data = _data;\r\n        claims[claimId].uri = _uri;\r\n\r\n        emit ClaimAdded(\r\n            claimId,\r\n            _claimType,\r\n            _scheme,\r\n            _issuer,\r\n            _signature,\r\n            _data,\r\n            _uri\r\n        );\r\n\r\n        return claimId;\r\n    }\r\n\r\n    function removeClaim(bytes32 _claimId) public override returns (bool success) {\r\n        if (msg.sender != address(this)) {\r\n          require(keyHasPurpose(keccak256(abi.encodePacked(msg.sender)), 1), \"Sender does not have management key\");\r\n        }\r\n\r\n        /* uint index; */\r\n        /* (index, ) = claimsByType[claims[_claimId].claimType].indexOf(_claimId);\r\n        claimsByType[claims[_claimId].claimType].removeByIndex(index); */\r\n\r\n        emit ClaimRemoved(\r\n            _claimId,\r\n            claims[_claimId].claimType,\r\n            claims[_claimId].scheme,\r\n            claims[_claimId].issuer,\r\n            claims[_claimId].signature,\r\n            claims[_claimId].data,\r\n            claims[_claimId].uri\r\n        );\r\n\r\n        delete claims[_claimId];\r\n        return true;\r\n    }\r\n\r\n    function getClaim(bytes32 _claimId)\r\n        public view override\r\n        returns(\r\n            uint256 claimType,\r\n            uint256 scheme,\r\n            address issuer,\r\n            bytes memory signature,\r\n            bytes memory data,\r\n            string memory uri\r\n        )\r\n    {\r\n        return (\r\n            claims[_claimId].claimType,\r\n            claims[_claimId].scheme,\r\n            claims[_claimId].issuer,\r\n            claims[_claimId].signature,\r\n            claims[_claimId].data,\r\n            claims[_claimId].uri\r\n        );\r\n    }\r\n\r\n    function getClaimIdsByType(uint256 _claimType)\r\n        public view override\r\n        returns(bytes32[] memory claimIds)\r\n    {\r\n        return claimsByType[_claimType];\r\n    }\r\n\r\n}",
  "sourcePath": "C:/workspace/rpModule/blockchain/contracts/ClaimHolder.sol",
  "compiler": {
    "name": "solc",
    "version": "0.8.1+commit.df193b15.Emscripten.clang"
  },
  "schemaVersion": "3.3.4",
  "updatedAt": "2021-09-29T09:47:29.564Z",
  "devdoc": {
    "kind": "dev",
    "methods": {},
    "version": 1
  },
  "userdoc": {
    "kind": "user",
    "methods": {},
    "version": 1
  }
}