{
  "contractName": "ClaimVerifier",
  "abi": [
    {
      "inputs": [
        {
          "internalType": "address",
          "name": "_trustedClaimHolder",
          "type": "address"
        }
      ],
      "stateMutability": "nonpayable",
      "type": "constructor"
    },
    {
      "anonymous": false,
      "inputs": [
        {
          "indexed": false,
          "internalType": "contract ClaimHolder",
          "name": "_identity",
          "type": "address"
        },
        {
          "indexed": false,
          "internalType": "uint256",
          "name": "claimType",
          "type": "uint256"
        }
      ],
      "name": "ClaimInvalid",
      "type": "event"
    },
    {
      "anonymous": false,
      "inputs": [
        {
          "indexed": false,
          "internalType": "contract ClaimHolder",
          "name": "_identity",
          "type": "address"
        },
        {
          "indexed": false,
          "internalType": "uint256",
          "name": "claimType",
          "type": "uint256"
        }
      ],
      "name": "ClaimValid",
      "type": "event"
    },
    {
      "inputs": [],
      "name": "trustedClaimHolder",
      "outputs": [
        {
          "internalType": "contract ClaimHolder",
          "name": "",
          "type": "address"
        }
      ],
      "stateMutability": "view",
      "type": "function"
    },
    {
      "inputs": [
        {
          "internalType": "contract ClaimHolder",
          "name": "_identity",
          "type": "address"
        },
        {
          "internalType": "uint256",
          "name": "claimType",
          "type": "uint256"
        }
      ],
      "name": "checkClaim",
      "outputs": [
        {
          "internalType": "bool",
          "name": "claimValid",
          "type": "bool"
        }
      ],
      "stateMutability": "nonpayable",
      "type": "function"
    },
    {
      "inputs": [
        {
          "internalType": "contract ClaimHolder",
          "name": "_identity",
          "type": "address"
        },
        {
          "internalType": "uint256",
          "name": "claimType",
          "type": "uint256"
        }
      ],
      "name": "claimIsValid",
      "outputs": [
        {
          "internalType": "bool",
          "name": "claimValid",
          "type": "bool"
        }
      ],
      "stateMutability": "view",
      "type": "function"
    },
    {
      "inputs": [
        {
          "internalType": "bytes",
          "name": "sig",
          "type": "bytes"
        },
        {
          "internalType": "bytes32",
          "name": "dataHash",
          "type": "bytes32"
        }
      ],
      "name": "getRecoveredAddress",
      "outputs": [
        {
          "internalType": "address",
          "name": "addr",
          "type": "address"
        }
      ],
      "stateMutability": "pure",
      "type": "function"
    }
  ],
  "bytecode": "0x608060405234801561001057600080fd5b50604051610f44380380610f448339818101604052810190610032919061008d565b806000806101000a81548173ffffffffffffffffffffffffffffffffffffffff021916908373ffffffffffffffffffffffffffffffffffffffff160217905550506100ff565b600081519050610087816100e8565b92915050565b60006020828403121561009f57600080fd5b60006100ad84828501610078565b91505092915050565b60006100c1826100c8565b9050919050565b600073ffffffffffffffffffffffffffffffffffffffff82169050919050565b6100f1816100b6565b81146100fc57600080fd5b50565b610e368061010e6000396000f3fe608060405234801561001057600080fd5b506004361061004c5760003560e01c80630382ad261461005157806336938354146100815780639fecd5541461009f578063c3b129e3146100cf575b600080fd5b61006b600480360381019061006691906106e8565b6100ff565b60405161007891906109cf565b60405180910390f35b610089610196565b6040516100969190610a73565b60405180910390f35b6100b960048036038101906100b491906106e8565b6101ba565b6040516100c691906109cf565b60405180910390f35b6100e960048036038101906100e49190610694565b610405565b6040516100f691906109b4565b60405180910390f35b600061010b83836101ba565b15610152577f5637aa6b77cde2de563765b75a65099af73d3bf22cb9d089a64a01777823208e8383604051610141929190610a8e565b60405180910390a160019050610190565b7fc1e461cfcaa9ff5efbb053582a325fbfebec1d94ac7e9d9958ee7f74c2b6b5588383604051610183929190610a8e565b60405180910390a1600090505b92915050565b60008054906101000a900473ffffffffffffffffffffffffffffffffffffffff1681565b60008060008060608060008060009054906101000a900473ffffffffffffffffffffffffffffffffffffffff16886040516020016101f9929190610929565b6040516020818303038152906040528051906020012090508873ffffffffffffffffffffffffffffffffffffffff1663c9100bcb826040518263ffffffff1660e01b815260040161024a91906109ea565b60006040518083038186803b15801561026257600080fd5b505afa158015610276573d6000803e3d6000fd5b505050506040513d6000823e3d601f19601f8201168201806040525081019061029f9190610724565b50809650819750829850839950849a50505050505060008989846040516020016102cb93929190610955565b6040516020818303038152906040528051906020012090506000816040516020016102f6919061098e565b604051602081830303815290604052805190602001209050600061031a8683610405565b905060008160405160200161032f919061090e565b60405160208183030381529060405280519060200120905060008054906101000a900473ffffffffffffffffffffffffffffffffffffffff1673ffffffffffffffffffffffffffffffffffffffff1663d202158d8260036040518363ffffffff1660e01b81526004016103a3929190610a05565b60206040518083038186803b1580156103bb57600080fd5b505afa1580156103cf573d6000803e3d6000fd5b505050506040513d601f19601f820116820180604052508101906103f3919061066b565b9a505050505050505050505092915050565b600080600080604186511461042057600093505050506104af565b6020860151925060408601519150606086015160001a9050601b8160ff16101561045457601b816104519190610b5f565b90505b6000600186838686604051600081526020016040526040516104799493929190610a2e565b6020604051602081039080840390855afa15801561049b573d6000803e3d6000fd5b505050602060405103519050809450505050505b92915050565b60006104c86104c384610adc565b610ab7565b9050828152602081018484840111156104e057600080fd5b6104eb848285610c3d565b509392505050565b600061050661050184610adc565b610ab7565b90508281526020810184848401111561051e57600080fd5b610529848285610c4c565b509392505050565b600061054461053f84610b0d565b610ab7565b90508281526020810184848401111561055c57600080fd5b610567848285610c4c565b509392505050565b60008151905061057e81610d8d565b92915050565b60008151905061059381610da4565b92915050565b6000813590506105a881610dbb565b92915050565b600082601f8301126105bf57600080fd5b81356105cf8482602086016104b5565b91505092915050565b600082601f8301126105e957600080fd5b81516105f98482602086016104f3565b91505092915050565b60008135905061061181610dd2565b92915050565b600082601f83011261062857600080fd5b8151610638848260208601610531565b91505092915050565b60008135905061065081610de9565b92915050565b60008151905061066581610de9565b92915050565b60006020828403121561067d57600080fd5b600061068b84828501610584565b91505092915050565b600080604083850312156106a757600080fd5b600083013567ffffffffffffffff8111156106c157600080fd5b6106cd858286016105ae565b92505060206106de85828601610599565b9150509250929050565b600080604083850312156106fb57600080fd5b600061070985828601610602565b925050602061071a85828601610641565b9150509250929050565b60008060008060008060c0878903121561073d57600080fd5b600061074b89828a01610656565b965050602061075c89828a01610656565b955050604061076d89828a0161056f565b945050606087015167ffffffffffffffff81111561078a57600080fd5b61079689828a016105d8565b935050608087015167ffffffffffffffff8111156107b357600080fd5b6107bf89828a016105d8565b92505060a087015167ffffffffffffffff8111156107dc57600080fd5b6107e889828a01610617565b9150509295509295509295565b6107fe81610b96565b82525050565b61081561081082610b96565b610cb0565b82525050565b61082481610ba8565b82525050565b61083381610bb4565b82525050565b61084a61084582610bb4565b610cc2565b82525050565b600061085b82610b3e565b6108658185610b49565b9350610875818560208601610c4c565b80840191505092915050565b61088a81610c07565b82525050565b6108a161089c82610c07565b610cb0565b82525050565b6108b081610c2b565b82525050565b60006108c3601c83610b54565b91506108ce82610d64565b601c82019050919050565b6108e281610bf0565b82525050565b6108f96108f482610bf0565b610cde565b82525050565b61090881610bfa565b82525050565b600061091a8284610804565b60148201915081905092915050565b60006109358285610890565b60148201915061094582846108e8565b6020820191508190509392505050565b60006109618286610890565b60148201915061097182856108e8565b6020820191506109818284610850565b9150819050949350505050565b6000610999826108b6565b91506109a58284610839565b60208201915081905092915050565b60006020820190506109c960008301846107f5565b92915050565b60006020820190506109e4600083018461081b565b92915050565b60006020820190506109ff600083018461082a565b92915050565b6000604082019050610a1a600083018561082a565b610a2760208301846108a7565b9392505050565b6000608082019050610a43600083018761082a565b610a5060208301866108ff565b610a5d604083018561082a565b610a6a606083018461082a565b95945050505050565b6000602082019050610a886000830184610881565b92915050565b6000604082019050610aa36000830185610881565b610ab060208301846108d9565b9392505050565b6000610ac1610ad2565b9050610acd8282610c7f565b919050565b6000604051905090565b600067ffffffffffffffff821115610af757610af6610d17565b5b610b0082610d46565b9050602081019050919050565b600067ffffffffffffffff821115610b2857610b27610d17565b5b610b3182610d46565b9050602081019050919050565b600081519050919050565b600081905092915050565b600081905092915050565b6000610b6a82610bfa565b9150610b7583610bfa565b92508260ff03821115610b8b57610b8a610ce8565b5b828201905092915050565b6000610ba182610bd0565b9050919050565b60008115159050919050565b6000819050919050565b6000610bc982610b96565b9050919050565b600073ffffffffffffffffffffffffffffffffffffffff82169050919050565b6000819050919050565b600060ff82169050919050565b6000610c1282610c19565b9050919050565b6000610c2482610bd0565b9050919050565b6000610c3682610bf0565b9050919050565b82818337600083830152505050565b60005b83811015610c6a578082015181840152602081019050610c4f565b83811115610c79576000848401525b50505050565b610c8882610d46565b810181811067ffffffffffffffff82111715610ca757610ca6610d17565b5b80604052505050565b6000610cbb82610ccc565b9050919050565b6000819050919050565b6000610cd782610d57565b9050919050565b6000819050919050565b7f4e487b7100000000000000000000000000000000000000000000000000000000600052601160045260246000fd5b7f4e487b7100000000000000000000000000000000000000000000000000000000600052604160045260246000fd5b6000601f19601f8301169050919050565b60008160601b9050919050565b7f19457468657265756d205369676e6564204d6573736167653a0a333200000000600082015250565b610d9681610b96565b8114610da157600080fd5b50565b610dad81610ba8565b8114610db857600080fd5b50565b610dc481610bb4565b8114610dcf57600080fd5b50565b610ddb81610bbe565b8114610de657600080fd5b50565b610df281610bf0565b8114610dfd57600080fd5b5056fea264697066735822122003ae42249746cd0cb1818ef186d8ebbfec608a278bbbdff4cdd431fa2a0eb74a64736f6c63430008010033",
  "immutableReferences": {},
  "source": "// SPDX-License-Identifier: MIT\r\npragma solidity >=0.4.22 <0.9.0;\r\n\r\nimport './ClaimHolder.sol';\r\n\r\n// **Warning!** This file is a protoype version of our work around ERC 725.\r\n// This file is now out of date and **should not be used**.\r\n// Our current identity contracts are here:\r\n// https://github.com/OriginProtocol/origin/tree/master/origin-contracts/contracts/identity\r\n\r\ncontract ClaimVerifier {\r\n\r\n  event ClaimValid(ClaimHolder _identity, uint256 claimType);\r\n  event ClaimInvalid(ClaimHolder _identity, uint256 claimType);\r\n\r\n  ClaimHolder public trustedClaimHolder;\r\n\r\n  constructor (address _trustedClaimHolder) {\r\n    trustedClaimHolder = ClaimHolder(_trustedClaimHolder);\r\n  }\r\n\r\n  function checkClaim(ClaimHolder _identity, uint256 claimType) public returns (bool claimValid) {\r\n    if (claimIsValid(_identity, claimType)) {\r\n      emit ClaimValid(_identity, claimType);\r\n      return true;\r\n    } else {\r\n      emit ClaimInvalid(_identity, claimType);\r\n      return false;\r\n    }\r\n  }\r\n\r\n  function claimIsValid(ClaimHolder _identity, uint256 claimType) public view returns (bool claimValid) {\r\n    uint256 foundClaimType;\r\n    uint256 scheme;\r\n    address issuer;\r\n    bytes memory sig;\r\n    bytes memory data;\r\n\r\n    // Construct claimId (identifier + claim type)\r\n    bytes32 claimId = keccak256(abi.encodePacked(trustedClaimHolder, claimType));\r\n\r\n    // Fetch claim from user\r\n    ( foundClaimType, scheme, issuer, sig, data, ) = _identity.getClaim(claimId);\r\n\r\n    bytes32 dataHash = keccak256(abi.encodePacked(_identity, claimType, data));\r\n    bytes32 prefixedHash = keccak256(abi.encodePacked(\"\\x19Ethereum Signed Message:\\n32\", dataHash));\r\n\r\n    // Recover address of data signer\r\n    address recovered = getRecoveredAddress(sig, prefixedHash);\r\n\r\n    // Take hash of recovered address\r\n    bytes32 hashedAddr = keccak256(abi.encodePacked(recovered));\r\n\r\n    // Does the trusted identifier have they key which signed the user's claim?\r\n    return trustedClaimHolder.keyHasPurpose(hashedAddr, 3);\r\n  }\r\n\r\n  function getRecoveredAddress(bytes memory sig, bytes32 dataHash) public pure returns (address addr) {\r\n      bytes32 ra;\r\n      bytes32 sa;\r\n      uint8 va;\r\n\r\n      // Check the signature length\r\n      if (sig.length != 65) {\r\n        return address(0);\r\n      }\r\n\r\n      // Divide the signature in r, s and v variables\r\n      assembly {\r\n        ra := mload(add(sig, 32))\r\n        sa := mload(add(sig, 64))\r\n        va := byte(0, mload(add(sig, 96)))\r\n      }\r\n\r\n      if (va < 27) {\r\n        va += 27;\r\n      }\r\n\r\n      address recoveredAddress = ecrecover(dataHash, va, ra, sa);\r\n\r\n      return (recoveredAddress);\r\n  }\r\n\r\n}",
  "sourcePath": "C:/workspace/rpModule/blockchain/contracts/ClaimVerifier.sol",
  "compiler": {
    "name": "solc",
    "version": "0.8.1+commit.df193b15.Emscripten.clang"
  },
  "schemaVersion": "3.3.4",
  "updatedAt": "2021-09-29T09:47:07.700Z",
  "devdoc": {
    "kind": "dev",
    "methods": {},
    "version": 1
  },
  "userdoc": {
    "kind": "user",
    "methods": {},
    "version": 1
  }
}