{
  "contractName": "CVC",
  "abi": [
    {
      "constant": true,
      "inputs": [],
      "name": "claimPKVerify",
      "outputs": [
        {
          "internalType": "bool",
          "name": "",
          "type": "bool"
        }
      ],
      "payable": false,
      "stateMutability": "view",
      "type": "function"
    }
  ],
  "bytecode": "0x6080604052348015600f57600080fd5b5060978061001e6000396000f3fe6080604052348015600f57600080fd5b506004361060285760003560e01c806301abd1f814602d575b600080fd5b6033604d565b604051808215151515815260200191505060405180910390f35b600080600260005481605b57fe5b061490509056fea265627a7a723158204da75423b5bbdec347c38c9d25193ba72516289ba4d956c5e3338f6a80386e9964736f6c63430005100032",
  "source": "// SPDX-License-Identifier: GPL-3.0\r\npragma solidity >=0.4.22 <0.9.0;\r\n\r\ncontract CVC {\r\n    // The keyword \"public\" makes variables\r\n    // accessible from other contracts\r\n    struct token {\r\n        uint pk;\r\n    }\r\n\r\n    uint private pk;\r\n\r\n    //@dev Something?\r\n    function claimPKVerify() public view returns (bool){\r\n        return pk%2==0;\r\n    }\r\n}\r\n",
  "sourcePath": "C:/workspace/rpModule/blockchain/contracts/test.sol",
  "compiler": {
    "name": "solc",
    "version": "0.5.16+commit.9c3226ce.Emscripten.clang"
  },
  "schemaVersion": "3.3.4",
  "updatedAt": "2021-06-04T14:35:03.790Z",
  "devdoc": {
    "methods": {}
  },
  "userdoc": {
    "methods": {}
  }
}