{
  "contractName": "EthereumClaimsRegistry",
  "abi": [
    {
      "anonymous": false,
      "inputs": [
        {
          "indexed": true,
          "internalType": "uint256",
          "name": "executionId",
          "type": "uint256"
        },
        {
          "indexed": false,
          "internalType": "bool",
          "name": "approved",
          "type": "bool"
        }
      ],
      "name": "Approved",
      "type": "event"
    },
    {
      "anonymous": false,
      "inputs": [],
      "name": "ClaimRetrieved",
      "type": "event"
    },
    {
      "anonymous": false,
      "inputs": [
        {
          "indexed": true,
          "internalType": "address",
          "name": "issuer",
          "type": "address"
        },
        {
          "indexed": true,
          "internalType": "address",
          "name": "subject",
          "type": "address"
        },
        {
          "indexed": true,
          "internalType": "bytes32",
          "name": "key",
          "type": "bytes32"
        },
        {
          "indexed": false,
          "internalType": "bytes",
          "name": "value",
          "type": "bytes"
        },
        {
          "indexed": false,
          "internalType": "uint256",
          "name": "updatedAt",
          "type": "uint256"
        }
      ],
      "name": "ClaimSet",
      "type": "event"
    },
    {
      "anonymous": false,
      "inputs": [
        {
          "indexed": true,
          "internalType": "uint256",
          "name": "executionId",
          "type": "uint256"
        },
        {
          "indexed": true,
          "internalType": "address",
          "name": "to",
          "type": "address"
        },
        {
          "indexed": true,
          "internalType": "uint256",
          "name": "value",
          "type": "uint256"
        },
        {
          "indexed": false,
          "internalType": "bytes",
          "name": "data",
          "type": "bytes"
        }
      ],
      "name": "Executed",
      "type": "event"
    },
    {
      "anonymous": false,
      "inputs": [
        {
          "indexed": true,
          "internalType": "uint256",
          "name": "executionId",
          "type": "uint256"
        },
        {
          "indexed": true,
          "internalType": "address",
          "name": "to",
          "type": "address"
        },
        {
          "indexed": true,
          "internalType": "uint256",
          "name": "value",
          "type": "uint256"
        },
        {
          "indexed": false,
          "internalType": "bytes",
          "name": "data",
          "type": "bytes"
        }
      ],
      "name": "ExecutionFailed",
      "type": "event"
    },
    {
      "anonymous": false,
      "inputs": [
        {
          "indexed": true,
          "internalType": "uint256",
          "name": "executionId",
          "type": "uint256"
        },
        {
          "indexed": true,
          "internalType": "address",
          "name": "to",
          "type": "address"
        },
        {
          "indexed": true,
          "internalType": "uint256",
          "name": "value",
          "type": "uint256"
        },
        {
          "indexed": false,
          "internalType": "bytes",
          "name": "data",
          "type": "bytes"
        }
      ],
      "name": "ExecutionRequested",
      "type": "event"
    },
    {
      "anonymous": false,
      "inputs": [
        {
          "indexed": true,
          "internalType": "bytes32",
          "name": "key",
          "type": "bytes32"
        },
        {
          "indexed": true,
          "internalType": "uint256",
          "name": "purpose",
          "type": "uint256"
        },
        {
          "indexed": true,
          "internalType": "uint256",
          "name": "keyType",
          "type": "uint256"
        }
      ],
      "name": "KeyAdded",
      "type": "event"
    },
    {
      "anonymous": false,
      "inputs": [
        {
          "indexed": true,
          "internalType": "bytes32",
          "name": "key",
          "type": "bytes32"
        },
        {
          "indexed": true,
          "internalType": "uint256",
          "name": "purpose",
          "type": "uint256"
        },
        {
          "indexed": true,
          "internalType": "uint256",
          "name": "keyType",
          "type": "uint256"
        }
      ],
      "name": "KeyRemoved",
      "type": "event"
    },
    {
      "inputs": [
        {
          "internalType": "bytes32",
          "name": "_key",
          "type": "bytes32"
        },
        {
          "internalType": "uint256",
          "name": "_purpose",
          "type": "uint256"
        },
        {
          "internalType": "uint256",
          "name": "_type",
          "type": "uint256"
        }
      ],
      "name": "addKey",
      "outputs": [
        {
          "internalType": "bool",
          "name": "success",
          "type": "bool"
        }
      ],
      "stateMutability": "nonpayable",
      "type": "function"
    },
    {
      "inputs": [
        {
          "internalType": "uint256",
          "name": "_id",
          "type": "uint256"
        },
        {
          "internalType": "bool",
          "name": "_approve",
          "type": "bool"
        }
      ],
      "name": "approve",
      "outputs": [
        {
          "internalType": "bool",
          "name": "success",
          "type": "bool"
        }
      ],
      "stateMutability": "nonpayable",
      "type": "function"
    },
    {
      "inputs": [
        {
          "internalType": "address",
          "name": "",
          "type": "address"
        }
      ],
      "name": "claimHolder",
      "outputs": [
        {
          "internalType": "contract ClaimHolder",
          "name": "",
          "type": "address"
        }
      ],
      "stateMutability": "view",
      "type": "function",
      "constant": true
    },
    {
      "inputs": [
        {
          "internalType": "address",
          "name": "_to",
          "type": "address"
        },
        {
          "internalType": "uint256",
          "name": "_value",
          "type": "uint256"
        },
        {
          "internalType": "bytes",
          "name": "_data",
          "type": "bytes"
        }
      ],
      "name": "execute",
      "outputs": [
        {
          "internalType": "uint256",
          "name": "executionId",
          "type": "uint256"
        }
      ],
      "stateMutability": "nonpayable",
      "type": "function"
    },
    {
      "inputs": [
        {
          "internalType": "bytes32",
          "name": "_key",
          "type": "bytes32"
        }
      ],
      "name": "getKey",
      "outputs": [
        {
          "internalType": "uint256",
          "name": "purpose",
          "type": "uint256"
        },
        {
          "internalType": "uint256",
          "name": "keyType",
          "type": "uint256"
        },
        {
          "internalType": "bytes32",
          "name": "key",
          "type": "bytes32"
        }
      ],
      "stateMutability": "view",
      "type": "function",
      "constant": true
    },
    {
      "inputs": [
        {
          "internalType": "bytes32",
          "name": "_key",
          "type": "bytes32"
        }
      ],
      "name": "getKeyPurpose",
      "outputs": [
        {
          "internalType": "uint256",
          "name": "purpose",
          "type": "uint256"
        }
      ],
      "stateMutability": "view",
      "type": "function",
      "constant": true
    },
    {
      "inputs": [
        {
          "internalType": "uint256",
          "name": "_purpose",
          "type": "uint256"
        }
      ],
      "name": "getKeysByPurpose",
      "outputs": [
        {
          "internalType": "bytes32[]",
          "name": "_keys",
          "type": "bytes32[]"
        }
      ],
      "stateMutability": "view",
      "type": "function",
      "constant": true
    },
    {
      "inputs": [
        {
          "internalType": "bytes32",
          "name": "_key",
          "type": "bytes32"
        },
        {
          "internalType": "uint256",
          "name": "_purpose",
          "type": "uint256"
        }
      ],
      "name": "keyHasPurpose",
      "outputs": [
        {
          "internalType": "bool",
          "name": "result",
          "type": "bool"
        }
      ],
      "stateMutability": "view",
      "type": "function",
      "constant": true
    },
    {
      "inputs": [
        {
          "internalType": "bytes32",
          "name": "_key",
          "type": "bytes32"
        }
      ],
      "name": "removeKey",
      "outputs": [
        {
          "internalType": "bool",
          "name": "success",
          "type": "bool"
        }
      ],
      "stateMutability": "nonpayable",
      "type": "function"
    },
    {
      "inputs": [
        {
          "internalType": "address",
          "name": "holder",
          "type": "address"
        },
        {
          "internalType": "uint256",
          "name": "_topic",
          "type": "uint256"
        },
        {
          "internalType": "uint256",
          "name": "_scheme",
          "type": "uint256"
        },
        {
          "internalType": "address",
          "name": "_issuer",
          "type": "address"
        },
        {
          "internalType": "bytes",
          "name": "_data",
          "type": "bytes"
        },
        {
          "internalType": "string",
          "name": "_uri",
          "type": "string"
        }
      ],
      "name": "addClaim",
      "outputs": [],
      "stateMutability": "nonpayable",
      "type": "function"
    },
    {
      "inputs": [
        {
          "internalType": "address",
          "name": "holder",
          "type": "address"
        }
      ],
      "name": "getClaim",
      "outputs": [
        {
          "internalType": "uint256",
          "name": "_topic",
          "type": "uint256"
        },
        {
          "internalType": "uint256",
          "name": "_scheme",
          "type": "uint256"
        },
        {
          "internalType": "address",
          "name": "_issuer",
          "type": "address"
        },
        {
          "internalType": "bytes",
          "name": "signature",
          "type": "bytes"
        },
        {
          "internalType": "bytes",
          "name": "_data",
          "type": "bytes"
        },
        {
          "internalType": "string",
          "name": "_uri",
          "type": "string"
        }
      ],
      "stateMutability": "view",
      "type": "function",
      "constant": true
    },
    {
      "inputs": [
        {
          "internalType": "bytes",
          "name": "signature",
          "type": "bytes"
        },
        {
          "internalType": "uint256[]",
          "name": "topic",
          "type": "uint256[]"
        }
      ],
      "name": "retrieveClaim",
      "outputs": [],
      "stateMutability": "view",
      "type": "function",
      "constant": true
    },
    {
      "inputs": [
        {
          "internalType": "address",
          "name": "issuer",
          "type": "address"
        },
        {
          "internalType": "address",
          "name": "subject",
          "type": "address"
        },
        {
          "internalType": "bytes32",
          "name": "key",
          "type": "bytes32"
        }
      ],
      "name": "removeClaim",
      "outputs": [],
      "stateMutability": "nonpayable",
      "type": "function"
    }
  ],
  "bytecode": "0x60806040523480156200001157600080fd5b5060003360405160200162000027919062000132565b6040516020818303038152906040528051906020012090508060016000838152602001908152602001600020600201819055506001806000838152602001908152602001600020600001819055506001806000838152602001908152602001600020600101819055506002600060018152602001908152602001600020819080600181540180825580915050600190039060005260206000200160009091909190915055600180600083815260200190815260200160002060000154827f480000bb1edad8ca1470381cc334b1917fbd51c6531f3a623ea8e0ec7e38a6e960405160405180910390a450620001b8565b6200012c62000126826200014f565b62000183565b82525050565b600062000140828462000117565b60148201915081905092915050565b60006200015c8262000163565b9050919050565b600073ffffffffffffffffffffffffffffffffffffffff82169050919050565b6000620001908262000197565b9050919050565b6000620001a482620001ab565b9050919050565b60008160601b9050919050565b61253e80620001c86000396000f3fe608060405234801561001057600080fd5b50600436106100cf5760003560e01c8063862642f51161008c578063b61d27f611610066578063b61d27f614610277578063bfcea69b146102a7578063c7508ec7146102c3578063d202158d146102df576100cf565b8063862642f5146101fb578063899e4e6e1461022b5780639010f72614610247576100cf565b8063032c1a8a146100d457806312aaac70146101045780631d38124014610136578063423401b3146101665780634cd3723a14610196578063747442d3146101cb575b600080fd5b6100ee60048036038101906100e99190611696565b61030f565b6040516100fb9190611ec3565b60405180910390f35b61011e60048036038101906101199190611696565b61032f565b60405161012d93929190611f54565b60405180910390f35b610150600480360381019061014b9190611724565b610386565b60405161015d9190611d03565b60405180910390f35b610180600480360381019061017b91906114fe565b61054a565b60405161018d9190611dad565b60405180910390f35b6101b060048036038101906101ab91906114fe565b61057d565b6040516101c296959493929190611ede565b60405180910390f35b6101e560048036038101906101e09190611808565b61068a565b6040516101f29190611d03565b60405180910390f35b61021560048036038101906102109190611696565b610a13565b6040516102229190611d03565b60405180910390f35b61024560048036038101906102409190611773565b610b15565b005b610261600480360381019061025c91906117df565b610c17565b60405161026e9190611ce1565b60405180910390f35b610291600480360381019061028c9190611576565b610c82565b60405161029e9190611ec3565b60405180910390f35b6102c160048036038101906102bc91906115dd565b610e85565b005b6102dd60048036038101906102d89190611527565b6110b9565b005b6102f960048036038101906102f491906116e8565b61113d565b6040516103069190611d03565b60405180910390f35b600060016000838152602001908152602001600020600001549050919050565b60008060006001600085815260200190815260200160002060000154600160008681526020019081526020016000206001015460016000878152602001908152602001600020600201549250925092509193909250565b600083600160008681526020019081526020016000206002015414156103e1576040517f08c379a00000000000000000000000000000000000000000000000000000000081526004016103d890611e03565b60405180910390fd5b3073ffffffffffffffffffffffffffffffffffffffff163373ffffffffffffffffffffffffffffffffffffffff161461048557610445336040516020016104289190611c71565b60405160208183030381529060405280519060200120600161113d565b610484576040517f08c379a000000000000000000000000000000000000000000000000000000000815260040161047b90611e43565b60405180910390fd5b5b836001600086815260200190815260200160002060020181905550826001600086815260200190815260200160002060000181905550816001600086815260200190815260200160002060010181905550600260008481526020019081526020016000208490806001815401808255809150506001900390600052602060002001600090919091909150558183857f480000bb1edad8ca1470381cc334b1917fbd51c6531f3a623ea8e0ec7e38a6e960405160405180910390a4600190509392505050565b60046020528060005260406000206000915054906101000a900473ffffffffffffffffffffffffffffffffffffffff1681565b60008060006060806060600460008873ffffffffffffffffffffffffffffffffffffffff1673ffffffffffffffffffffffffffffffffffffffff16815260200190815260200160002060009054906101000a900473ffffffffffffffffffffffffffffffffffffffff1673ffffffffffffffffffffffffffffffffffffffff1663c9100bcb60006040518263ffffffff1660e01b81526004016106209190611dc8565b60006040518083038186803b15801561063857600080fd5b505afa15801561064c573d6000803e3d6000fd5b505050506040513d6000823e3d601f19601f820116820180604052508101906106759190611844565b95509550955095509550955091939550919395565b60006106bd336040516020016106a09190611c71565b60405160208183030381529060405280519060200120600261113d565b6106fc576040517f08c379a00000000000000000000000000000000000000000000000000000000081526004016106f390611de3565b60405180910390fd5b827fb3932da477fe5d6c8ff2eafef050c0f3a1af18fc07121001482600f36f3715d88360405161072c9190611d03565b60405180910390a260606001151583151514156109d85760016003600086815260200190815260200160002060030160006101000a81548160ff0219169083151502179055506003600085815260200190815260200160002060000160009054906101000a900473ffffffffffffffffffffffffffffffffffffffff1673ffffffffffffffffffffffffffffffffffffffff16600360008681526020019081526020016000206002016040516107e29190611c8c565b6000604051808303816000865af19150503d806000811461081f576040519150601f19603f3d011682016040523d82523d6000602084013e610824565b606091505b508092508193505050811561091d5760016003600086815260200190815260200160002060030160016101000a81548160ff02191690831515021790555060036000858152602001908152602001600020600101546003600086815260200190815260200160002060000160009054906101000a900473ffffffffffffffffffffffffffffffffffffffff1673ffffffffffffffffffffffffffffffffffffffff16857f1f920dbda597d7bf95035464170fa58d0a4b57f13a1c315ace6793b9f63688b86003600089815260200190815260200160002060020160405161090b9190611d8b565b60405180910390a46001915050610a0d565b60036000858152602001908152602001600020600101546003600086815260200190815260200160002060000160009054906101000a900473ffffffffffffffffffffffffffffffffffffffff1673ffffffffffffffffffffffffffffffffffffffff16857fe10c49d9f7c71da23262367013434763cfdb2332267641728d25cd712c5c6a68600360008981526020019081526020016000206002016040516109c69190611d8b565b60405180910390a46000915050610a0d565b60006003600086815260200190815260200160002060030160006101000a81548160ff02191690831515021790555060019150505b92915050565b600081600160008481526020019081526020016000206002015414610a6d576040517f08c379a0000000000000000000000000000000000000000000000000000000008152600401610a6490611e63565b60405180910390fd5b6001600083815260200190815260200160002060010154600160008481526020019081526020016000206000015460016000858152602001908152602001600020600201547f585a4aef50f8267a92b32412b331b20f7f8b96f2245b253b9cc50dcc621d339760405160405180910390a46001600083815260200190815260200160002060008082016000905560018201600090556002820160009055505060019050919050565b60066001600033604051602001610b2c9190611c71565b6040516020818303038152906040528051906020012081526020019081526020016000206000015414610b94576040517f08c379a0000000000000000000000000000000000000000000000000000000008152600401610b8b90611e83565b60405180910390fd5b60056001600033604051602001610bab9190611c71565b6040516020818303038152906040528051906020012081526020019081526020016000206000015414610c13576040517f08c379a0000000000000000000000000000000000000000000000000000000008152600401610c0a90611ea3565b60405180910390fd5b5050565b606060026000838152602001908152602001600020805480602002602001604051908101604052809291908181526020018280548015610c7657602002820191906000526020600020905b815481526020019060010190808311610c62575b50505050509050919050565b6000600360008054815260200190815260200160002060030160019054906101000a900460ff1615610ce9576040517f08c379a0000000000000000000000000000000000000000000000000000000008152600401610ce090611e23565b60405180910390fd5b83600360008054815260200190815260200160002060000160006101000a81548173ffffffffffffffffffffffffffffffffffffffff021916908373ffffffffffffffffffffffffffffffffffffffff160217905550826003600080548152602001908152602001600020600101819055508160036000805481526020019081526020016000206002019080519060200190610d86929190611192565b50828473ffffffffffffffffffffffffffffffffffffffff166000547f8afcfabcb00e47a53a8fc3e9f23ff47ee1926194bb1350dd007c50b412a6cee885604051610dd19190611d39565b60405180910390a4610e0a33604051602001610ded9190611c71565b60405160208183030381529060405280519060200120600161113d565b80610e425750610e4133604051602001610e249190611c71565b60405160208183030381529060405280519060200120600261113d565b5b15610e5657610e54600054600161068a565b505b600080815480929190610e6890612242565b91905055506001600054610e7c91906120cf565b90509392505050565b60056001600033604051602001610e9c9190611c71565b6040516020818303038152906040528051906020012081526020019081526020016000206000015414610f04576040517f08c379a0000000000000000000000000000000000000000000000000000000008152600401610efb90611ea3565b60405180910390fd5b6000868684604051602001610f1b93929190611ca3565b604051602081830303815290604052805190602001209050600460008873ffffffffffffffffffffffffffffffffffffffff1673ffffffffffffffffffffffffffffffffffffffff16815260200190815260200160002060009054906101000a900473ffffffffffffffffffffffffffffffffffffffff1673ffffffffffffffffffffffffffffffffffffffff1663b1a34e0d87878785604051602001610fc29190611d1e565b60405160208183030381529060405288886040518763ffffffff1660e01b8152600401610ff496959493929190611ede565b602060405180830381600087803b15801561100e57600080fd5b505af1158015611022573d6000803e3d6000fd5b505050506040513d601f19601f8201168201806040525081019061104691906116bf565b5060008773ffffffffffffffffffffffffffffffffffffffff168573ffffffffffffffffffffffffffffffffffffffff167f37b1aca365290d24efee91e9bdc2fbca36351b85198468f031078f39c06aeeeb86426040516110a8929190611d5b565b60405180910390a450505050505050565b600560016000336040516020016110d09190611c71565b6040516020818303038152906040528051906020012081526020019081526020016000206000015414611138576040517f08c379a000000000000000000000000000000000000000000000000000000000815260040161112f90611ea3565b60405180910390fd5b505050565b6000806000801b6001600086815260200190815260200160002060020154141561116b57600091505061118c565b82600160008681526020019081526020016000206000015411159050809150505b92915050565b82805461119e906121df565b90600052602060002090601f0160209004810192826111c05760008555611207565b82601f106111d957805160ff1916838001178555611207565b82800160010185558215611207579182015b828111156112065782518255916020019190600101906111eb565b5b5090506112149190611218565b5090565b5b80821115611231576000816000905550600101611219565b5090565b600061124861124384611fb0565b611f8b565b9050808382526020820190508285602086028201111561126757600080fd5b60005b85811015611297578161127d88826114d4565b84526020840193506020830192505060018101905061126a565b5050509392505050565b60006112b46112af84611fdc565b611f8b565b9050828152602081018484840111156112cc57600080fd5b6112d784828561219d565b509392505050565b60006112f26112ed84611fdc565b611f8b565b90508281526020810184848401111561130a57600080fd5b6113158482856121ac565b509392505050565b600061133061132b8461200d565b611f8b565b90508281526020810184848401111561134857600080fd5b61135384828561219d565b509392505050565b600061136e6113698461200d565b611f8b565b90508281526020810184848401111561138657600080fd5b6113918482856121ac565b509392505050565b6000813590506113a8816124ac565b92915050565b6000815190506113bd816124ac565b92915050565b600082601f8301126113d457600080fd5b81356113e4848260208601611235565b91505092915050565b6000813590506113fc816124c3565b92915050565b600081359050611411816124da565b92915050565b600081519050611426816124da565b92915050565b600082601f83011261143d57600080fd5b813561144d8482602086016112a1565b91505092915050565b600082601f83011261146757600080fd5b81516114778482602086016112df565b91505092915050565b600082601f83011261149157600080fd5b81356114a184826020860161131d565b91505092915050565b600082601f8301126114bb57600080fd5b81516114cb84826020860161135b565b91505092915050565b6000813590506114e3816124f1565b92915050565b6000815190506114f8816124f1565b92915050565b60006020828403121561151057600080fd5b600061151e84828501611399565b91505092915050565b60008060006060848603121561153c57600080fd5b600061154a86828701611399565b935050602061155b86828701611399565b925050604061156c86828701611402565b9150509250925092565b60008060006060848603121561158b57600080fd5b600061159986828701611399565b93505060206115aa868287016114d4565b925050604084013567ffffffffffffffff8111156115c757600080fd5b6115d38682870161142c565b9150509250925092565b60008060008060008060c087890312156115f657600080fd5b600061160489828a01611399565b965050602061161589828a016114d4565b955050604061162689828a016114d4565b945050606061163789828a01611399565b935050608087013567ffffffffffffffff81111561165457600080fd5b61166089828a0161142c565b92505060a087013567ffffffffffffffff81111561167d57600080fd5b61168989828a01611480565b9150509295509295509295565b6000602082840312156116a857600080fd5b60006116b684828501611402565b91505092915050565b6000602082840312156116d157600080fd5b60006116df84828501611417565b91505092915050565b600080604083850312156116fb57600080fd5b600061170985828601611402565b925050602061171a858286016114d4565b9150509250929050565b60008060006060848603121561173957600080fd5b600061174786828701611402565b9350506020611758868287016114d4565b9250506040611769868287016114d4565b9150509250925092565b6000806040838503121561178657600080fd5b600083013567ffffffffffffffff8111156117a057600080fd5b6117ac8582860161142c565b925050602083013567ffffffffffffffff8111156117c957600080fd5b6117d5858286016113c3565b9150509250929050565b6000602082840312156117f157600080fd5b60006117ff848285016114d4565b91505092915050565b6000806040838503121561181b57600080fd5b6000611829858286016114d4565b925050602061183a858286016113ed565b9150509250929050565b60008060008060008060c0878903121561185d57600080fd5b600061186b89828a016114e9565b965050602061187c89828a016114e9565b955050604061188d89828a016113ae565b945050606087015167ffffffffffffffff8111156118aa57600080fd5b6118b689828a01611456565b935050608087015167ffffffffffffffff8111156118d357600080fd5b6118df89828a01611456565b92505060a087015167ffffffffffffffff8111156118fc57600080fd5b61190889828a016114aa565b9150509295509295509295565b600061192183836119c0565b60208301905092915050565b61193681612103565b82525050565b61194d61194882612103565b61228b565b82525050565b600061195e82612063565b6119688185612091565b93506119738361203e565b8060005b838110156119a457815161198b8882611915565b975061199683612084565b925050600181019050611977565b5085935050505092915050565b6119ba81612115565b82525050565b6119c981612121565b82525050565b6119d881612121565b82525050565b60006119e98261206e565b6119f381856120a2565b9350611a038185602086016121ac565b611a0c8161233c565b840191505092915050565b60008154611a24816121df565b611a2e81866120a2565b94506001821660008114611a495760018114611a5b57611a8e565b60ff1983168652602086019350611a8e565b611a648561204e565b60005b83811015611a8657815481890152600182019150602081019050611a67565b808801955050505b50505092915050565b60008154611aa4816121df565b611aae81866120b3565b94506001821660008114611ac95760018114611ada57611b0d565b60ff19831686528186019350611b0d565b611ae38561204e565b60005b83811015611b0557815481890152600182019150602081019050611ae6565b838801955050505b50505092915050565b611b1f8161215f565b82525050565b611b2e81612183565b82525050565b6000611b3f82612079565b611b4981856120be565b9350611b598185602086016121ac565b611b628161233c565b840191505092915050565b6000611b7a601f836120be565b9150611b8582612367565b602082019050919050565b6000611b9d6012836120be565b9150611ba882612390565b602082019050919050565b6000611bc06010836120be565b9150611bcb826123b9565b602082019050919050565b6000611be36023836120be565b9150611bee826123e2565b604082019050919050565b6000611c06600b836120be565b9150611c1182612431565b602082019050919050565b6000611c296016836120be565b9150611c348261245a565b602082019050919050565b6000611c4c6011836120be565b9150611c5782612483565b602082019050919050565b611c6b81612155565b82525050565b6000611c7d828461193c565b60148201915081905092915050565b6000611c988284611a97565b915081905092915050565b6000606082019050611cb8600083018661192d565b611cc56020830185611c62565b8181036040830152611cd781846119de565b9050949350505050565b60006020820190508181036000830152611cfb8184611953565b905092915050565b6000602082019050611d1860008301846119b1565b92915050565b6000602082019050611d3360008301846119cf565b92915050565b60006020820190508181036000830152611d5381846119de565b905092915050565b60006040820190508181036000830152611d7581856119de565b9050611d846020830184611c62565b9392505050565b60006020820190508181036000830152611da58184611a17565b905092915050565b6000602082019050611dc26000830184611b16565b92915050565b6000602082019050611ddd6000830184611b25565b92915050565b60006020820190508181036000830152611dfc81611b6d565b9050919050565b60006020820190508181036000830152611e1c81611b90565b9050919050565b60006020820190508181036000830152611e3c81611bb3565b9050919050565b60006020820190508181036000830152611e5c81611bd6565b9050919050565b60006020820190508181036000830152611e7c81611bf9565b9050919050565b60006020820190508181036000830152611e9c81611c1c565b9050919050565b60006020820190508181036000830152611ebc81611c3f565b9050919050565b6000602082019050611ed86000830184611c62565b92915050565b600060c082019050611ef36000830189611c62565b611f006020830188611c62565b611f0d604083018761192d565b8181036060830152611f1f81866119de565b90508181036080830152611f3381856119de565b905081810360a0830152611f478184611b34565b9050979650505050505050565b6000606082019050611f696000830186611c62565b611f766020830185611c62565b611f8360408301846119cf565b949350505050565b6000611f95611fa6565b9050611fa18282612211565b919050565b6000604051905090565b600067ffffffffffffffff821115611fcb57611fca61230d565b5b602082029050602081019050919050565b600067ffffffffffffffff821115611ff757611ff661230d565b5b6120008261233c565b9050602081019050919050565b600067ffffffffffffffff8211156120285761202761230d565b5b6120318261233c565b9050602081019050919050565b6000819050602082019050919050565b60008190508160005260206000209050919050565b600081519050919050565b600081519050919050565b600081519050919050565b6000602082019050919050565b600082825260208201905092915050565b600082825260208201905092915050565b600081905092915050565b600082825260208201905092915050565b60006120da82612155565b91506120e583612155565b9250828210156120f8576120f76122af565b5b828203905092915050565b600061210e82612135565b9050919050565b60008115159050919050565b6000819050919050565b6000819050919050565b600073ffffffffffffffffffffffffffffffffffffffff82169050919050565b6000819050919050565b600061216a82612171565b9050919050565b600061217c82612135565b9050919050565b60006121966121918361212b565b61234d565b9050919050565b82818337600083830152505050565b60005b838110156121ca5780820151818401526020810190506121af565b838111156121d9576000848401525b50505050565b600060028204905060018216806121f757607f821691505b6020821081141561220b5761220a6122de565b5b50919050565b61221a8261233c565b810181811067ffffffffffffffff821117156122395761223861230d565b5b80604052505050565b600061224d82612155565b91507fffffffffffffffffffffffffffffffffffffffffffffffffffffffffffffffff8214156122805761227f6122af565b5b600182019050919050565b60006122968261229d565b9050919050565b60006122a88261235a565b9050919050565b7f4e487b7100000000000000000000000000000000000000000000000000000000600052601160045260246000fd5b7f4e487b7100000000000000000000000000000000000000000000000000000000600052602260045260246000fd5b7f4e487b7100000000000000000000000000000000000000000000000000000000600052604160045260246000fd5b6000601f19601f8301169050919050565b60008160001b9050919050565b60008160601b9050919050565b7f53656e64657220646f6573206e6f74206861766520616374696f6e206b657900600082015250565b7f4b657920616c7265616479206578697374730000000000000000000000000000600082015250565b7f416c726561647920657865637574656400000000000000000000000000000000600082015250565b7f53656e64657220646f6573206e6f742068617665206d616e6167656d656e742060008201527f6b65790000000000000000000000000000000000000000000000000000000000602082015250565b7f4e6f2073756368206b6579000000000000000000000000000000000000000000600082015250565b7f53656e646572206e6f7420746869726420706172747900000000000000000000600082015250565b7f53656e646572206e6f7420697373756572000000000000000000000000000000600082015250565b6124b581612103565b81146124c057600080fd5b50565b6124cc81612115565b81146124d757600080fd5b50565b6124e381612121565b81146124ee57600080fd5b50565b6124fa81612155565b811461250557600080fd5b5056fea26469706673582212207f12a10bef09112fbfe4969fc19013d8ff99681a4a3c350e06979bfd0ab0bbd764736f6c63430008010033",
  "immutableReferences": {},
  "source": "// SPDX-License-Identifier: MIT\r\npragma solidity >=0.4.22 <0.9.0;\r\nimport './ClaimHolder.sol';\r\nimport './KeyHolder.sol';\r\n\r\ncontract EthereumClaimsRegistry is KeyHolder{\r\n\r\n    mapping(address => ClaimHolder) public claimHolder;\r\n\r\n    event ClaimSet(\r\n        address indexed issuer,\r\n        address indexed subject,\r\n        bytes32 indexed key,\r\n        bytes value,\r\n        uint updatedAt);\r\n\r\n    event ClaimRetrieved(\r\n\r\n    );\r\n\r\n    function addClaim(address holder, uint256 _topic, uint256 _scheme, address _issuer, bytes memory _data, string memory _uri) public onlyIssuer{\r\n        // Issuer add claim\r\n        bytes32 signature = keccak256(abi.encode(holder, _topic, _data));\r\n        claimHolder[holder].addClaim(_topic, _scheme, _issuer, abi.encode(signature), _data, _uri);\r\n        emit ClaimSet(_issuer, holder, \"\", _data, block.timestamp);\r\n    }\r\n\r\n    function getClaim(address holder) public view returns (uint256 _topic, uint256 _scheme, address _issuer, bytes memory signature, bytes memory _data, string memory _uri){\r\n        return claimHolder[holder].getClaim(0);\r\n    }\r\n\r\n    function retrieveClaim(bytes memory signature, uint[] memory topic) public view onlyRP onlyIssuer{\r\n        /* \r\n        1. Receive claim token from the API\r\n        2. Verify the claim as a valid claim\r\n        3. Get the claim attribute\r\n        4. Return claim attribute\r\n\r\n        Claim:\r\n            Digital signature (private key encrypt)\r\n            Permission to access which field\r\n            VerifyFlag (verify validity of token)\r\n            ClaimFlag (verify whether claim ady or not)\r\n        */\r\n    }\r\n\r\n    function removeClaim(address issuer, address subject, bytes32 key) public onlyIssuer {\r\n        // Issuer remove claim\r\n\r\n    }\r\n}",
  "sourcePath": "C:/workspace/rpModule/blockchain/contracts/ClaimRegistry.sol",
  "compiler": {
    "name": "solc",
    "version": "0.8.1+commit.df193b15.Emscripten.clang"
  },
  "schemaVersion": "3.3.4",
  "updatedAt": "2021-09-29T09:51:27.374Z",
  "networkType": "ethereum",
  "devdoc": {
    "kind": "dev",
    "methods": {},
    "version": 1
  },
  "userdoc": {
    "kind": "user",
    "methods": {},
    "version": 1
  }
}