{
  "contractName": "EthereumClaimsRegistry",
  "abi": [
    {
      "anonymous": false,
      "inputs": [
        {
          "indexed": false,
          "internalType": "bytes32",
          "name": "hash",
          "type": "bytes32"
        }
      ],
      "name": "CheckHash",
      "type": "event"
    },
    {
      "anonymous": false,
      "inputs": [
        {
          "indexed": false,
          "internalType": "address",
          "name": "claimHolder",
          "type": "address"
        }
      ],
      "name": "ClaimHolderAdded",
      "type": "event"
    },
    {
      "inputs": [
        {
          "internalType": "address",
          "name": "",
          "type": "address"
        }
      ],
      "name": "claimHolder",
      "outputs": [
        {
          "internalType": "contract xClaimHolder",
          "name": "",
          "type": "address"
        }
      ],
      "stateMutability": "view",
      "type": "function"
    },
    {
      "inputs": [],
      "name": "addClaimHolder",
      "outputs": [
        {
          "internalType": "address",
          "name": "contractAddr",
          "type": "address"
        },
        {
          "internalType": "contract xClaimHolder",
          "name": "",
          "type": "address"
        }
      ],
      "stateMutability": "nonpayable",
      "type": "function"
    },
    {
      "inputs": [
        {
          "internalType": "address",
          "name": "addr",
          "type": "address"
        }
      ],
      "name": "getClaimHolder",
      "outputs": [
        {
          "internalType": "contract xClaimHolder",
          "name": "",
          "type": "address"
        }
      ],
      "stateMutability": "view",
      "type": "function"
    },
    {
      "inputs": [
        {
          "internalType": "address",
          "name": "holder",
          "type": "address"
        },
        {
          "internalType": "uint256",
          "name": "_claimType",
          "type": "uint256"
        },
        {
          "internalType": "uint256",
          "name": "_scheme",
          "type": "uint256"
        },
        {
          "internalType": "address",
          "name": "_issuer",
          "type": "address"
        },
        {
          "internalType": "bytes",
          "name": "_signature",
          "type": "bytes"
        },
        {
          "internalType": "bytes",
          "name": "_data",
          "type": "bytes"
        },
        {
          "internalType": "string",
          "name": "_uri",
          "type": "string"
        }
      ],
      "name": "addClaim",
      "outputs": [
        {
          "internalType": "bytes32",
          "name": "claimID",
          "type": "bytes32"
        }
      ],
      "stateMutability": "nonpayable",
      "type": "function"
    },
    {
      "inputs": [
        {
          "internalType": "address",
          "name": "holder",
          "type": "address"
        },
        {
          "internalType": "bytes32",
          "name": "_claimId",
          "type": "bytes32"
        }
      ],
      "name": "removeClaim",
      "outputs": [],
      "stateMutability": "nonpayable",
      "type": "function"
    },
    {
      "inputs": [
        {
          "internalType": "address",
          "name": "holder",
          "type": "address"
        },
        {
          "internalType": "bytes32",
          "name": "_claimId",
          "type": "bytes32"
        }
      ],
      "name": "getClaim",
      "outputs": [
        {
          "internalType": "uint256",
          "name": "claimType",
          "type": "uint256"
        },
        {
          "internalType": "uint256",
          "name": "scheme",
          "type": "uint256"
        },
        {
          "internalType": "address",
          "name": "issuer",
          "type": "address"
        },
        {
          "internalType": "bytes",
          "name": "signature",
          "type": "bytes"
        },
        {
          "internalType": "bytes",
          "name": "data",
          "type": "bytes"
        },
        {
          "internalType": "string",
          "name": "uri",
          "type": "string"
        }
      ],
      "stateMutability": "view",
      "type": "function"
    },
    {
      "inputs": [
        {
          "internalType": "address",
          "name": "holder",
          "type": "address"
        },
        {
          "internalType": "uint256",
          "name": "_claimType",
          "type": "uint256"
        }
      ],
      "name": "getClaimIdsByType",
      "outputs": [
        {
          "internalType": "bytes32[]",
          "name": "claimIds",
          "type": "bytes32[]"
        }
      ],
      "stateMutability": "view",
      "type": "function"
    },
    {
      "inputs": [
        {
          "internalType": "address",
          "name": "holder",
          "type": "address"
        }
      ],
      "name": "destroy",
      "outputs": [],
      "stateMutability": "nonpayable",
      "type": "function"
    },
    {
      "inputs": [
        {
          "internalType": "address",
          "name": "_holder",
          "type": "address"
        },
        {
          "internalType": "bytes32",
          "name": "_key",
          "type": "bytes32"
        },
        {
          "internalType": "uint256",
          "name": "_purpose",
          "type": "uint256"
        },
        {
          "internalType": "uint256",
          "name": "_type",
          "type": "uint256"
        }
      ],
      "name": "addKey",
      "outputs": [
        {
          "internalType": "bool",
          "name": "success",
          "type": "bool"
        }
      ],
      "stateMutability": "nonpayable",
      "type": "function"
    },
    {
      "inputs": [
        {
          "internalType": "address",
          "name": "_holder",
          "type": "address"
        },
        {
          "internalType": "bytes32",
          "name": "_key",
          "type": "bytes32"
        }
      ],
      "name": "getKey",
      "outputs": [
        {
          "internalType": "uint256",
          "name": "purpose",
          "type": "uint256"
        },
        {
          "internalType": "uint256",
          "name": "keyType",
          "type": "uint256"
        },
        {
          "internalType": "bytes32",
          "name": "key",
          "type": "bytes32"
        }
      ],
      "stateMutability": "view",
      "type": "function"
    },
    {
      "inputs": [
        {
          "internalType": "address",
          "name": "_holder",
          "type": "address"
        },
        {
          "internalType": "bytes32",
          "name": "_key",
          "type": "bytes32"
        }
      ],
      "name": "getKeyPurpose",
      "outputs": [
        {
          "internalType": "uint256",
          "name": "purpose",
          "type": "uint256"
        }
      ],
      "stateMutability": "view",
      "type": "function"
    },
    {
      "inputs": [
        {
          "internalType": "address",
          "name": "_holder",
          "type": "address"
        },
        {
          "internalType": "uint256",
          "name": "_purpose",
          "type": "uint256"
        }
      ],
      "name": "getKeysByPurpose",
      "outputs": [
        {
          "internalType": "bytes32[]",
          "name": "_keys",
          "type": "bytes32[]"
        }
      ],
      "stateMutability": "view",
      "type": "function"
    },
    {
      "inputs": [
        {
          "internalType": "address",
          "name": "_holder",
          "type": "address"
        },
        {
          "internalType": "bytes32",
          "name": "_key",
          "type": "bytes32"
        }
      ],
      "name": "removeKey",
      "outputs": [
        {
          "internalType": "bool",
          "name": "success",
          "type": "bool"
        }
      ],
      "stateMutability": "nonpayable",
      "type": "function"
    }
  ],
  "bytecode": "0x608060405234801561001057600080fd5b50614a71806100206000396000f3fe60806040523480156200001157600080fd5b5060043610620000e15760003560e01c80634361443f1162000099578063dbfe87e1116200006f578063dbfe87e114620002a7578063ed71842a14620002ca578063f8ba8f841462000300578063fdde0e66146200033657620000e1565b80634361443f1462000216578063a1c8ca7e1462000251578063b1fea455146200027157620000e1565b8062f55d9d14620000e65780630e2f95751462000106578063237ed9b4146200013c578063314f5c1114620001725780633468ed3d14620001aa578063423401b314620001e0575b600080fd5b620001046004803603810190620000fe91906200129c565b6200036c565b005b6200012460048036038101906200011e91906200129c565b6200043b565b6040516200013391906200199d565b60405180910390f35b6200015a600480360381019062000154919062001309565b620004a3565b60405162000169919062001926565b60405180910390f35b6200019060048036038101906200018a9190620012c8565b620005a2565b604051620001a19392919062001a59565b60405180910390f35b620001c86004803603810190620001c2919062001375565b620006a1565b604051620001d7919062001902565b60405180910390f35b620001fe6004803603810190620001f891906200129c565b6200079d565b6040516200020d91906200199d565b60405180910390f35b6200023460048036038101906200022e9190620012c8565b620007d0565b6040516200024896959493929190620019d7565b60405180910390f35b6200026f6004803603810190620002699190620012c8565b620008e2565b005b6200028f6004803603810190620002899190620012c8565b620009d6565b6040516200029e919062001926565b60405180910390f35b620002b162000acf565b604051620002c1929190620018d5565b60405180910390f35b620002e86004803603810190620002e29190620013b6565b62000c88565b604051620002f7919062001943565b60405180910390f35b6200031e6004803603810190620003189190620012c8565b62000d90565b6040516200032d9190620019ba565b60405180910390f35b6200035460048036038101906200034e919062001375565b62000e87565b60405162000363919062001902565b60405180910390f35b6000808273ffffffffffffffffffffffffffffffffffffffff1673ffffffffffffffffffffffffffffffffffffffff16815260200190815260200160002060009054906101000a900473ffffffffffffffffffffffffffffffffffffffff1673ffffffffffffffffffffffffffffffffffffffff1662f55d9d306040518263ffffffff1660e01b8152600401620004049190620018b8565b600060405180830381600087803b1580156200041f57600080fd5b505af115801562000434573d6000803e3d6000fd5b5050505050565b60008060008373ffffffffffffffffffffffffffffffffffffffff1673ffffffffffffffffffffffffffffffffffffffff16815260200190815260200160002060009054906101000a900473ffffffffffffffffffffffffffffffffffffffff169050919050565b60008060008673ffffffffffffffffffffffffffffffffffffffff1673ffffffffffffffffffffffffffffffffffffffff16815260200190815260200160002060009054906101000a900473ffffffffffffffffffffffffffffffffffffffff1673ffffffffffffffffffffffffffffffffffffffff16631d3812408585856040518463ffffffff1660e01b8152600401620005429392919062001960565b602060405180830381600087803b1580156200055d57600080fd5b505af115801562000572573d6000803e3d6000fd5b505050506040513d601f19601f82011682018060405250810190620005989190620014f3565b9050949350505050565b60008060008060008673ffffffffffffffffffffffffffffffffffffffff1673ffffffffffffffffffffffffffffffffffffffff16815260200190815260200160002060009054906101000a900473ffffffffffffffffffffffffffffffffffffffff1673ffffffffffffffffffffffffffffffffffffffff166312aaac70856040518263ffffffff1660e01b815260040162000640919062001943565b60606040518083038186803b1580156200065957600080fd5b505afa1580156200066e573d6000803e3d6000fd5b505050506040513d601f19601f8201168201806040525081019062000694919062001658565b9250925092509250925092565b60606000808473ffffffffffffffffffffffffffffffffffffffff1673ffffffffffffffffffffffffffffffffffffffff16815260200190815260200160002060009054906101000a900473ffffffffffffffffffffffffffffffffffffffff1673ffffffffffffffffffffffffffffffffffffffff16639010f726836040518263ffffffff1660e01b81526004016200073c9190620019ba565b60006040518083038186803b1580156200075557600080fd5b505afa1580156200076a573d6000803e3d6000fd5b505050506040513d6000823e3d601f19601f82011682018060405250810190620007959190620014ae565b905092915050565b60006020528060005260406000206000915054906101000a900473ffffffffffffffffffffffffffffffffffffffff1681565b600080600060608060606000808973ffffffffffffffffffffffffffffffffffffffff1673ffffffffffffffffffffffffffffffffffffffff16815260200190815260200160002060009054906101000a900473ffffffffffffffffffffffffffffffffffffffff1673ffffffffffffffffffffffffffffffffffffffff1663c9100bcb886040518263ffffffff1660e01b815260040162000873919062001943565b60006040518083038186803b1580156200088c57600080fd5b505afa158015620008a1573d6000803e3d6000fd5b505050506040513d6000823e3d601f19601f82011682018060405250810190620008cc919062001577565b9550955095509550955095509295509295509295565b6000808373ffffffffffffffffffffffffffffffffffffffff1673ffffffffffffffffffffffffffffffffffffffff16815260200190815260200160002060009054906101000a900473ffffffffffffffffffffffffffffffffffffffff1673ffffffffffffffffffffffffffffffffffffffff16634eee424a826040518263ffffffff1660e01b81526004016200097b919062001943565b602060405180830381600087803b1580156200099657600080fd5b505af1158015620009ab573d6000803e3d6000fd5b505050506040513d601f19601f82011682018060405250810190620009d19190620014f3565b505050565b60008060008473ffffffffffffffffffffffffffffffffffffffff1673ffffffffffffffffffffffffffffffffffffffff16815260200190815260200160002060009054906101000a900473ffffffffffffffffffffffffffffffffffffffff1673ffffffffffffffffffffffffffffffffffffffff1663862642f5836040518263ffffffff1660e01b815260040162000a71919062001943565b602060405180830381600087803b15801562000a8c57600080fd5b505af115801562000aa1573d6000803e3d6000fd5b505050506040513d601f19601f8201168201806040525081019062000ac79190620014f3565b905092915050565b600080600060405162000ae29062000f83565b604051809103906000f08015801562000aff573d6000803e3d6000fd5b509050809250806000808573ffffffffffffffffffffffffffffffffffffffff1673ffffffffffffffffffffffffffffffffffffffff16815260200190815260200160002060006101000a81548173ffffffffffffffffffffffffffffffffffffffff021916908373ffffffffffffffffffffffffffffffffffffffff1602179055507fafb6f8637d656c4460e35a55ee8a5366eea247a9f2730f3c002540c353be08708160405162000bb391906200189b565b60405180910390a17f17d999f08836220ec49e62e94e67cc71744bd1abf3749c454443c40547c0acad8160405160200162000bef91906200187e565b6040516020818303038152906040528051906020012060405162000c14919062001943565b60405180910390a17f17d999f08836220ec49e62e94e67cc71744bd1abf3749c454443c40547c0acad8360405160200162000c50919062001861565b6040516020818303038152906040528051906020012060405162000c75919062001943565b60405180910390a1828192509250509091565b60008060008973ffffffffffffffffffffffffffffffffffffffff1673ffffffffffffffffffffffffffffffffffffffff16815260200190815260200160002060009054906101000a900473ffffffffffffffffffffffffffffffffffffffff1673ffffffffffffffffffffffffffffffffffffffff1663b1a34e0d8888888888886040518763ffffffff1660e01b815260040162000d2d96959493929190620019d7565b602060405180830381600087803b15801562000d4857600080fd5b505af115801562000d5d573d6000803e3d6000fd5b505050506040513d601f19601f8201168201806040525081019062000d8391906200151f565b9050979650505050505050565b60008060008473ffffffffffffffffffffffffffffffffffffffff1673ffffffffffffffffffffffffffffffffffffffff16815260200190815260200160002060009054906101000a900473ffffffffffffffffffffffffffffffffffffffff1673ffffffffffffffffffffffffffffffffffffffff1663032c1a8a836040518263ffffffff1660e01b815260040162000e2b919062001943565b60206040518083038186803b15801562000e4457600080fd5b505afa15801562000e59573d6000803e3d6000fd5b505050506040513d601f19601f8201168201806040525081019062000e7f91906200154b565b905092915050565b60606000808473ffffffffffffffffffffffffffffffffffffffff1673ffffffffffffffffffffffffffffffffffffffff16815260200190815260200160002060009054906101000a900473ffffffffffffffffffffffffffffffffffffffff1673ffffffffffffffffffffffffffffffffffffffff1663262b54f5836040518263ffffffff1660e01b815260040162000f229190620019ba565b60006040518083038186803b15801562000f3b57600080fd5b505afa15801562000f50573d6000803e3d6000fd5b505050506040513d6000823e3d601f19601f8201168201806040525081019062000f7b9190620014ae565b905092915050565b612c888062001db483390190565b600062000fa862000fa28462001abf565b62001a96565b9050808382526020820190508285602086028201111562000fc857600080fd5b60005b8581101562000ffc578162000fe18882620011a3565b84526020840193506020830192505060018101905062000fcb565b5050509392505050565b60006200101d620010178462001aee565b62001a96565b9050828152602081018484840111156200103657600080fd5b6200104384828562001c5b565b509392505050565b6000620010626200105c8462001aee565b62001a96565b9050828152602081018484840111156200107b57600080fd5b6200108884828562001c6a565b509392505050565b6000620010a7620010a18462001b24565b62001a96565b905082815260208101848484011115620010c057600080fd5b620010cd84828562001c5b565b509392505050565b6000620010ec620010e68462001b24565b62001a96565b9050828152602081018484840111156200110557600080fd5b6200111284828562001c6a565b509392505050565b6000813590506200112b8162001d4b565b92915050565b600081519050620011428162001d4b565b92915050565b600082601f8301126200115a57600080fd5b81516200116c84826020860162000f91565b91505092915050565b600081519050620011868162001d65565b92915050565b6000813590506200119d8162001d7f565b92915050565b600081519050620011b48162001d7f565b92915050565b600082601f830112620011cc57600080fd5b8135620011de84826020860162001006565b91505092915050565b600082601f830112620011f957600080fd5b81516200120b8482602086016200104b565b91505092915050565b600082601f8301126200122657600080fd5b81356200123884826020860162001090565b91505092915050565b600082601f8301126200125357600080fd5b815162001265848260208601620010d5565b91505092915050565b6000813590506200127f8162001d99565b92915050565b600081519050620012968162001d99565b92915050565b600060208284031215620012af57600080fd5b6000620012bf848285016200111a565b91505092915050565b60008060408385031215620012dc57600080fd5b6000620012ec858286016200111a565b9250506020620012ff858286016200118c565b9150509250929050565b600080600080608085870312156200132057600080fd5b600062001330878288016200111a565b945050602062001343878288016200118c565b935050604062001356878288016200126e565b925050606062001369878288016200126e565b91505092959194509250565b600080604083850312156200138957600080fd5b600062001399858286016200111a565b9250506020620013ac858286016200126e565b9150509250929050565b600080600080600080600060e0888a031215620013d257600080fd5b6000620013e28a828b016200111a565b9750506020620013f58a828b016200126e565b9650506040620014088a828b016200126e565b95505060606200141b8a828b016200111a565b945050608088013567ffffffffffffffff8111156200143957600080fd5b620014478a828b01620011ba565b93505060a088013567ffffffffffffffff8111156200146557600080fd5b620014738a828b01620011ba565b92505060c088013567ffffffffffffffff8111156200149157600080fd5b6200149f8a828b0162001214565b91505092959891949750929550565b600060208284031215620014c157600080fd5b600082015167ffffffffffffffff811115620014dc57600080fd5b620014ea8482850162001148565b91505092915050565b6000602082840312156200150657600080fd5b6000620015168482850162001175565b91505092915050565b6000602082840312156200153257600080fd5b60006200154284828501620011a3565b91505092915050565b6000602082840312156200155e57600080fd5b60006200156e8482850162001285565b91505092915050565b60008060008060008060c087890312156200159157600080fd5b6000620015a189828a0162001285565b9650506020620015b489828a0162001285565b9550506040620015c789828a0162001131565b945050606087015167ffffffffffffffff811115620015e557600080fd5b620015f389828a01620011e7565b935050608087015167ffffffffffffffff8111156200161157600080fd5b6200161f89828a01620011e7565b92505060a087015167ffffffffffffffff8111156200163d57600080fd5b6200164b89828a0162001241565b9150509295509295509295565b6000806000606084860312156200166e57600080fd5b60006200167e8682870162001285565b9350506020620016918682870162001285565b9250506040620016a486828701620011a3565b9150509250925092565b6000620016bc838362001780565b60208301905092915050565b620016d38162001bdf565b82525050565b620016e48162001bcb565b82525050565b620016ff620016f98262001bcb565b62001cd6565b82525050565b6000620017128262001b6a565b6200171e818562001b98565b93506200172b8362001b5a565b8060005b8381101562001762578151620017468882620016ae565b9750620017538362001b8b565b9250506001810190506200172f565b5085935050505092915050565b6200177a8162001bf3565b82525050565b6200178b8162001bff565b82525050565b6200179c8162001bff565b82525050565b6000620017af8262001b75565b620017bb818562001ba9565b9350620017cd81856020860162001c6a565b620017d88162001d2d565b840191505092915050565b620017ee8162001c33565b82525050565b62001809620018038262001c33565b62001cd6565b82525050565b60006200181c8262001b80565b62001828818562001bba565b93506200183a81856020860162001c6a565b620018458162001d2d565b840191505092915050565b6200185b8162001c29565b82525050565b60006200186f8284620016ea565b60148201915081905092915050565b60006200188c8284620017f4565b60148201915081905092915050565b6000602082019050620018b26000830184620016d9565b92915050565b6000602082019050620018cf6000830184620016c8565b92915050565b6000604082019050620018ec6000830185620016d9565b620018fb6020830184620017e3565b9392505050565b600060208201905081810360008301526200191e818462001705565b905092915050565b60006020820190506200193d60008301846200176f565b92915050565b60006020820190506200195a600083018462001791565b92915050565b600060608201905062001977600083018662001791565b62001986602083018562001850565b62001995604083018462001850565b949350505050565b6000602082019050620019b46000830184620017e3565b92915050565b6000602082019050620019d1600083018462001850565b92915050565b600060c082019050620019ee600083018962001850565b620019fd602083018862001850565b62001a0c6040830187620016d9565b818103606083015262001a208186620017a2565b9050818103608083015262001a368185620017a2565b905081810360a083015262001a4c81846200180f565b9050979650505050505050565b600060608201905062001a70600083018662001850565b62001a7f602083018562001850565b62001a8e604083018462001791565b949350505050565b600062001aa262001ab5565b905062001ab0828262001ca0565b919050565b6000604051905090565b600067ffffffffffffffff82111562001add5762001adc62001cfe565b5b602082029050602081019050919050565b600067ffffffffffffffff82111562001b0c5762001b0b62001cfe565b5b62001b178262001d2d565b9050602081019050919050565b600067ffffffffffffffff82111562001b425762001b4162001cfe565b5b62001b4d8262001d2d565b9050602081019050919050565b6000819050602082019050919050565b600081519050919050565b600081519050919050565b600081519050919050565b6000602082019050919050565b600082825260208201905092915050565b600082825260208201905092915050565b600082825260208201905092915050565b600062001bd88262001c09565b9050919050565b600062001bec8262001c09565b9050919050565b60008115159050919050565b6000819050919050565b600073ffffffffffffffffffffffffffffffffffffffff82169050919050565b6000819050919050565b600062001c408262001c47565b9050919050565b600062001c548262001c09565b9050919050565b82818337600083830152505050565b60005b8381101562001c8a57808201518184015260208101905062001c6d565b8381111562001c9a576000848401525b50505050565b62001cab8262001d2d565b810181811067ffffffffffffffff8211171562001ccd5762001ccc62001cfe565b5b80604052505050565b600062001ce38262001cea565b9050919050565b600062001cf78262001d3e565b9050919050565b7f4e487b7100000000000000000000000000000000000000000000000000000000600052604160045260246000fd5b6000601f19601f8301169050919050565b60008160601b9050919050565b62001d568162001bcb565b811462001d6257600080fd5b50565b62001d708162001bf3565b811462001d7c57600080fd5b50565b62001d8a8162001bff565b811462001d9657600080fd5b50565b62001da48162001c29565b811462001db057600080fd5b5056fe60806040523480156200001157600080fd5b5060003360405160200162000027919062000132565b6040516020818303038152906040528051906020012090508060016000838152602001908152602001600020600201819055506001806000838152602001908152602001600020600001819055506001806000838152602001908152602001600020600101819055506002600060018152602001908152602001600020819080600181540180825580915050600190039060005260206000200160009091909190915055600180600083815260200190815260200160002060000154827f480000bb1edad8ca1470381cc334b1917fbd51c6531f3a623ea8e0ec7e38a6e960405160405180910390a450620001b8565b6200012c62000126826200014f565b62000183565b82525050565b600062000140828462000117565b60148201915081905092915050565b60006200015c8262000163565b9050919050565b600073ffffffffffffffffffffffffffffffffffffffff82169050919050565b6000620001908262000197565b9050919050565b6000620001a482620001ab565b9050919050565b60008160601b9050919050565b612ac080620001c86000396000f3fe608060405234801561001057600080fd5b50600436106100e95760003560e01c8063747442d31161008c578063b1a34e0d11610066578063b1a34e0d146102bc578063b61d27f6146102ec578063c9100bcb1461031c578063d202158d14610351576100e9565b8063747442d31461022c578063862642f51461025c5780639010f7261461028c576100e9565b80631d381240116100c85780631d3812401461016c578063262b54f51461019c57806330690424146101cc5780634eee424a146101fc576100e9565b8062f55d9d146100ee578063032c1a8a1461010a57806312aaac701461013a575b600080fd5b61010860048036038101906101039190611a7c565b610381565b005b610124600480360381019061011f9190611b0c565b61039a565b60405161013191906123ab565b60405180910390f35b610154600480360381019061014f9190611b0c565b6103ba565b604051610163939291906124f0565b60405180910390f35b61018660048036038101906101819190611b71565b610411565b604051610193919061224f565b60405180910390f35b6101b660048036038101906101b19190611bc0565b6105d5565b6040516101c3919061222d565b60405180910390f35b6101e660048036038101906101e19190611b0c565b610640565b6040516101f39190612389565b60405180910390f35b61021660048036038101906102119190611b0c565b61088d565b604051610223919061224f565b60405180910390f35b61024660048036038101906102419190611be9565b610ab0565b604051610253919061224f565b60405180910390f35b61027660048036038101906102719190611b0c565b610e39565b604051610283919061224f565b60405180910390f35b6102a660048036038101906102a19190611bc0565b610f3b565b6040516102b3919061222d565b60405180910390f35b6102d660048036038101906102d19190611c25565b610fa6565b6040516102e3919061226a565b60405180910390f35b61030660048036038101906103019190611aa5565b61128c565b60405161031391906123ab565b60405180910390f35b61033660048036038101906103319190611b0c565b61148f565b6040516103489695949392919061247a565b60405180910390f35b61036b60048036038101906103669190611b35565b6116f9565b604051610378919061224f565b60405180910390f35b8073ffffffffffffffffffffffffffffffffffffffff16ff5b600060016000838152602001908152602001600020600001549050919050565b60008060006001600085815260200190815260200160002060000154600160008681526020019081526020016000206001015460016000878152602001908152602001600020600201549250925092509193909250565b6000836001600086815260200190815260200160002060020154141561046c576040517f08c379a0000000000000000000000000000000000000000000000000000000008152600401610463906122e9565b60405180910390fd5b3073ffffffffffffffffffffffffffffffffffffffff163373ffffffffffffffffffffffffffffffffffffffff1614610510576104d0336040516020016104b391906121cf565b6040516020818303038152906040528051906020012060016116f9565b61050f576040517f08c379a000000000000000000000000000000000000000000000000000000000815260040161050690612349565b60405180910390fd5b5b836001600086815260200190815260200160002060020181905550826001600086815260200190815260200160002060000181905550816001600086815260200190815260200160002060010181905550600260008481526020019081526020016000208490806001815401808255809150506001900390600052602060002001600090919091909150558183857f480000bb1edad8ca1470381cc334b1917fbd51c6531f3a623ea8e0ec7e38a6e960405160405180910390a4600190509392505050565b60606005600083815260200190815260200160002080548060200260200160405190810160405280929190818152602001828054801561063457602002820191906000526020600020905b815481526020019060010190808311610620575b50505050509050919050565b61064861174e565b600460008381526020019081526020016000206040518060c001604052908160008201548152602001600182015481526020016002820160009054906101000a900473ffffffffffffffffffffffffffffffffffffffff1673ffffffffffffffffffffffffffffffffffffffff1673ffffffffffffffffffffffffffffffffffffffff1681526020016003820180546106e090612750565b80601f016020809104026020016040519081016040528092919081815260200182805461070c90612750565b80156107595780601f1061072e57610100808354040283529160200191610759565b820191906000526020600020905b81548152906001019060200180831161073c57829003601f168201915b5050505050815260200160048201805461077290612750565b80601f016020809104026020016040519081016040528092919081815260200182805461079e90612750565b80156107eb5780601f106107c0576101008083540402835291602001916107eb565b820191906000526020600020905b8154815290600101906020018083116107ce57829003601f168201915b5050505050815260200160058201805461080490612750565b80601f016020809104026020016040519081016040528092919081815260200182805461083090612750565b801561087d5780601f106108525761010080835404028352916020019161087d565b820191906000526020600020905b81548152906001019060200180831161086057829003601f168201915b5050505050815250509050919050565b60003073ffffffffffffffffffffffffffffffffffffffff163373ffffffffffffffffffffffffffffffffffffffff1614610933576108f3336040516020016108d691906121cf565b6040516020818303038152906040528051906020012060016116f9565b610932576040517f08c379a000000000000000000000000000000000000000000000000000000000815260040161092990612349565b60405180910390fd5b5b6004600083815260200190815260200160002060020160009054906101000a900473ffffffffffffffffffffffffffffffffffffffff1673ffffffffffffffffffffffffffffffffffffffff166004600084815260200190815260200160002060000154837f3cf57863a89432c61c4a27073c6ee39e8a764bff5a05aebfbcdcdc80b2e6130a60046000878152602001908152602001600020600101546004600088815260200190815260200160002060030160046000898152602001908152602001600020600401600460008a8152602001908152602001600020600501604051610a229493929190612420565b60405180910390a46004600083815260200190815260200160002060008082016000905560018201600090556002820160006101000a81549073ffffffffffffffffffffffffffffffffffffffff0219169055600382016000610a85919061179a565b600482016000610a95919061179a565b600582016000610aa591906117da565b505060019050919050565b6000610ae333604051602001610ac691906121cf565b6040516020818303038152906040528051906020012060026116f9565b610b22576040517f08c379a0000000000000000000000000000000000000000000000000000000008152600401610b19906122c9565b60405180910390fd5b827fb3932da477fe5d6c8ff2eafef050c0f3a1af18fc07121001482600f36f3715d883604051610b52919061224f565b60405180910390a26060600115158315151415610dfe5760016003600086815260200190815260200160002060030160006101000a81548160ff0219169083151502179055506003600085815260200190815260200160002060000160009054906101000a900473ffffffffffffffffffffffffffffffffffffffff1673ffffffffffffffffffffffffffffffffffffffff1660036000868152602001908152602001600020600201604051610c089190612216565b6000604051808303816000865af19150503d8060008114610c45576040519150601f19603f3d011682016040523d82523d6000602084013e610c4a565b606091505b5080925081935050508115610d435760016003600086815260200190815260200160002060030160016101000a81548160ff02191690831515021790555060036000858152602001908152602001600020600101546003600086815260200190815260200160002060000160009054906101000a900473ffffffffffffffffffffffffffffffffffffffff1673ffffffffffffffffffffffffffffffffffffffff16857f1f920dbda597d7bf95035464170fa58d0a4b57f13a1c315ace6793b9f63688b860036000898152602001908152602001600020600201604051610d3191906122a7565b60405180910390a46001915050610e33565b60036000858152602001908152602001600020600101546003600086815260200190815260200160002060000160009054906101000a900473ffffffffffffffffffffffffffffffffffffffff1673ffffffffffffffffffffffffffffffffffffffff16857fe10c49d9f7c71da23262367013434763cfdb2332267641728d25cd712c5c6a6860036000898152602001908152602001600020600201604051610dec91906122a7565b60405180910390a46000915050610e33565b60006003600086815260200190815260200160002060030160006101000a81548160ff02191690831515021790555060019150505b92915050565b600081600160008481526020019081526020016000206002015414610e93576040517f08c379a0000000000000000000000000000000000000000000000000000000008152600401610e8a90612369565b60405180910390fd5b6001600083815260200190815260200160002060010154600160008481526020019081526020016000206000015460016000858152602001908152602001600020600201547f585a4aef50f8267a92b32412b331b20f7f8b96f2245b253b9cc50dcc621d339760405160405180910390a46001600083815260200190815260200160002060008082016000905560018201600090556002820160009055505060019050919050565b606060026000838152602001908152602001600020805480602002602001604051908101604052809291908181526020018280548015610f9a57602002820191906000526020600020905b815481526020019060010190808311610f86575b50505050509050919050565b6000803088604051602001610fbc9291906121ea565b6040516020818303038152906040528051906020012090503073ffffffffffffffffffffffffffffffffffffffff163373ffffffffffffffffffffffffffffffffffffffff1614611078576110383360405160200161101b91906121cf565b6040516020818303038152906040528051906020012060036116f9565b611077576040517f08c379a000000000000000000000000000000000000000000000000000000000815260040161106e90612309565b60405180910390fd5b5b8573ffffffffffffffffffffffffffffffffffffffff166004600083815260200190815260200160002060020160009054906101000a900473ffffffffffffffffffffffffffffffffffffffff1673ffffffffffffffffffffffffffffffffffffffff161461111c57600560008981526020019081526020016000208190806001815401808255809150506001900390600052602060002001600090919091909150555b876004600083815260200190815260200160002060000181905550866004600083815260200190815260200160002060010181905550856004600083815260200190815260200160002060020160006101000a81548173ffffffffffffffffffffffffffffffffffffffff021916908373ffffffffffffffffffffffffffffffffffffffff160217905550846004600083815260200190815260200160002060030190805190602001906111d192919061181a565b50836004600083815260200190815260200160002060040190805190602001906111fc92919061181a565b50826004600083815260200190815260200160002060050190805190602001906112279291906118a0565b508573ffffffffffffffffffffffffffffffffffffffff1688827f46149b18aa084502c3f12bc75e19eda8bda8d102b82cce8474677a6d0d5f43c58a89898960405161127694939291906123c6565b60405180910390a4809150509695505050505050565b6000600360008054815260200190815260200160002060030160019054906101000a900460ff16156112f3576040517f08c379a00000000000000000000000000000000000000000000000000000000081526004016112ea90612329565b60405180910390fd5b83600360008054815260200190815260200160002060000160006101000a81548173ffffffffffffffffffffffffffffffffffffffff021916908373ffffffffffffffffffffffffffffffffffffffff16021790555082600360008054815260200190815260200160002060010181905550816003600080548152602001908152602001600020600201908051906020019061139092919061181a565b50828473ffffffffffffffffffffffffffffffffffffffff166000547f8afcfabcb00e47a53a8fc3e9f23ff47ee1926194bb1350dd007c50b412a6cee8856040516113db9190612285565b60405180910390a4611414336040516020016113f791906121cf565b6040516020818303038152906040528051906020012060016116f9565b8061144c575061144b3360405160200161142e91906121cf565b6040516020818303038152906040528051906020012060026116f9565b5b156114605761145e6000546001610ab0565b505b600080815480929190611472906127b3565b919050555060016000546114869190612676565b90509392505050565b6000806000606080606060046000888152602001908152602001600020600001546004600089815260200190815260200160002060010154600460008a815260200190815260200160002060020160009054906101000a900473ffffffffffffffffffffffffffffffffffffffff16600460008b8152602001908152602001600020600301600460008c8152602001908152602001600020600401600460008d815260200190815260200160002060050182805461154c90612750565b80601f016020809104026020016040519081016040528092919081815260200182805461157890612750565b80156115c55780601f1061159a576101008083540402835291602001916115c5565b820191906000526020600020905b8154815290600101906020018083116115a857829003601f168201915b505050505092508180546115d890612750565b80601f016020809104026020016040519081016040528092919081815260200182805461160490612750565b80156116515780601f1061162657610100808354040283529160200191611651565b820191906000526020600020905b81548152906001019060200180831161163457829003601f168201915b5050505050915080805461166490612750565b80601f016020809104026020016040519081016040528092919081815260200182805461169090612750565b80156116dd5780601f106116b2576101008083540402835291602001916116dd565b820191906000526020600020905b8154815290600101906020018083116116c057829003601f168201915b5050505050905095509550955095509550955091939550919395565b6000806000801b60016000868152602001908152602001600020600201541415611727576000915050611748565b82600160008681526020019081526020016000206000015411159050809150505b92915050565b6040518060c001604052806000815260200160008152602001600073ffffffffffffffffffffffffffffffffffffffff1681526020016060815260200160608152602001606081525090565b5080546117a690612750565b6000825580601f106117b857506117d7565b601f0160209004906000526020600020908101906117d69190611926565b5b50565b5080546117e690612750565b6000825580601f106117f85750611817565b601f0160209004906000526020600020908101906118169190611926565b5b50565b82805461182690612750565b90600052602060002090601f016020900481019282611848576000855561188f565b82601f1061186157805160ff191683800117855561188f565b8280016001018555821561188f579182015b8281111561188e578251825591602001919060010190611873565b5b50905061189c9190611926565b5090565b8280546118ac90612750565b90600052602060002090601f0160209004810192826118ce5760008555611915565b82601f106118e757805160ff1916838001178555611915565b82800160010185558215611915579182015b828111156119145782518255916020019190600101906118f9565b5b5090506119229190611926565b5090565b5b8082111561193f576000816000905550600101611927565b5090565b60006119566119518461254c565b612527565b90508281526020810184848401111561196e57600080fd5b61197984828561270e565b509392505050565b600061199461198f8461257d565b612527565b9050828152602081018484840111156119ac57600080fd5b6119b784828561270e565b509392505050565b6000813590506119ce81612a17565b92915050565b6000813590506119e381612a2e565b92915050565b6000813590506119f881612a45565b92915050565b600081359050611a0d81612a5c565b92915050565b600082601f830112611a2457600080fd5b8135611a34848260208601611943565b91505092915050565b600082601f830112611a4e57600080fd5b8135611a5e848260208601611981565b91505092915050565b600081359050611a7681612a73565b92915050565b600060208284031215611a8e57600080fd5b6000611a9c848285016119d4565b91505092915050565b600080600060608486031215611aba57600080fd5b6000611ac8868287016119bf565b9350506020611ad986828701611a67565b925050604084013567ffffffffffffffff811115611af657600080fd5b611b0286828701611a13565b9150509250925092565b600060208284031215611b1e57600080fd5b6000611b2c848285016119fe565b91505092915050565b60008060408385031215611b4857600080fd5b6000611b56858286016119fe565b9250506020611b6785828601611a67565b9150509250929050565b600080600060608486031215611b8657600080fd5b6000611b94868287016119fe565b9350506020611ba586828701611a67565b9250506040611bb686828701611a67565b9150509250925092565b600060208284031215611bd257600080fd5b6000611be084828501611a67565b91505092915050565b60008060408385031215611bfc57600080fd5b6000611c0a85828601611a67565b9250506020611c1b858286016119e9565b9150509250929050565b60008060008060008060c08789031215611c3e57600080fd5b6000611c4c89828a01611a67565b9650506020611c5d89828a01611a67565b9550506040611c6e89828a016119bf565b945050606087013567ffffffffffffffff811115611c8b57600080fd5b611c9789828a01611a13565b935050608087013567ffffffffffffffff811115611cb457600080fd5b611cc089828a01611a13565b92505060a087013567ffffffffffffffff811115611cdd57600080fd5b611ce989828a01611a3d565b9150509295509295509295565b6000611d028383611db0565b60208301905092915050565b611d17816126aa565b82525050565b611d26816126aa565b82525050565b611d3d611d38826126aa565b6127fc565b82525050565b6000611d4e826125e8565b611d588185612616565b9350611d63836125ae565b8060005b83811015611d94578151611d7b8882611cf6565b9750611d8683612609565b925050600181019050611d67565b5085935050505092915050565b611daa816126ce565b82525050565b611db9816126da565b82525050565b611dc8816126da565b82525050565b6000611dd9826125f3565b611de38185612627565b9350611df381856020860161271d565b611dfc816128b7565b840191505092915050565b6000611e12826125f3565b611e1c8185612638565b9350611e2c81856020860161271d565b611e35816128b7565b840191505092915050565b60008154611e4d81612750565b611e578186612638565b94506001821660008114611e725760018114611e8457611eb7565b60ff1983168652602086019350611eb7565b611e8d856125be565b60005b83811015611eaf57815481890152600182019150602081019050611e90565b808801955050505b50505092915050565b60008154611ecd81612750565b611ed78186612649565b94506001821660008114611ef25760018114611f0357611f36565b60ff19831686528186019350611f36565b611f0c856125be565b60005b83811015611f2e57815481890152600182019150602081019050611f0f565b838801955050505b50505092915050565b6000611f4a826125fe565b611f548185612654565b9350611f6481856020860161271d565b611f6d816128b7565b840191505092915050565b6000611f83826125fe565b611f8d8185612665565b9350611f9d81856020860161271d565b611fa6816128b7565b840191505092915050565b60008154611fbe81612750565b611fc88186612665565b94506001821660008114611fe35760018114611ff557612028565b60ff1983168652602086019350612028565b611ffe856125d3565b60005b8381101561202057815481890152600182019150602081019050612001565b808801955050505b50505092915050565b600061203e601f83612665565b9150612049826128d5565b602082019050919050565b6000612061601283612665565b915061206c826128fe565b602082019050919050565b6000612084602583612665565b915061208f82612927565b604082019050919050565b60006120a7601083612665565b91506120b282612976565b602082019050919050565b60006120ca602383612665565b91506120d58261299f565b604082019050919050565b60006120ed600b83612665565b91506120f8826129ee565b602082019050919050565b600060c08301600083015161211b600086018261219a565b50602083015161212e602086018261219a565b5060408301516121416040860182611d0e565b50606083015184820360608601526121598282611dce565b915050608083015184820360808601526121738282611dce565b91505060a083015184820360a086015261218d8282611f3f565b9150508091505092915050565b6121a381612704565b82525050565b6121b281612704565b82525050565b6121c96121c482612704565b612820565b82525050565b60006121db8284611d2c565b60148201915081905092915050565b60006121f68285611d2c565b60148201915061220682846121b8565b6020820191508190509392505050565b60006122228284611ec0565b915081905092915050565b600060208201905081810360008301526122478184611d43565b905092915050565b60006020820190506122646000830184611da1565b92915050565b600060208201905061227f6000830184611dbf565b92915050565b6000602082019050818103600083015261229f8184611e07565b905092915050565b600060208201905081810360008301526122c18184611e40565b905092915050565b600060208201905081810360008301526122e281612031565b9050919050565b6000602082019050818103600083015261230281612054565b9050919050565b6000602082019050818103600083015261232281612077565b9050919050565b600060208201905081810360008301526123428161209a565b9050919050565b60006020820190508181036000830152612362816120bd565b9050919050565b60006020820190508181036000830152612382816120e0565b9050919050565b600060208201905081810360008301526123a38184612103565b905092915050565b60006020820190506123c060008301846121a9565b92915050565b60006080820190506123db60008301876121a9565b81810360208301526123ed8186611e07565b905081810360408301526124018185611e07565b905081810360608301526124158184611f78565b905095945050505050565b600060808201905061243560008301876121a9565b81810360208301526124478186611e40565b9050818103604083015261245b8185611e40565b9050818103606083015261246f8184611fb1565b905095945050505050565b600060c08201905061248f60008301896121a9565b61249c60208301886121a9565b6124a96040830187611d1d565b81810360608301526124bb8186611e07565b905081810360808301526124cf8185611e07565b905081810360a08301526124e38184611f78565b9050979650505050505050565b600060608201905061250560008301866121a9565b61251260208301856121a9565b61251f6040830184611dbf565b949350505050565b6000612531612542565b905061253d8282612782565b919050565b6000604051905090565b600067ffffffffffffffff82111561256757612566612888565b5b612570826128b7565b9050602081019050919050565b600067ffffffffffffffff82111561259857612597612888565b5b6125a1826128b7565b9050602081019050919050565b6000819050602082019050919050565b60008190508160005260206000209050919050565b60008190508160005260206000209050919050565b600081519050919050565b600081519050919050565b600081519050919050565b6000602082019050919050565b600082825260208201905092915050565b600082825260208201905092915050565b600082825260208201905092915050565b600081905092915050565b600082825260208201905092915050565b600082825260208201905092915050565b600061268182612704565b915061268c83612704565b92508282101561269f5761269e61282a565b5b828203905092915050565b60006126b5826126e4565b9050919050565b60006126c7826126e4565b9050919050565b60008115159050919050565b6000819050919050565b600073ffffffffffffffffffffffffffffffffffffffff82169050919050565b6000819050919050565b82818337600083830152505050565b60005b8381101561273b578082015181840152602081019050612720565b8381111561274a576000848401525b50505050565b6000600282049050600182168061276857607f821691505b6020821081141561277c5761277b612859565b5b50919050565b61278b826128b7565b810181811067ffffffffffffffff821117156127aa576127a9612888565b5b80604052505050565b60006127be82612704565b91507fffffffffffffffffffffffffffffffffffffffffffffffffffffffffffffffff8214156127f1576127f061282a565b5b600182019050919050565b60006128078261280e565b9050919050565b6000612819826128c8565b9050919050565b6000819050919050565b7f4e487b7100000000000000000000000000000000000000000000000000000000600052601160045260246000fd5b7f4e487b7100000000000000000000000000000000000000000000000000000000600052602260045260246000fd5b7f4e487b7100000000000000000000000000000000000000000000000000000000600052604160045260246000fd5b6000601f19601f8301169050919050565b60008160601b9050919050565b7f53656e64657220646f6573206e6f74206861766520616374696f6e206b657900600082015250565b7f4b657920616c7265616479206578697374730000000000000000000000000000600082015250565b7f53656e64657220646f6573206e6f74206861766520636c61696d207369676e6560008201527f72206b6579000000000000000000000000000000000000000000000000000000602082015250565b7f416c726561647920657865637574656400000000000000000000000000000000600082015250565b7f53656e64657220646f6573206e6f742068617665206d616e6167656d656e742060008201527f6b65790000000000000000000000000000000000000000000000000000000000602082015250565b7f4e6f2073756368206b6579000000000000000000000000000000000000000000600082015250565b612a20816126aa565b8114612a2b57600080fd5b50565b612a37816126bc565b8114612a4257600080fd5b50565b612a4e816126ce565b8114612a5957600080fd5b50565b612a65816126da565b8114612a7057600080fd5b50565b612a7c81612704565b8114612a8757600080fd5b5056fea2646970667358221220b4b98bec38bc25f2656c3996b2ab60ce8111ae9733600135036996af432b30fe64736f6c63430008010033a264697066735822122006bebd24236308d72507ca714d1a725ce2c57212ed0581b972ecade9660e5e0764736f6c63430008010033",
  "immutableReferences": {},
  "source": "// SPDX-License-Identifier: MIT\r\npragma solidity >=0.4.22 <0.9.0;\r\nimport \"./xClaimHolder.sol\";\r\nimport \"./xKeyHolder.sol\";\r\n\r\ncontract EthereumClaimsRegistry {\r\n    event ClaimHolderAdded(address claimHolder);\r\n    event CheckHash(bytes32 hash);\r\n    mapping(address => xClaimHolder) public claimHolder;\r\n\r\n    function addClaimHolder()\r\n        public\r\n        returns (address contractAddr, xClaimHolder)\r\n    {\r\n        xClaimHolder holder = new xClaimHolder();\r\n        contractAddr = address(holder);\r\n        claimHolder[contractAddr] = holder;\r\n        emit ClaimHolderAdded(address(holder));\r\n        emit CheckHash(keccak256(abi.encodePacked(holder)));\r\n        emit CheckHash(keccak256(abi.encodePacked(contractAddr)));\r\n        return (contractAddr, holder);\r\n    }\r\n\r\n    function getClaimHolder(address addr) public view returns (xClaimHolder) {\r\n        return claimHolder[addr];\r\n    }\r\n\r\n    function addClaim(\r\n        address holder,\r\n        uint256 _claimType,\r\n        uint256 _scheme,\r\n        address _issuer,\r\n        bytes memory _signature,\r\n        bytes memory _data,\r\n        string memory _uri\r\n    ) public returns (bytes32 claimID) {\r\n        return\r\n            claimHolder[holder].addClaim(\r\n                _claimType,\r\n                _scheme,\r\n                _issuer,\r\n                _signature,\r\n                _data,\r\n                _uri\r\n            );\r\n    }\r\n\r\n    function removeClaim(address holder, bytes32 _claimId) public {\r\n        claimHolder[holder].removeClaim(_claimId);\r\n    }\r\n\r\n    function getClaim(address holder, bytes32 _claimId)\r\n        public\r\n        view\r\n        returns (\r\n            uint256 claimType,\r\n            uint256 scheme,\r\n            address issuer,\r\n            bytes memory signature,\r\n            bytes memory data,\r\n            string memory uri\r\n        )\r\n    {\r\n        return claimHolder[holder].getClaim(_claimId);\r\n    }\r\n\r\n    function getClaimIdsByType(address holder, uint256 _claimType)\r\n        public\r\n        view\r\n        returns (bytes32[] memory claimIds)\r\n    {\r\n        return claimHolder[holder].getClaimIdsByType(_claimType);\r\n    }\r\n\r\n    function destroy(address holder) public {\r\n        claimHolder[holder].destroy(payable(address(this)));\r\n    }\r\n\r\n    function addKey(\r\n        address _holder,\r\n        bytes32 _key,\r\n        uint256 _purpose,\r\n        uint256 _type\r\n    ) public returns (bool success) {\r\n        return claimHolder[_holder].addKey(_key, _purpose, _type);\r\n    }\r\n\r\n    function getKey(address _holder, bytes32 _key)\r\n        public\r\n        view\r\n        returns (\r\n            uint256 purpose,\r\n            uint256 keyType,\r\n            bytes32 key\r\n        )\r\n    {\r\n        return claimHolder[_holder].getKey(_key);\r\n    }\r\n\r\n    function getKeyPurpose(address _holder, bytes32 _key)\r\n        public\r\n        view\r\n        returns (uint256 purpose)\r\n    {\r\n        return claimHolder[_holder].getKeyPurpose(_key);\r\n    }\r\n\r\n    function getKeysByPurpose(address _holder, uint256 _purpose)\r\n        public\r\n        view\r\n        returns (bytes32[] memory _keys)\r\n    {\r\n        return claimHolder[_holder].getKeysByPurpose(_purpose);\r\n    }\r\n\r\n    function removeKey(address _holder, bytes32 _key)\r\n        public\r\n        returns (bool success)\r\n    {\r\n        return claimHolder[_holder].removeKey(_key);\r\n    }\r\n}\r\n",
  "sourcePath": "D:\\XAMPP\\htdocs\\rpModule\\blockchain\\contracts\\EthereumClaimsRegistry.sol",
  "compiler": {
    "name": "solc",
    "version": "0.8.1+commit.df193b15.Emscripten.clang"
  },
  "schemaVersion": "3.4.3",
  "updatedAt": "2022-01-27T13:42:54.621Z",
  "devdoc": {
    "kind": "dev",
    "methods": {},
    "version": 1
  },
  "userdoc": {
    "kind": "user",
    "methods": {},
    "version": 1
  }
}