{
  "contractName": "Identity",
  "abi": [
    {
      "constant": true,
      "inputs": [],
      "name": "getID",
      "outputs": [
        {
          "internalType": "uint256",
          "name": "",
          "type": "uint256"
        }
      ],
      "payable": false,
      "stateMutability": "view",
      "type": "function"
    },
    {
      "constant": true,
      "inputs": [],
      "name": "getPubKey",
      "outputs": [
        {
          "internalType": "bytes",
          "name": "",
          "type": "bytes"
        }
      ],
      "payable": false,
      "stateMutability": "view",
      "type": "function"
    },
    {
      "constant": true,
      "inputs": [
        {
          "internalType": "uint256",
          "name": "num",
          "type": "uint256"
        }
      ],
      "name": "verifier",
      "outputs": [
        {
          "internalType": "bytes4",
          "name": "",
          "type": "bytes4"
        }
      ],
      "payable": false,
      "stateMutability": "pure",
      "type": "function"
    }
  ],
  "bytecode": "0x608060405234801561001057600080fd5b506102ac806100206000396000f3fe608060405234801561001057600080fd5b50600436106100415760003560e01c80634ad02ef1146100465780638d129178146100c9578063ab9dbd0714610149575b600080fd5b61004e610167565b6040518080602001828103825283818151815260200191508051906020019080838360005b8381101561008e578082015181840152602081019050610073565b50505050905090810190601f1680156100bb5780820380516001836020036101000a031916815260200191505b509250505060405180910390f35b6100f5600480360360208110156100df57600080fd5b8101908080359060200190929190505050610209565b60405180827bffffffffffffffffffffffffffffffffffffffffffffffffffffffff19167bffffffffffffffffffffffffffffffffffffffffffffffffffffffff1916815260200191505060405180910390f35b61015161026e565b6040518082815260200191505060405180910390f35b606060018054600181600116156101000203166002900480601f0160208091040260200160405190810160405280929190818152602001828054600181600116156101000203166002900480156101ff5780601f106101d4576101008083540402835291602001916101ff565b820191906000526020600020905b8154815290600101906020018083116101e257829003601f168201915b5050505050905090565b6000806002838161021657fe5b061415610245577f6576656e000000000000000000000000000000000000000000000000000000009050610269565b7f6f6464000000000000000000000000000000000000000000000000000000000090505b919050565b6000805490509056fea265627a7a72315820012baa0de8610d7b61dfc9e242c033ef9eddfd408dc70ef3b17c05de9dfaf2e164736f6c63430005100032",
  "source": "// SPDX-License-Identifier: GPL-3.0\r\npragma solidity >=0.4.22 <0.9.0;\r\n\r\ncontract Identity {\r\n    uint ID;\r\n    bytes pub_key;\r\n\r\n    function getID() public view returns (uint){\r\n        return ID;\r\n    }\r\n\r\n    function getPubKey() public view returns (bytes memory){\r\n        return pub_key;\r\n    }\r\n\r\n    function verifier(uint num) public pure returns (bytes4) {\r\n        if (num%2==0){\r\n            return \"even\";\r\n        }\r\n        else{\r\n            return \"odd\";\r\n        }\r\n    }\r\n}\r\n",
  "sourcePath": "C:/workspace/rpModule/blockchain/contracts/Identity.sol",
  "compiler": {
    "name": "solc",
    "version": "0.5.16+commit.9c3226ce.Emscripten.clang"
  },
  "schemaVersion": "3.3.4",
  "updatedAt": "2021-08-06T08:53:53.355Z",
  "networkType": "ethereum",
  "devdoc": {
    "methods": {}
  },
  "userdoc": {
    "methods": {}
  }
}