{
  "contractName": "KeyHolder",
  "abi": [
    {
      "inputs": [],
      "stateMutability": "nonpayable",
      "type": "constructor"
    },
    {
      "anonymous": false,
      "inputs": [
        {
          "indexed": true,
          "internalType": "uint256",
          "name": "executionId",
          "type": "uint256"
        },
        {
          "indexed": false,
          "internalType": "bool",
          "name": "approved",
          "type": "bool"
        }
      ],
      "name": "Approved",
      "type": "event"
    },
    {
      "anonymous": false,
      "inputs": [
        {
          "indexed": true,
          "internalType": "uint256",
          "name": "executionId",
          "type": "uint256"
        },
        {
          "indexed": true,
          "internalType": "address",
          "name": "to",
          "type": "address"
        },
        {
          "indexed": true,
          "internalType": "uint256",
          "name": "value",
          "type": "uint256"
        },
        {
          "indexed": false,
          "internalType": "bytes",
          "name": "data",
          "type": "bytes"
        }
      ],
      "name": "Executed",
      "type": "event"
    },
    {
      "anonymous": false,
      "inputs": [
        {
          "indexed": true,
          "internalType": "uint256",
          "name": "executionId",
          "type": "uint256"
        },
        {
          "indexed": true,
          "internalType": "address",
          "name": "to",
          "type": "address"
        },
        {
          "indexed": true,
          "internalType": "uint256",
          "name": "value",
          "type": "uint256"
        },
        {
          "indexed": false,
          "internalType": "bytes",
          "name": "data",
          "type": "bytes"
        }
      ],
      "name": "ExecutionFailed",
      "type": "event"
    },
    {
      "anonymous": false,
      "inputs": [
        {
          "indexed": true,
          "internalType": "uint256",
          "name": "executionId",
          "type": "uint256"
        },
        {
          "indexed": true,
          "internalType": "address",
          "name": "to",
          "type": "address"
        },
        {
          "indexed": true,
          "internalType": "uint256",
          "name": "value",
          "type": "uint256"
        },
        {
          "indexed": false,
          "internalType": "bytes",
          "name": "data",
          "type": "bytes"
        }
      ],
      "name": "ExecutionRequested",
      "type": "event"
    },
    {
      "anonymous": false,
      "inputs": [
        {
          "indexed": true,
          "internalType": "bytes32",
          "name": "key",
          "type": "bytes32"
        },
        {
          "indexed": true,
          "internalType": "uint256",
          "name": "purpose",
          "type": "uint256"
        },
        {
          "indexed": true,
          "internalType": "uint256",
          "name": "keyType",
          "type": "uint256"
        }
      ],
      "name": "KeyAdded",
      "type": "event"
    },
    {
      "anonymous": false,
      "inputs": [
        {
          "indexed": true,
          "internalType": "bytes32",
          "name": "key",
          "type": "bytes32"
        },
        {
          "indexed": true,
          "internalType": "uint256",
          "name": "purpose",
          "type": "uint256"
        },
        {
          "indexed": true,
          "internalType": "uint256",
          "name": "keyType",
          "type": "uint256"
        }
      ],
      "name": "KeyRemoved",
      "type": "event"
    },
    {
      "inputs": [
        {
          "internalType": "bytes32",
          "name": "_key",
          "type": "bytes32"
        }
      ],
      "name": "getKey",
      "outputs": [
        {
          "internalType": "uint256",
          "name": "purpose",
          "type": "uint256"
        },
        {
          "internalType": "uint256",
          "name": "keyType",
          "type": "uint256"
        },
        {
          "internalType": "bytes32",
          "name": "key",
          "type": "bytes32"
        }
      ],
      "stateMutability": "view",
      "type": "function"
    },
    {
      "inputs": [
        {
          "internalType": "bytes32",
          "name": "_key",
          "type": "bytes32"
        }
      ],
      "name": "getKeyPurpose",
      "outputs": [
        {
          "internalType": "uint256",
          "name": "purpose",
          "type": "uint256"
        }
      ],
      "stateMutability": "view",
      "type": "function"
    },
    {
      "inputs": [
        {
          "internalType": "uint256",
          "name": "_purpose",
          "type": "uint256"
        }
      ],
      "name": "getKeysByPurpose",
      "outputs": [
        {
          "internalType": "bytes32[]",
          "name": "_keys",
          "type": "bytes32[]"
        }
      ],
      "stateMutability": "view",
      "type": "function"
    },
    {
      "inputs": [
        {
          "internalType": "bytes32",
          "name": "_key",
          "type": "bytes32"
        },
        {
          "internalType": "uint256",
          "name": "_purpose",
          "type": "uint256"
        },
        {
          "internalType": "uint256",
          "name": "_type",
          "type": "uint256"
        }
      ],
      "name": "addKey",
      "outputs": [
        {
          "internalType": "bool",
          "name": "success",
          "type": "bool"
        }
      ],
      "stateMutability": "nonpayable",
      "type": "function"
    },
    {
      "inputs": [
        {
          "internalType": "uint256",
          "name": "_id",
          "type": "uint256"
        },
        {
          "internalType": "bool",
          "name": "_approve",
          "type": "bool"
        }
      ],
      "name": "approve",
      "outputs": [
        {
          "internalType": "bool",
          "name": "success",
          "type": "bool"
        }
      ],
      "stateMutability": "nonpayable",
      "type": "function"
    },
    {
      "inputs": [
        {
          "internalType": "address",
          "name": "_to",
          "type": "address"
        },
        {
          "internalType": "uint256",
          "name": "_value",
          "type": "uint256"
        },
        {
          "internalType": "bytes",
          "name": "_data",
          "type": "bytes"
        }
      ],
      "name": "execute",
      "outputs": [
        {
          "internalType": "uint256",
          "name": "executionId",
          "type": "uint256"
        }
      ],
      "stateMutability": "nonpayable",
      "type": "function"
    },
    {
      "inputs": [
        {
          "internalType": "bytes32",
          "name": "_key",
          "type": "bytes32"
        }
      ],
      "name": "removeKey",
      "outputs": [
        {
          "internalType": "bool",
          "name": "success",
          "type": "bool"
        }
      ],
      "stateMutability": "nonpayable",
      "type": "function"
    },
    {
      "inputs": [
        {
          "internalType": "bytes32",
          "name": "_key",
          "type": "bytes32"
        },
        {
          "internalType": "uint256",
          "name": "_purpose",
          "type": "uint256"
        }
      ],
      "name": "keyHasPurpose",
      "outputs": [
        {
          "internalType": "bool",
          "name": "result",
          "type": "bool"
        }
      ],
      "stateMutability": "view",
      "type": "function"
    }
  ],
  "bytecode": "0x60806040523480156200001157600080fd5b5060003360405160200162000027919062000132565b6040516020818303038152906040528051906020012090508060016000838152602001908152602001600020600201819055506001806000838152602001908152602001600020600001819055506001806000838152602001908152602001600020600101819055506002600060018152602001908152602001600020819080600181540180825580915050600190039060005260206000200160009091909190915055600180600083815260200190815260200160002060000154827f480000bb1edad8ca1470381cc334b1917fbd51c6531f3a623ea8e0ec7e38a6e960405160405180910390a450620001b8565b6200012c62000126826200014f565b62000183565b82525050565b600062000140828462000117565b60148201915081905092915050565b60006200015c8262000163565b9050919050565b600073ffffffffffffffffffffffffffffffffffffffff82169050919050565b6000620001908262000197565b9050919050565b6000620001a482620001ab565b9050919050565b60008160601b9050919050565b61177080620001c86000396000f3fe608060405234801561001057600080fd5b50600436106100885760003560e01c8063862642f51161005b578063862642f51461014f5780639010f7261461017f578063b61d27f6146101af578063d202158d146101df57610088565b8063032c1a8a1461008d57806312aaac70146100bd5780631d381240146100ef578063747442d31461011f575b600080fd5b6100a760048036038101906100a29190610d5e565b61020f565b6040516100b4919061127a565b60405180910390f35b6100d760048036038101906100d29190610d5e565b61022f565b6040516100e693929190611295565b60405180910390f35b61010960048036038101906101049190610dc3565b610286565b604051610116919061117b565b60405180910390f35b61013960048036038101906101349190610e3b565b61044a565b604051610146919061117b565b60405180910390f35b61016960048036038101906101649190610d5e565b6107d3565b604051610176919061117b565b60405180910390f35b61019960048036038101906101949190610e12565b6108d5565b6040516101a69190611159565b60405180910390f35b6101c960048036038101906101c49190610cf7565b610940565b6040516101d6919061127a565b60405180910390f35b6101f960048036038101906101f49190610d87565b610b43565b604051610206919061117b565b60405180910390f35b600060016000838152602001908152602001600020600001549050919050565b60008060006001600085815260200190815260200160002060000154600160008681526020019081526020016000206001015460016000878152602001908152602001600020600201549250925092509193909250565b600083600160008681526020019081526020016000206002015414156102e1576040517f08c379a00000000000000000000000000000000000000000000000000000000081526004016102d8906111fa565b60405180910390fd5b3073ffffffffffffffffffffffffffffffffffffffff163373ffffffffffffffffffffffffffffffffffffffff161461038557610345336040516020016103289190611127565b604051602081830303815290604052805190602001206001610b43565b610384576040517f08c379a000000000000000000000000000000000000000000000000000000000815260040161037b9061123a565b60405180910390fd5b5b836001600086815260200190815260200160002060020181905550826001600086815260200190815260200160002060000181905550816001600086815260200190815260200160002060010181905550600260008481526020019081526020016000208490806001815401808255809150506001900390600052602060002001600090919091909150558183857f480000bb1edad8ca1470381cc334b1917fbd51c6531f3a623ea8e0ec7e38a6e960405160405180910390a4600190509392505050565b600061047d336040516020016104609190611127565b604051602081830303815290604052805190602001206002610b43565b6104bc576040517f08c379a00000000000000000000000000000000000000000000000000000000081526004016104b3906111da565b60405180910390fd5b827fb3932da477fe5d6c8ff2eafef050c0f3a1af18fc07121001482600f36f3715d8836040516104ec919061117b565b60405180910390a260606001151583151514156107985760016003600086815260200190815260200160002060030160006101000a81548160ff0219169083151502179055506003600085815260200190815260200160002060000160009054906101000a900473ffffffffffffffffffffffffffffffffffffffff1673ffffffffffffffffffffffffffffffffffffffff16600360008681526020019081526020016000206002016040516105a29190611142565b6000604051808303816000865af19150503d80600081146105df576040519150601f19603f3d011682016040523d82523d6000602084013e6105e4565b606091505b50809250819350505081156106dd5760016003600086815260200190815260200160002060030160016101000a81548160ff02191690831515021790555060036000858152602001908152602001600020600101546003600086815260200190815260200160002060000160009054906101000a900473ffffffffffffffffffffffffffffffffffffffff1673ffffffffffffffffffffffffffffffffffffffff16857f1f920dbda597d7bf95035464170fa58d0a4b57f13a1c315ace6793b9f63688b8600360008981526020019081526020016000206002016040516106cb91906111b8565b60405180910390a460019150506107cd565b60036000858152602001908152602001600020600101546003600086815260200190815260200160002060000160009054906101000a900473ffffffffffffffffffffffffffffffffffffffff1673ffffffffffffffffffffffffffffffffffffffff16857fe10c49d9f7c71da23262367013434763cfdb2332267641728d25cd712c5c6a686003600089815260200190815260200160002060020160405161078691906111b8565b60405180910390a460009150506107cd565b60006003600086815260200190815260200160002060030160006101000a81548160ff02191690831515021790555060019150505b92915050565b60008160016000848152602001908152602001600020600201541461082d576040517f08c379a00000000000000000000000000000000000000000000000000000000081526004016108249061125a565b60405180910390fd5b6001600083815260200190815260200160002060010154600160008481526020019081526020016000206000015460016000858152602001908152602001600020600201547f585a4aef50f8267a92b32412b331b20f7f8b96f2245b253b9cc50dcc621d339760405160405180910390a46001600083815260200190815260200160002060008082016000905560018201600090556002820160009055505060019050919050565b60606002600083815260200190815260200160002080548060200260200160405190810160405280929190818152602001828054801561093457602002820191906000526020600020905b815481526020019060010190808311610920575b50505050509050919050565b6000600360008054815260200190815260200160002060030160019054906101000a900460ff16156109a7576040517f08c379a000000000000000000000000000000000000000000000000000000000815260040161099e9061121a565b60405180910390fd5b83600360008054815260200190815260200160002060000160006101000a81548173ffffffffffffffffffffffffffffffffffffffff021916908373ffffffffffffffffffffffffffffffffffffffff160217905550826003600080548152602001908152602001600020600101819055508160036000805481526020019081526020016000206002019080519060200190610a44929190610b98565b50828473ffffffffffffffffffffffffffffffffffffffff166000547f8afcfabcb00e47a53a8fc3e9f23ff47ee1926194bb1350dd007c50b412a6cee885604051610a8f9190611196565b60405180910390a4610ac833604051602001610aab9190611127565b604051602081830303815290604052805190602001206001610b43565b80610b005750610aff33604051602001610ae29190611127565b604051602081830303815290604052805190602001206002610b43565b5b15610b1457610b12600054600161044a565b505b600080815480929190610b26906114d3565b91905055506001600054610b3a91906113a8565b90509392505050565b6000806000801b60016000868152602001908152602001600020600201541415610b71576000915050610b92565b82600160008681526020019081526020016000206000015411159050809150505b92915050565b828054610ba490611470565b90600052602060002090601f016020900481019282610bc65760008555610c0d565b82601f10610bdf57805160ff1916838001178555610c0d565b82800160010185558215610c0d579182015b82811115610c0c578251825591602001919060010190610bf1565b5b509050610c1a9190610c1e565b5090565b5b80821115610c37576000816000905550600101610c1f565b5090565b6000610c4e610c49846112f1565b6112cc565b905082815260208101848484011115610c6657600080fd5b610c7184828561142e565b509392505050565b600081359050610c88816116de565b92915050565b600081359050610c9d816116f5565b92915050565b600081359050610cb28161170c565b92915050565b600082601f830112610cc957600080fd5b8135610cd9848260208601610c3b565b91505092915050565b600081359050610cf181611723565b92915050565b600080600060608486031215610d0c57600080fd5b6000610d1a86828701610c79565b9350506020610d2b86828701610ce2565b925050604084013567ffffffffffffffff811115610d4857600080fd5b610d5486828701610cb8565b9150509250925092565b600060208284031215610d7057600080fd5b6000610d7e84828501610ca3565b91505092915050565b60008060408385031215610d9a57600080fd5b6000610da885828601610ca3565b9250506020610db985828601610ce2565b9150509250929050565b600080600060608486031215610dd857600080fd5b6000610de686828701610ca3565b9350506020610df786828701610ce2565b9250506040610e0886828701610ce2565b9150509250925092565b600060208284031215610e2457600080fd5b6000610e3284828501610ce2565b91505092915050565b60008060408385031215610e4e57600080fd5b6000610e5c85828601610ce2565b9250506020610e6d85828601610c8e565b9150509250929050565b6000610e838383610f13565b60208301905092915050565b610ea0610e9b826113dc565b61151c565b82525050565b6000610eb182611347565b610ebb818561136a565b9350610ec683611322565b8060005b83811015610ef7578151610ede8882610e77565b9750610ee98361135d565b925050600181019050610eca565b5085935050505092915050565b610f0d816113ee565b82525050565b610f1c816113fa565b82525050565b610f2b816113fa565b82525050565b6000610f3c82611352565b610f46818561137b565b9350610f5681856020860161143d565b610f5f816115cd565b840191505092915050565b60008154610f7781611470565b610f81818661137b565b94506001821660008114610f9c5760018114610fae57610fe1565b60ff1983168652602086019350610fe1565b610fb785611332565b60005b83811015610fd957815481890152600182019150602081019050610fba565b808801955050505b50505092915050565b60008154610ff781611470565b611001818661138c565b9450600182166000811461101c576001811461102d57611060565b60ff19831686528186019350611060565b61103685611332565b60005b8381101561105857815481890152600182019150602081019050611039565b838801955050505b50505092915050565b6000611076601f83611397565b9150611081826115eb565b602082019050919050565b6000611099601283611397565b91506110a482611614565b602082019050919050565b60006110bc601083611397565b91506110c78261163d565b602082019050919050565b60006110df602383611397565b91506110ea82611666565b604082019050919050565b6000611102600b83611397565b915061110d826116b5565b602082019050919050565b61112181611424565b82525050565b60006111338284610e8f565b60148201915081905092915050565b600061114e8284610fea565b915081905092915050565b600060208201905081810360008301526111738184610ea6565b905092915050565b60006020820190506111906000830184610f04565b92915050565b600060208201905081810360008301526111b08184610f31565b905092915050565b600060208201905081810360008301526111d28184610f6a565b905092915050565b600060208201905081810360008301526111f381611069565b9050919050565b600060208201905081810360008301526112138161108c565b9050919050565b60006020820190508181036000830152611233816110af565b9050919050565b60006020820190508181036000830152611253816110d2565b9050919050565b60006020820190508181036000830152611273816110f5565b9050919050565b600060208201905061128f6000830184611118565b92915050565b60006060820190506112aa6000830186611118565b6112b76020830185611118565b6112c46040830184610f22565b949350505050565b60006112d66112e7565b90506112e282826114a2565b919050565b6000604051905090565b600067ffffffffffffffff82111561130c5761130b61159e565b5b611315826115cd565b9050602081019050919050565b6000819050602082019050919050565b60008190508160005260206000209050919050565b600081519050919050565b600081519050919050565b6000602082019050919050565b600082825260208201905092915050565b600082825260208201905092915050565b600081905092915050565b600082825260208201905092915050565b60006113b382611424565b91506113be83611424565b9250828210156113d1576113d0611540565b5b828203905092915050565b60006113e782611404565b9050919050565b60008115159050919050565b6000819050919050565b600073ffffffffffffffffffffffffffffffffffffffff82169050919050565b6000819050919050565b82818337600083830152505050565b60005b8381101561145b578082015181840152602081019050611440565b8381111561146a576000848401525b50505050565b6000600282049050600182168061148857607f821691505b6020821081141561149c5761149b61156f565b5b50919050565b6114ab826115cd565b810181811067ffffffffffffffff821117156114ca576114c961159e565b5b80604052505050565b60006114de82611424565b91507fffffffffffffffffffffffffffffffffffffffffffffffffffffffffffffffff82141561151157611510611540565b5b600182019050919050565b60006115278261152e565b9050919050565b6000611539826115de565b9050919050565b7f4e487b7100000000000000000000000000000000000000000000000000000000600052601160045260246000fd5b7f4e487b7100000000000000000000000000000000000000000000000000000000600052602260045260246000fd5b7f4e487b7100000000000000000000000000000000000000000000000000000000600052604160045260246000fd5b6000601f19601f8301169050919050565b60008160601b9050919050565b7f53656e64657220646f6573206e6f74206861766520616374696f6e206b657900600082015250565b7f4b657920616c7265616479206578697374730000000000000000000000000000600082015250565b7f416c726561647920657865637574656400000000000000000000000000000000600082015250565b7f53656e64657220646f6573206e6f742068617665206d616e6167656d656e742060008201527f6b65790000000000000000000000000000000000000000000000000000000000602082015250565b7f4e6f2073756368206b6579000000000000000000000000000000000000000000600082015250565b6116e7816113dc565b81146116f257600080fd5b50565b6116fe816113ee565b811461170957600080fd5b50565b611715816113fa565b811461172057600080fd5b50565b61172c81611424565b811461173757600080fd5b5056fea264697066735822122095fa0c3a294c73b22d1164a5d79eee0ef9889aa181681c513ba1d5465c27b28164736f6c63430008010033",
  "immutableReferences": {},
  "source": "// SPDX-License-Identifier: MIT\r\npragma solidity >=0.4.22 <0.9.0;\r\n\r\nimport './ERC734.sol';\r\n\r\n// **Warning!** This file is a protoype version of our work around ERC 725.\r\n// This file is now out of date and **should not be used**.\r\n// Our current identity contracts are here:\r\n// https://github.com/OriginProtocol/origin/tree/master/origin-contracts/contracts/identity\r\n\r\ncontract KeyHolder is ERC734 {\r\n\r\n    uint256 executionNonce;\r\n\r\n    struct Execution {\r\n        address to;\r\n        uint256 value;\r\n        bytes data;\r\n        bool approved;\r\n        bool executed;\r\n    }\r\n\r\n    mapping (bytes32 => Key) keys;\r\n    mapping (uint256 => bytes32[]) keysByPurpose;\r\n    mapping (uint256 => Execution) executions;\r\n\r\n    modifier onlyIssuer {\r\n        require(\r\n            keys[keccak256(abi.encodePacked(msg.sender))].purpose == ISSUER_KEY, \r\n            \"Sender not issuer\"\r\n        );\r\n        _;\r\n    }\r\n\r\n    modifier onlyRP {\r\n        require(\r\n            keys[keccak256(abi.encodePacked(msg.sender))].purpose == RP_KEY, \r\n            \"Sender not third party\"\r\n        );\r\n        _;\r\n    }\r\n\r\n    event ExecutionFailed(uint256 indexed executionId, address indexed to, uint256 indexed value, bytes data);\r\n\r\n    constructor() {\r\n        bytes32 _key = keccak256(abi.encodePacked(msg.sender)); //_key sender address\r\n        keys[_key].key = _key;\r\n        keys[_key].purpose = 1;\r\n        keys[_key].keyType = 1;\r\n        keysByPurpose[1].push(_key);\r\n        emit KeyAdded(_key, keys[_key].purpose, 1);\r\n    }\r\n\r\n    function getKey(bytes32 _key)public view override returns(uint256 purpose, uint256 keyType, bytes32 key){\r\n        return (keys[_key].purpose, keys[_key].keyType, keys[_key].key);\r\n    }\r\n\r\n    function getKeyPurpose(bytes32 _key) public view override returns(uint256 purpose){\r\n        return (keys[_key].purpose);\r\n    }\r\n\r\n    function getKeysByPurpose(uint256 _purpose)public view override returns(bytes32[] memory _keys){\r\n        return keysByPurpose[_purpose];\r\n    }\r\n\r\n    function addKey(bytes32 _key, uint256 _purpose, uint256 _type)public override returns (bool success){\r\n        require(keys[_key].key != _key, \"Key already exists\"); // Key should not already exist\r\n        if (msg.sender != address(this)) {\r\n          require(keyHasPurpose(keccak256(abi.encodePacked(msg.sender)), 1), \"Sender does not have management key\"); // Sender has MANAGEMENT_KEY\r\n        }\r\n\r\n        keys[_key].key = _key;\r\n        keys[_key].purpose = _purpose;\r\n        keys[_key].keyType = _type;\r\n\r\n        keysByPurpose[_purpose].push(_key);\r\n\r\n        emit KeyAdded(_key, _purpose, _type);\r\n\r\n        return true;\r\n    }\r\n\r\n    function approve(uint256 _id, bool _approve)public override returns (bool success){\r\n        require(keyHasPurpose(keccak256(abi.encodePacked(msg.sender)), 2), \"Sender does not have action key\");\r\n    \r\n        emit Approved(_id, _approve);\r\n        bytes memory data;\r\n        if (_approve == true) {\r\n            executions[_id].approved = true;\r\n            (success, data) = executions[_id].to.call(executions[_id].data);\r\n            if (success) {\r\n                executions[_id].executed = true;\r\n                emit Executed(\r\n                    _id,\r\n                    executions[_id].to,\r\n                    executions[_id].value,\r\n                    executions[_id].data\r\n                );\r\n                return true;\r\n            } else {\r\n                emit ExecutionFailed(\r\n                    _id,\r\n                    executions[_id].to,\r\n                    executions[_id].value,\r\n                    executions[_id].data\r\n                );\r\n                return false;\r\n            }\r\n        } else {\r\n            executions[_id].approved = false;\r\n        }\r\n        return true;\r\n    }\r\n\r\n    function execute(address _to, uint256 _value, bytes memory _data)\r\n        public override\r\n        returns (uint256 executionId)\r\n    {\r\n        require(!executions[executionNonce].executed, \"Already executed\");\r\n        executions[executionNonce].to = _to;\r\n        executions[executionNonce].value = _value;\r\n        executions[executionNonce].data = _data;\r\n\r\n        emit ExecutionRequested(executionNonce, _to, _value, _data);\r\n\r\n        if (keyHasPurpose(keccak256(abi.encodePacked(msg.sender)),1) || keyHasPurpose(keccak256(abi.encodePacked(msg.sender)),2)) {\r\n            approve(executionNonce, true);\r\n        }\r\n\r\n        executionNonce++;\r\n        return executionNonce-1;\r\n    }\r\n\r\n    function removeKey(bytes32 _key)\r\n        public\r\n        returns (bool success)\r\n    {\r\n        require(keys[_key].key == _key, \"No such key\");\r\n        emit KeyRemoved(keys[_key].key, keys[_key].purpose, keys[_key].keyType);\r\n\r\n        /* uint index;\r\n        (index,) = keysByPurpose[keys[_key].purpose.indexOf(_key);\r\n        keysByPurpose[keys[_key].purpose.removeByIndex(index); */\r\n\r\n        delete keys[_key];\r\n\r\n        return true;\r\n    }\r\n\r\n    function keyHasPurpose(bytes32 _key, uint256 _purpose) public view returns(bool result){\r\n        bool isThere;\r\n        if (keys[_key].key == 0) return false;\r\n        isThere = keys[_key].purpose <= _purpose;\r\n        return isThere;\r\n    }\r\n\r\n}",
  "sourcePath": "C:/workspace/rpModule/blockchain/contracts/KeyHolder.sol",
  "compiler": {
    "name": "solc",
    "version": "0.8.1+commit.df193b15.Emscripten.clang"
  },
  "schemaVersion": "3.3.4",
  "updatedAt": "2021-09-29T09:48:44.803Z",
  "devdoc": {
    "kind": "dev",
    "methods": {},
    "version": 1
  },
  "userdoc": {
    "kind": "user",
    "methods": {},
    "version": 1
  }
}