{
  "contractName": "VerifySignature",
  "abi": [
    {
      "inputs": [
        {
          "internalType": "address",
          "name": "_holder",
          "type": "address"
        },
        {
          "internalType": "uint256",
          "name": "_claimType",
          "type": "uint256"
        },
        {
          "internalType": "bytes",
          "name": "_data",
          "type": "bytes"
        }
      ],
      "name": "getMessageHash",
      "outputs": [
        {
          "internalType": "bytes32",
          "name": "",
          "type": "bytes32"
        }
      ],
      "stateMutability": "pure",
      "type": "function"
    },
    {
      "inputs": [
        {
          "internalType": "bytes32",
          "name": "_messageHash",
          "type": "bytes32"
        }
      ],
      "name": "getEthSignedMessageHash",
      "outputs": [
        {
          "internalType": "bytes32",
          "name": "",
          "type": "bytes32"
        }
      ],
      "stateMutability": "pure",
      "type": "function"
    },
    {
      "inputs": [
        {
          "internalType": "address",
          "name": "_holder",
          "type": "address"
        },
        {
          "internalType": "uint256",
          "name": "_claimType",
          "type": "uint256"
        },
        {
          "internalType": "bytes",
          "name": "_data",
          "type": "bytes"
        }
      ],
      "name": "sign",
      "outputs": [
        {
          "internalType": "bytes32",
          "name": "",
          "type": "bytes32"
        }
      ],
      "stateMutability": "pure",
      "type": "function"
    },
    {
      "inputs": [
        {
          "internalType": "address",
          "name": "_issuer",
          "type": "address"
        },
        {
          "internalType": "address",
          "name": "_holder",
          "type": "address"
        },
        {
          "internalType": "uint256",
          "name": "_claimType",
          "type": "uint256"
        },
        {
          "internalType": "bytes",
          "name": "_data",
          "type": "bytes"
        },
        {
          "internalType": "bytes",
          "name": "_signature",
          "type": "bytes"
        }
      ],
      "name": "verify",
      "outputs": [
        {
          "internalType": "bool",
          "name": "",
          "type": "bool"
        }
      ],
      "stateMutability": "pure",
      "type": "function"
    },
    {
      "inputs": [
        {
          "internalType": "bytes32",
          "name": "_ethSignedMessageHash",
          "type": "bytes32"
        },
        {
          "internalType": "bytes",
          "name": "_signature",
          "type": "bytes"
        }
      ],
      "name": "recoverSigner",
      "outputs": [
        {
          "internalType": "address",
          "name": "",
          "type": "address"
        }
      ],
      "stateMutability": "pure",
      "type": "function"
    },
    {
      "inputs": [
        {
          "internalType": "bytes",
          "name": "sig",
          "type": "bytes"
        }
      ],
      "name": "splitSignature",
      "outputs": [
        {
          "internalType": "bytes32",
          "name": "r",
          "type": "bytes32"
        },
        {
          "internalType": "bytes32",
          "name": "s",
          "type": "bytes32"
        },
        {
          "internalType": "uint8",
          "name": "v",
          "type": "uint8"
        }
      ],
      "stateMutability": "pure",
      "type": "function"
    }
  ],
  "bytecode": "0x608060405234801561001057600080fd5b50610aa9806100206000396000f3fe608060405234801561001057600080fd5b50600436106100625760003560e01c806397aba7f9146100675780639d2e3fc314610097578063a7bb5803146100c7578063edd5c241146100f9578063f19a903914610129578063fa54080114610159575b600080fd5b610081600480360381019061007c9190610524565b610189565b60405161008e9190610710565b60405180910390f35b6100b160048036038101906100ac91906103ed565b6101f8565b6040516100be919061072b565b60405180910390f35b6100e160048036038101906100dc9190610578565b61025a565b6040516100f093929190610761565b60405180910390f35b610113600480360381019061010e9190610494565b6102c2565b6040516101209190610746565b60405180910390f35b610143600480360381019061013e9190610494565b6102f8565b6040516101509190610746565b60405180910390f35b610173600480360381019061016e91906104fb565b610316565b6040516101809190610746565b60405180910390f35b6000806000806101988561025a565b925092509250600186828585604051600081526020016040526040516101c19493929190610798565b6020604051602081039080840390855afa1580156101e3573d6000803e3d6000fd5b50505060206040510351935050505092915050565b6000806102068686866102c2565b9050600061021382610316565b90508773ffffffffffffffffffffffffffffffffffffffff166102368286610189565b73ffffffffffffffffffffffffffffffffffffffff16149250505095945050505050565b600080600060418451146102a3576040517f08c379a000000000000000000000000000000000000000000000000000000000815260040161029a906107dd565b60405180910390fd5b6020840151925060408401519150606084015160001a90509193909250565b60008383836040516020016102d9939291906106b1565b6040516020818303038152906040528051906020012090509392505050565b600061030d6103088585856102c2565b610316565b90509392505050565b60008160405160200161032991906106ea565b604051602081830303815290604052805190602001209050919050565b600061035961035484610822565b6107fd565b90508281526020810184848401111561037157600080fd5b61037c8482856108e4565b509392505050565b60008135905061039381610a2e565b92915050565b6000813590506103a881610a45565b92915050565b600082601f8301126103bf57600080fd5b81356103cf848260208601610346565b91505092915050565b6000813590506103e781610a5c565b92915050565b600080600080600060a0868803121561040557600080fd5b600061041388828901610384565b955050602061042488828901610384565b9450506040610435888289016103d8565b935050606086013567ffffffffffffffff81111561045257600080fd5b61045e888289016103ae565b925050608086013567ffffffffffffffff81111561047b57600080fd5b610487888289016103ae565b9150509295509295909350565b6000806000606084860312156104a957600080fd5b60006104b786828701610384565b93505060206104c8868287016103d8565b925050604084013567ffffffffffffffff8111156104e557600080fd5b6104f1868287016103ae565b9150509250925092565b60006020828403121561050d57600080fd5b600061051b84828501610399565b91505092915050565b6000806040838503121561053757600080fd5b600061054585828601610399565b925050602083013567ffffffffffffffff81111561056257600080fd5b61056e858286016103ae565b9150509250929050565b60006020828403121561058a57600080fd5b600082013567ffffffffffffffff8111156105a457600080fd5b6105b0848285016103ae565b91505092915050565b6105c281610885565b82525050565b6105d96105d482610885565b610957565b82525050565b6105e881610897565b82525050565b6105f7816108a3565b82525050565b61060e610609826108a3565b610969565b82525050565b600061061f82610853565b610629818561085e565b93506106398185602086016108f3565b80840191505092915050565b6000610652601c8361087a565b915061065d826109dc565b601c82019050919050565b6000610675601883610869565b915061068082610a05565b602082019050919050565b61069c610697826108cd565b610985565b82525050565b6106ab816108d7565b82525050565b60006106bd82866105c8565b6014820191506106cd828561068b565b6020820191506106dd8284610614565b9150819050949350505050565b60006106f582610645565b915061070182846105fd565b60208201915081905092915050565b600060208201905061072560008301846105b9565b92915050565b600060208201905061074060008301846105df565b92915050565b600060208201905061075b60008301846105ee565b92915050565b600060608201905061077660008301866105ee565b61078360208301856105ee565b61079060408301846106a2565b949350505050565b60006080820190506107ad60008301876105ee565b6107ba60208301866106a2565b6107c760408301856105ee565b6107d460608301846105ee565b95945050505050565b600060208201905081810360008301526107f681610668565b9050919050565b6000610807610818565b90506108138282610926565b919050565b6000604051905090565b600067ffffffffffffffff82111561083d5761083c61098f565b5b610846826109be565b9050602081019050919050565b600081519050919050565b600081905092915050565b600082825260208201905092915050565b600081905092915050565b6000610890826108ad565b9050919050565b60008115159050919050565b6000819050919050565b600073ffffffffffffffffffffffffffffffffffffffff82169050919050565b6000819050919050565b600060ff82169050919050565b82818337600083830152505050565b60005b838110156109115780820151818401526020810190506108f6565b83811115610920576000848401525b50505050565b61092f826109be565b810181811067ffffffffffffffff8211171561094e5761094d61098f565b5b80604052505050565b600061096282610973565b9050919050565b6000819050919050565b600061097e826109cf565b9050919050565b6000819050919050565b7f4e487b7100000000000000000000000000000000000000000000000000000000600052604160045260246000fd5b6000601f19601f8301169050919050565b60008160601b9050919050565b7f19457468657265756d205369676e6564204d6573736167653a0a333200000000600082015250565b7f696e76616c6964207369676e6174757265206c656e6774680000000000000000600082015250565b610a3781610885565b8114610a4257600080fd5b50565b610a4e816108a3565b8114610a5957600080fd5b50565b610a65816108cd565b8114610a7057600080fd5b5056fea2646970667358221220c76f8a8668f22c55f6f694399fe6c56d8f180b042f3bbd93e0fb943f0cb4227664736f6c63430008010033",
  "immutableReferences": {},
  "source": "// SPDX-License-Identifier: MIT\r\npragma solidity >=0.4.22 <0.9.0;\r\n\r\n/* Signature Verification\r\n\r\nHow to Sign and Verify\r\n# Signing\r\n1. Create message to sign\r\n2. Hash the message\r\n3. Sign the hash (off chain, keep your private key secret)\r\n\r\n# Verify\r\n1. Recreate hash from the original message\r\n2. Recover signer from signature and hash\r\n3. Compare recovered signer to claimed signer\r\n*/\r\n\r\ncontract VerifySignature {\r\n    /* 1. Unlock MetaMask account\r\n    ethereum.enable()\r\n    */\r\n\r\n    /* 2. Get message hash to sign\r\n    getMessageHash(\r\n        0x14723A09ACff6D2A60DcdF7aA4AFf308FDDC160C,\r\n        123,\r\n        \"coffee and donuts\",\r\n        1\r\n    )\r\n\r\n    hash = \"0xcf36ac4f97dc10d91fc2cbb20d718e94a8cbfe0f82eaedc6a4aa38946fb797cd\"\r\n    */\r\n\r\n    function getMessageHash(\r\n        address _holder,\r\n        uint256 _claimType,\r\n        bytes memory _data\r\n    ) public pure returns (bytes32) {\r\n        return keccak256(abi.encodePacked(_holder, _claimType, _data));\r\n    }\r\n\r\n    /* 3. Sign message hash\r\n    # using browser\r\n    account = \"copy paste account of signer here\"\r\n    ethereum.request({ method: \"personal_sign\", params: [account, hash]}).then(console.log)\r\n\r\n    # using web3\r\n    web3.personal.sign(hash, web3.eth.defaultAccount, console.log)\r\n\r\n    Signature will be different for different accounts\r\n    0x993dab3dd91f5c6dc28e17439be475478f5635c92a56e17e82349d3fb2f166196f466c0b4e0c146f285204f0dcb13e5ae67bc33f4b888ec32dfe0a063e8f3f781b\r\n    */\r\n    function getEthSignedMessageHash(bytes32 _messageHash)\r\n        public\r\n        pure\r\n        returns (bytes32)\r\n    {\r\n        /*\r\n        Signature is produced by signing a keccak256 hash with the following format:\r\n        \"\\x19Ethereum Signed Message\\n\" + len(msg) + msg\r\n        */\r\n        return\r\n            keccak256(\r\n                abi.encodePacked(\"\\x19Ethereum Signed Message:\\n32\", _messageHash)\r\n            );\r\n    }\r\n\r\n    function sign(\r\n        address _holder,\r\n        uint256 _claimType,\r\n        bytes memory _data\r\n    ) public pure returns (bytes32) {\r\n        return getEthSignedMessageHash(getMessageHash(_holder, _claimType, _data));\r\n    }\r\n    \r\n    /* 4. Verify signature\r\n    signer = 0xB273216C05A8c0D4F0a4Dd0d7Bae1D2EfFE636dd\r\n    to = 0x14723A09ACff6D2A60DcdF7aA4AFf308FDDC160C\r\n    amount = 123\r\n    message = \"coffee and donuts\"\r\n    nonce = 1\r\n    signature =\r\n        0x993dab3dd91f5c6dc28e17439be475478f5635c92a56e17e82349d3fb2f166196f466c0b4e0c146f285204f0dcb13e5ae67bc33f4b888ec32dfe0a063e8f3f781b\r\n    */\r\n    function verify(\r\n        address _issuer,\r\n        address _holder,\r\n        uint256 _claimType,\r\n        bytes memory _data,\r\n        bytes memory _signature\r\n    ) public pure returns (bool) {\r\n        bytes32 messageHash = getMessageHash(_holder, _claimType, _data);\r\n        bytes32 ethSignedMessageHash = getEthSignedMessageHash(messageHash);\r\n        return recoverSigner(ethSignedMessageHash, _signature) == _issuer;\r\n    }\r\n\r\n    function recoverSigner(bytes32 _ethSignedMessageHash, bytes memory _signature)\r\n        public\r\n        pure\r\n        returns (address)\r\n    {\r\n        (bytes32 r, bytes32 s, uint8 v) = splitSignature(_signature);\r\n\r\n        return ecrecover(_ethSignedMessageHash, v, r, s);\r\n    }\r\n\r\n    function splitSignature(bytes memory sig)\r\n        public\r\n        pure\r\n        returns (\r\n            bytes32 r,\r\n            bytes32 s,\r\n            uint8 v\r\n        )\r\n    {\r\n        require(sig.length == 65, \"invalid signature length\");\r\n\r\n        assembly {\r\n            /*\r\n            First 32 bytes stores the length of the signature\r\n\r\n            add(sig, 32) = pointer of sig + 32\r\n            effectively, skips first 32 bytes of signature\r\n\r\n            mload(p) loads next 32 bytes starting at the memory address p into memory\r\n            */\r\n\r\n            // first 32 bytes, after the length prefix\r\n            r := mload(add(sig, 32))\r\n            // second 32 bytes\r\n            s := mload(add(sig, 64))\r\n            // final byte (first byte of the next 32 bytes)\r\n            v := byte(0, mload(add(sig, 96)))\r\n        }\r\n\r\n        // implicitly return (r, s, v)\r\n    }\r\n}\r\n",
  "sourcePath": "D:\\XAMPP\\htdocs\\rpModule\\blockchain\\contracts\\VerifySignature.sol",
  "compiler": {
    "name": "solc",
    "version": "0.8.1+commit.df193b15.Emscripten.clang"
  },
  "schemaVersion": "3.4.3",
  "updatedAt": "2022-01-27T13:42:54.650Z",
  "devdoc": {
    "kind": "dev",
    "methods": {},
    "version": 1
  },
  "userdoc": {
    "kind": "user",
    "methods": {},
    "version": 1
  }
}