{
  "contractName": "xClaimHolder",
  "abi": [
    {
      "anonymous": false,
      "inputs": [
        {
          "indexed": true,
          "internalType": "uint256",
          "name": "executionId",
          "type": "uint256"
        },
        {
          "indexed": false,
          "internalType": "bool",
          "name": "approved",
          "type": "bool"
        }
      ],
      "name": "Approved",
      "type": "event"
    },
    {
      "anonymous": false,
      "inputs": [
        {
          "indexed": true,
          "internalType": "bytes32",
          "name": "claimId",
          "type": "bytes32"
        },
        {
          "indexed": true,
          "internalType": "uint256",
          "name": "claimType",
          "type": "uint256"
        },
        {
          "indexed": true,
          "internalType": "address",
          "name": "issuer",
          "type": "address"
        },
        {
          "indexed": false,
          "internalType": "uint256",
          "name": "signatureType",
          "type": "uint256"
        },
        {
          "indexed": false,
          "internalType": "bytes32",
          "name": "signature",
          "type": "bytes32"
        },
        {
          "indexed": false,
          "internalType": "bytes",
          "name": "claim",
          "type": "bytes"
        },
        {
          "indexed": false,
          "internalType": "string",
          "name": "uri",
          "type": "string"
        }
      ],
      "name": "ClaimAdded",
      "type": "event"
    },
    {
      "anonymous": false,
      "inputs": [
        {
          "indexed": true,
          "internalType": "bytes32",
          "name": "claimId",
          "type": "bytes32"
        },
        {
          "indexed": true,
          "internalType": "uint256",
          "name": "claimType",
          "type": "uint256"
        },
        {
          "indexed": false,
          "internalType": "uint256",
          "name": "scheme",
          "type": "uint256"
        },
        {
          "indexed": true,
          "internalType": "address",
          "name": "issuer",
          "type": "address"
        },
        {
          "indexed": false,
          "internalType": "bytes",
          "name": "signature",
          "type": "bytes"
        },
        {
          "indexed": false,
          "internalType": "bytes",
          "name": "data",
          "type": "bytes"
        },
        {
          "indexed": false,
          "internalType": "string",
          "name": "uri",
          "type": "string"
        }
      ],
      "name": "ClaimAdded",
      "type": "event"
    },
    {
      "anonymous": false,
      "inputs": [
        {
          "indexed": true,
          "internalType": "bytes32",
          "name": "claimId",
          "type": "bytes32"
        },
        {
          "indexed": true,
          "internalType": "uint256",
          "name": "claimType",
          "type": "uint256"
        },
        {
          "indexed": false,
          "internalType": "uint256",
          "name": "scheme",
          "type": "uint256"
        },
        {
          "indexed": true,
          "internalType": "address",
          "name": "issuer",
          "type": "address"
        },
        {
          "indexed": false,
          "internalType": "bytes",
          "name": "signature",
          "type": "bytes"
        },
        {
          "indexed": false,
          "internalType": "bytes",
          "name": "data",
          "type": "bytes"
        },
        {
          "indexed": false,
          "internalType": "string",
          "name": "uri",
          "type": "string"
        }
      ],
      "name": "ClaimChanged",
      "type": "event"
    },
    {
      "anonymous": false,
      "inputs": [
        {
          "indexed": true,
          "internalType": "bytes32",
          "name": "claimId",
          "type": "bytes32"
        },
        {
          "indexed": true,
          "internalType": "uint256",
          "name": "claimType",
          "type": "uint256"
        },
        {
          "indexed": false,
          "internalType": "uint256",
          "name": "scheme",
          "type": "uint256"
        },
        {
          "indexed": true,
          "internalType": "address",
          "name": "issuer",
          "type": "address"
        },
        {
          "indexed": false,
          "internalType": "bytes",
          "name": "signature",
          "type": "bytes"
        },
        {
          "indexed": false,
          "internalType": "bytes",
          "name": "data",
          "type": "bytes"
        },
        {
          "indexed": false,
          "internalType": "string",
          "name": "uri",
          "type": "string"
        }
      ],
      "name": "ClaimRemoved",
      "type": "event"
    },
    {
      "anonymous": false,
      "inputs": [
        {
          "indexed": true,
          "internalType": "uint256",
          "name": "claimRequestId",
          "type": "uint256"
        },
        {
          "indexed": true,
          "internalType": "uint256",
          "name": "claimType",
          "type": "uint256"
        },
        {
          "indexed": false,
          "internalType": "uint256",
          "name": "scheme",
          "type": "uint256"
        },
        {
          "indexed": true,
          "internalType": "address",
          "name": "issuer",
          "type": "address"
        },
        {
          "indexed": false,
          "internalType": "bytes",
          "name": "signature",
          "type": "bytes"
        },
        {
          "indexed": false,
          "internalType": "bytes",
          "name": "data",
          "type": "bytes"
        },
        {
          "indexed": false,
          "internalType": "string",
          "name": "uri",
          "type": "string"
        }
      ],
      "name": "ClaimRequested",
      "type": "event"
    },
    {
      "anonymous": false,
      "inputs": [
        {
          "indexed": true,
          "internalType": "uint256",
          "name": "executionId",
          "type": "uint256"
        },
        {
          "indexed": true,
          "internalType": "address",
          "name": "to",
          "type": "address"
        },
        {
          "indexed": true,
          "internalType": "uint256",
          "name": "value",
          "type": "uint256"
        },
        {
          "indexed": false,
          "internalType": "bytes",
          "name": "data",
          "type": "bytes"
        }
      ],
      "name": "Executed",
      "type": "event"
    },
    {
      "anonymous": false,
      "inputs": [
        {
          "indexed": true,
          "internalType": "uint256",
          "name": "executionId",
          "type": "uint256"
        },
        {
          "indexed": true,
          "internalType": "address",
          "name": "to",
          "type": "address"
        },
        {
          "indexed": true,
          "internalType": "uint256",
          "name": "value",
          "type": "uint256"
        },
        {
          "indexed": false,
          "internalType": "bytes",
          "name": "data",
          "type": "bytes"
        }
      ],
      "name": "ExecutionFailed",
      "type": "event"
    },
    {
      "anonymous": false,
      "inputs": [
        {
          "indexed": true,
          "internalType": "uint256",
          "name": "executionId",
          "type": "uint256"
        },
        {
          "indexed": true,
          "internalType": "address",
          "name": "to",
          "type": "address"
        },
        {
          "indexed": true,
          "internalType": "uint256",
          "name": "value",
          "type": "uint256"
        },
        {
          "indexed": false,
          "internalType": "bytes",
          "name": "data",
          "type": "bytes"
        }
      ],
      "name": "ExecutionRequested",
      "type": "event"
    },
    {
      "anonymous": false,
      "inputs": [
        {
          "indexed": true,
          "internalType": "bytes32",
          "name": "key",
          "type": "bytes32"
        },
        {
          "indexed": true,
          "internalType": "uint256",
          "name": "purpose",
          "type": "uint256"
        },
        {
          "indexed": true,
          "internalType": "uint256",
          "name": "keyType",
          "type": "uint256"
        }
      ],
      "name": "KeyAdded",
      "type": "event"
    },
    {
      "anonymous": false,
      "inputs": [
        {
          "indexed": true,
          "internalType": "bytes32",
          "name": "key",
          "type": "bytes32"
        },
        {
          "indexed": true,
          "internalType": "uint256",
          "name": "purpose",
          "type": "uint256"
        },
        {
          "indexed": true,
          "internalType": "uint256",
          "name": "keyType",
          "type": "uint256"
        }
      ],
      "name": "KeyRemoved",
      "type": "event"
    },
    {
      "inputs": [
        {
          "internalType": "bytes32",
          "name": "_key",
          "type": "bytes32"
        },
        {
          "internalType": "uint256",
          "name": "_purpose",
          "type": "uint256"
        },
        {
          "internalType": "uint256",
          "name": "_type",
          "type": "uint256"
        }
      ],
      "name": "addKey",
      "outputs": [
        {
          "internalType": "bool",
          "name": "success",
          "type": "bool"
        }
      ],
      "stateMutability": "nonpayable",
      "type": "function"
    },
    {
      "inputs": [
        {
          "internalType": "uint256",
          "name": "_id",
          "type": "uint256"
        },
        {
          "internalType": "bool",
          "name": "_approve",
          "type": "bool"
        }
      ],
      "name": "approve",
      "outputs": [
        {
          "internalType": "bool",
          "name": "success",
          "type": "bool"
        }
      ],
      "stateMutability": "nonpayable",
      "type": "function"
    },
    {
      "inputs": [
        {
          "internalType": "address",
          "name": "_to",
          "type": "address"
        },
        {
          "internalType": "uint256",
          "name": "_value",
          "type": "uint256"
        },
        {
          "internalType": "bytes",
          "name": "_data",
          "type": "bytes"
        }
      ],
      "name": "execute",
      "outputs": [
        {
          "internalType": "uint256",
          "name": "executionId",
          "type": "uint256"
        }
      ],
      "stateMutability": "nonpayable",
      "type": "function"
    },
    {
      "inputs": [
        {
          "internalType": "bytes32",
          "name": "_key",
          "type": "bytes32"
        }
      ],
      "name": "getKey",
      "outputs": [
        {
          "internalType": "uint256",
          "name": "purpose",
          "type": "uint256"
        },
        {
          "internalType": "uint256",
          "name": "keyType",
          "type": "uint256"
        },
        {
          "internalType": "bytes32",
          "name": "key",
          "type": "bytes32"
        }
      ],
      "stateMutability": "view",
      "type": "function"
    },
    {
      "inputs": [
        {
          "internalType": "bytes32",
          "name": "_key",
          "type": "bytes32"
        }
      ],
      "name": "getKeyPurpose",
      "outputs": [
        {
          "internalType": "uint256",
          "name": "purpose",
          "type": "uint256"
        }
      ],
      "stateMutability": "view",
      "type": "function"
    },
    {
      "inputs": [
        {
          "internalType": "uint256",
          "name": "_purpose",
          "type": "uint256"
        }
      ],
      "name": "getKeysByPurpose",
      "outputs": [
        {
          "internalType": "bytes32[]",
          "name": "_keys",
          "type": "bytes32[]"
        }
      ],
      "stateMutability": "view",
      "type": "function"
    },
    {
      "inputs": [
        {
          "internalType": "bytes32",
          "name": "_key",
          "type": "bytes32"
        },
        {
          "internalType": "uint256",
          "name": "_purpose",
          "type": "uint256"
        }
      ],
      "name": "keyHasPurpose",
      "outputs": [
        {
          "internalType": "bool",
          "name": "result",
          "type": "bool"
        }
      ],
      "stateMutability": "view",
      "type": "function"
    },
    {
      "inputs": [
        {
          "internalType": "bytes32",
          "name": "_key",
          "type": "bytes32"
        }
      ],
      "name": "removeKey",
      "outputs": [
        {
          "internalType": "bool",
          "name": "success",
          "type": "bool"
        }
      ],
      "stateMutability": "nonpayable",
      "type": "function"
    },
    {
      "inputs": [
        {
          "internalType": "bytes32",
          "name": "claimID",
          "type": "bytes32"
        }
      ],
      "name": "getClaims",
      "outputs": [
        {
          "components": [
            {
              "internalType": "uint256",
              "name": "claimType",
              "type": "uint256"
            },
            {
              "internalType": "uint256",
              "name": "scheme",
              "type": "uint256"
            },
            {
              "internalType": "address",
              "name": "issuer",
              "type": "address"
            },
            {
              "internalType": "bytes",
              "name": "signature",
              "type": "bytes"
            },
            {
              "internalType": "bytes",
              "name": "data",
              "type": "bytes"
            },
            {
              "internalType": "string",
              "name": "uri",
              "type": "string"
            }
          ],
          "internalType": "struct xERC735.Claim",
          "name": "",
          "type": "tuple"
        }
      ],
      "stateMutability": "view",
      "type": "function"
    },
    {
      "inputs": [
        {
          "internalType": "uint256",
          "name": "_claimType",
          "type": "uint256"
        },
        {
          "internalType": "uint256",
          "name": "_scheme",
          "type": "uint256"
        },
        {
          "internalType": "address",
          "name": "_issuer",
          "type": "address"
        },
        {
          "internalType": "bytes",
          "name": "_signature",
          "type": "bytes"
        },
        {
          "internalType": "bytes",
          "name": "_data",
          "type": "bytes"
        },
        {
          "internalType": "string",
          "name": "_uri",
          "type": "string"
        }
      ],
      "name": "addClaim",
      "outputs": [
        {
          "internalType": "bytes32",
          "name": "claimRequestId",
          "type": "bytes32"
        }
      ],
      "stateMutability": "nonpayable",
      "type": "function"
    },
    {
      "inputs": [
        {
          "internalType": "bytes32",
          "name": "_claimId",
          "type": "bytes32"
        }
      ],
      "name": "removeClaim",
      "outputs": [
        {
          "internalType": "bool",
          "name": "success",
          "type": "bool"
        }
      ],
      "stateMutability": "nonpayable",
      "type": "function"
    },
    {
      "inputs": [
        {
          "internalType": "bytes32",
          "name": "_claimId",
          "type": "bytes32"
        }
      ],
      "name": "getClaim",
      "outputs": [
        {
          "internalType": "uint256",
          "name": "claimType",
          "type": "uint256"
        },
        {
          "internalType": "uint256",
          "name": "scheme",
          "type": "uint256"
        },
        {
          "internalType": "address",
          "name": "issuer",
          "type": "address"
        },
        {
          "internalType": "bytes",
          "name": "signature",
          "type": "bytes"
        },
        {
          "internalType": "bytes",
          "name": "data",
          "type": "bytes"
        },
        {
          "internalType": "string",
          "name": "uri",
          "type": "string"
        }
      ],
      "stateMutability": "view",
      "type": "function"
    },
    {
      "inputs": [
        {
          "internalType": "uint256",
          "name": "_claimType",
          "type": "uint256"
        }
      ],
      "name": "getClaimIdsByType",
      "outputs": [
        {
          "internalType": "bytes32[]",
          "name": "claimIds",
          "type": "bytes32[]"
        }
      ],
      "stateMutability": "view",
      "type": "function"
    },
    {
      "inputs": [
        {
          "internalType": "address payable",
          "name": "addr",
          "type": "address"
        }
      ],
      "name": "destroy",
      "outputs": [],
      "stateMutability": "nonpayable",
      "type": "function"
    }
  ],
  "bytecode": "0x60806040523480156200001157600080fd5b5060003360405160200162000027919062000132565b6040516020818303038152906040528051906020012090508060016000838152602001908152602001600020600201819055506001806000838152602001908152602001600020600001819055506001806000838152602001908152602001600020600101819055506002600060018152602001908152602001600020819080600181540180825580915050600190039060005260206000200160009091909190915055600180600083815260200190815260200160002060000154827f480000bb1edad8ca1470381cc334b1917fbd51c6531f3a623ea8e0ec7e38a6e960405160405180910390a450620001b8565b6200012c62000126826200014f565b62000183565b82525050565b600062000140828462000117565b60148201915081905092915050565b60006200015c8262000163565b9050919050565b600073ffffffffffffffffffffffffffffffffffffffff82169050919050565b6000620001908262000197565b9050919050565b6000620001a482620001ab565b9050919050565b60008160601b9050919050565b612ac080620001c86000396000f3fe608060405234801561001057600080fd5b50600436106100e95760003560e01c8063747442d31161008c578063b1a34e0d11610066578063b1a34e0d146102bc578063b61d27f6146102ec578063c9100bcb1461031c578063d202158d14610351576100e9565b8063747442d31461022c578063862642f51461025c5780639010f7261461028c576100e9565b80631d381240116100c85780631d3812401461016c578063262b54f51461019c57806330690424146101cc5780634eee424a146101fc576100e9565b8062f55d9d146100ee578063032c1a8a1461010a57806312aaac701461013a575b600080fd5b61010860048036038101906101039190611a7c565b610381565b005b610124600480360381019061011f9190611b0c565b61039a565b60405161013191906123ab565b60405180910390f35b610154600480360381019061014f9190611b0c565b6103ba565b604051610163939291906124f0565b60405180910390f35b61018660048036038101906101819190611b71565b610411565b604051610193919061224f565b60405180910390f35b6101b660048036038101906101b19190611bc0565b6105d5565b6040516101c3919061222d565b60405180910390f35b6101e660048036038101906101e19190611b0c565b610640565b6040516101f39190612389565b60405180910390f35b61021660048036038101906102119190611b0c565b61088d565b604051610223919061224f565b60405180910390f35b61024660048036038101906102419190611be9565b610ab0565b604051610253919061224f565b60405180910390f35b61027660048036038101906102719190611b0c565b610e39565b604051610283919061224f565b60405180910390f35b6102a660048036038101906102a19190611bc0565b610f3b565b6040516102b3919061222d565b60405180910390f35b6102d660048036038101906102d19190611c25565b610fa6565b6040516102e3919061226a565b60405180910390f35b61030660048036038101906103019190611aa5565b61128c565b60405161031391906123ab565b60405180910390f35b61033660048036038101906103319190611b0c565b61148f565b6040516103489695949392919061247a565b60405180910390f35b61036b60048036038101906103669190611b35565b6116f9565b604051610378919061224f565b60405180910390f35b8073ffffffffffffffffffffffffffffffffffffffff16ff5b600060016000838152602001908152602001600020600001549050919050565b60008060006001600085815260200190815260200160002060000154600160008681526020019081526020016000206001015460016000878152602001908152602001600020600201549250925092509193909250565b6000836001600086815260200190815260200160002060020154141561046c576040517f08c379a0000000000000000000000000000000000000000000000000000000008152600401610463906122e9565b60405180910390fd5b3073ffffffffffffffffffffffffffffffffffffffff163373ffffffffffffffffffffffffffffffffffffffff1614610510576104d0336040516020016104b391906121cf565b6040516020818303038152906040528051906020012060016116f9565b61050f576040517f08c379a000000000000000000000000000000000000000000000000000000000815260040161050690612349565b60405180910390fd5b5b836001600086815260200190815260200160002060020181905550826001600086815260200190815260200160002060000181905550816001600086815260200190815260200160002060010181905550600260008481526020019081526020016000208490806001815401808255809150506001900390600052602060002001600090919091909150558183857f480000bb1edad8ca1470381cc334b1917fbd51c6531f3a623ea8e0ec7e38a6e960405160405180910390a4600190509392505050565b60606005600083815260200190815260200160002080548060200260200160405190810160405280929190818152602001828054801561063457602002820191906000526020600020905b815481526020019060010190808311610620575b50505050509050919050565b61064861174e565b600460008381526020019081526020016000206040518060c001604052908160008201548152602001600182015481526020016002820160009054906101000a900473ffffffffffffffffffffffffffffffffffffffff1673ffffffffffffffffffffffffffffffffffffffff1673ffffffffffffffffffffffffffffffffffffffff1681526020016003820180546106e090612750565b80601f016020809104026020016040519081016040528092919081815260200182805461070c90612750565b80156107595780601f1061072e57610100808354040283529160200191610759565b820191906000526020600020905b81548152906001019060200180831161073c57829003601f168201915b5050505050815260200160048201805461077290612750565b80601f016020809104026020016040519081016040528092919081815260200182805461079e90612750565b80156107eb5780601f106107c0576101008083540402835291602001916107eb565b820191906000526020600020905b8154815290600101906020018083116107ce57829003601f168201915b5050505050815260200160058201805461080490612750565b80601f016020809104026020016040519081016040528092919081815260200182805461083090612750565b801561087d5780601f106108525761010080835404028352916020019161087d565b820191906000526020600020905b81548152906001019060200180831161086057829003601f168201915b5050505050815250509050919050565b60003073ffffffffffffffffffffffffffffffffffffffff163373ffffffffffffffffffffffffffffffffffffffff1614610933576108f3336040516020016108d691906121cf565b6040516020818303038152906040528051906020012060016116f9565b610932576040517f08c379a000000000000000000000000000000000000000000000000000000000815260040161092990612349565b60405180910390fd5b5b6004600083815260200190815260200160002060020160009054906101000a900473ffffffffffffffffffffffffffffffffffffffff1673ffffffffffffffffffffffffffffffffffffffff166004600084815260200190815260200160002060000154837f3cf57863a89432c61c4a27073c6ee39e8a764bff5a05aebfbcdcdc80b2e6130a60046000878152602001908152602001600020600101546004600088815260200190815260200160002060030160046000898152602001908152602001600020600401600460008a8152602001908152602001600020600501604051610a229493929190612420565b60405180910390a46004600083815260200190815260200160002060008082016000905560018201600090556002820160006101000a81549073ffffffffffffffffffffffffffffffffffffffff0219169055600382016000610a85919061179a565b600482016000610a95919061179a565b600582016000610aa591906117da565b505060019050919050565b6000610ae333604051602001610ac691906121cf565b6040516020818303038152906040528051906020012060026116f9565b610b22576040517f08c379a0000000000000000000000000000000000000000000000000000000008152600401610b19906122c9565b60405180910390fd5b827fb3932da477fe5d6c8ff2eafef050c0f3a1af18fc07121001482600f36f3715d883604051610b52919061224f565b60405180910390a26060600115158315151415610dfe5760016003600086815260200190815260200160002060030160006101000a81548160ff0219169083151502179055506003600085815260200190815260200160002060000160009054906101000a900473ffffffffffffffffffffffffffffffffffffffff1673ffffffffffffffffffffffffffffffffffffffff1660036000868152602001908152602001600020600201604051610c089190612216565b6000604051808303816000865af19150503d8060008114610c45576040519150601f19603f3d011682016040523d82523d6000602084013e610c4a565b606091505b5080925081935050508115610d435760016003600086815260200190815260200160002060030160016101000a81548160ff02191690831515021790555060036000858152602001908152602001600020600101546003600086815260200190815260200160002060000160009054906101000a900473ffffffffffffffffffffffffffffffffffffffff1673ffffffffffffffffffffffffffffffffffffffff16857f1f920dbda597d7bf95035464170fa58d0a4b57f13a1c315ace6793b9f63688b860036000898152602001908152602001600020600201604051610d3191906122a7565b60405180910390a46001915050610e33565b60036000858152602001908152602001600020600101546003600086815260200190815260200160002060000160009054906101000a900473ffffffffffffffffffffffffffffffffffffffff1673ffffffffffffffffffffffffffffffffffffffff16857fe10c49d9f7c71da23262367013434763cfdb2332267641728d25cd712c5c6a6860036000898152602001908152602001600020600201604051610dec91906122a7565b60405180910390a46000915050610e33565b60006003600086815260200190815260200160002060030160006101000a81548160ff02191690831515021790555060019150505b92915050565b600081600160008481526020019081526020016000206002015414610e93576040517f08c379a0000000000000000000000000000000000000000000000000000000008152600401610e8a90612369565b60405180910390fd5b6001600083815260200190815260200160002060010154600160008481526020019081526020016000206000015460016000858152602001908152602001600020600201547f585a4aef50f8267a92b32412b331b20f7f8b96f2245b253b9cc50dcc621d339760405160405180910390a46001600083815260200190815260200160002060008082016000905560018201600090556002820160009055505060019050919050565b606060026000838152602001908152602001600020805480602002602001604051908101604052809291908181526020018280548015610f9a57602002820191906000526020600020905b815481526020019060010190808311610f86575b50505050509050919050565b6000803088604051602001610fbc9291906121ea565b6040516020818303038152906040528051906020012090503073ffffffffffffffffffffffffffffffffffffffff163373ffffffffffffffffffffffffffffffffffffffff1614611078576110383360405160200161101b91906121cf565b6040516020818303038152906040528051906020012060036116f9565b611077576040517f08c379a000000000000000000000000000000000000000000000000000000000815260040161106e90612309565b60405180910390fd5b5b8573ffffffffffffffffffffffffffffffffffffffff166004600083815260200190815260200160002060020160009054906101000a900473ffffffffffffffffffffffffffffffffffffffff1673ffffffffffffffffffffffffffffffffffffffff161461111c57600560008981526020019081526020016000208190806001815401808255809150506001900390600052602060002001600090919091909150555b876004600083815260200190815260200160002060000181905550866004600083815260200190815260200160002060010181905550856004600083815260200190815260200160002060020160006101000a81548173ffffffffffffffffffffffffffffffffffffffff021916908373ffffffffffffffffffffffffffffffffffffffff160217905550846004600083815260200190815260200160002060030190805190602001906111d192919061181a565b50836004600083815260200190815260200160002060040190805190602001906111fc92919061181a565b50826004600083815260200190815260200160002060050190805190602001906112279291906118a0565b508573ffffffffffffffffffffffffffffffffffffffff1688827f46149b18aa084502c3f12bc75e19eda8bda8d102b82cce8474677a6d0d5f43c58a89898960405161127694939291906123c6565b60405180910390a4809150509695505050505050565b6000600360008054815260200190815260200160002060030160019054906101000a900460ff16156112f3576040517f08c379a00000000000000000000000000000000000000000000000000000000081526004016112ea90612329565b60405180910390fd5b83600360008054815260200190815260200160002060000160006101000a81548173ffffffffffffffffffffffffffffffffffffffff021916908373ffffffffffffffffffffffffffffffffffffffff16021790555082600360008054815260200190815260200160002060010181905550816003600080548152602001908152602001600020600201908051906020019061139092919061181a565b50828473ffffffffffffffffffffffffffffffffffffffff166000547f8afcfabcb00e47a53a8fc3e9f23ff47ee1926194bb1350dd007c50b412a6cee8856040516113db9190612285565b60405180910390a4611414336040516020016113f791906121cf565b6040516020818303038152906040528051906020012060016116f9565b8061144c575061144b3360405160200161142e91906121cf565b6040516020818303038152906040528051906020012060026116f9565b5b156114605761145e6000546001610ab0565b505b600080815480929190611472906127b3565b919050555060016000546114869190612676565b90509392505050565b6000806000606080606060046000888152602001908152602001600020600001546004600089815260200190815260200160002060010154600460008a815260200190815260200160002060020160009054906101000a900473ffffffffffffffffffffffffffffffffffffffff16600460008b8152602001908152602001600020600301600460008c8152602001908152602001600020600401600460008d815260200190815260200160002060050182805461154c90612750565b80601f016020809104026020016040519081016040528092919081815260200182805461157890612750565b80156115c55780601f1061159a576101008083540402835291602001916115c5565b820191906000526020600020905b8154815290600101906020018083116115a857829003601f168201915b505050505092508180546115d890612750565b80601f016020809104026020016040519081016040528092919081815260200182805461160490612750565b80156116515780601f1061162657610100808354040283529160200191611651565b820191906000526020600020905b81548152906001019060200180831161163457829003601f168201915b5050505050915080805461166490612750565b80601f016020809104026020016040519081016040528092919081815260200182805461169090612750565b80156116dd5780601f106116b2576101008083540402835291602001916116dd565b820191906000526020600020905b8154815290600101906020018083116116c057829003601f168201915b5050505050905095509550955095509550955091939550919395565b6000806000801b60016000868152602001908152602001600020600201541415611727576000915050611748565b82600160008681526020019081526020016000206000015411159050809150505b92915050565b6040518060c001604052806000815260200160008152602001600073ffffffffffffffffffffffffffffffffffffffff1681526020016060815260200160608152602001606081525090565b5080546117a690612750565b6000825580601f106117b857506117d7565b601f0160209004906000526020600020908101906117d69190611926565b5b50565b5080546117e690612750565b6000825580601f106117f85750611817565b601f0160209004906000526020600020908101906118169190611926565b5b50565b82805461182690612750565b90600052602060002090601f016020900481019282611848576000855561188f565b82601f1061186157805160ff191683800117855561188f565b8280016001018555821561188f579182015b8281111561188e578251825591602001919060010190611873565b5b50905061189c9190611926565b5090565b8280546118ac90612750565b90600052602060002090601f0160209004810192826118ce5760008555611915565b82601f106118e757805160ff1916838001178555611915565b82800160010185558215611915579182015b828111156119145782518255916020019190600101906118f9565b5b5090506119229190611926565b5090565b5b8082111561193f576000816000905550600101611927565b5090565b60006119566119518461254c565b612527565b90508281526020810184848401111561196e57600080fd5b61197984828561270e565b509392505050565b600061199461198f8461257d565b612527565b9050828152602081018484840111156119ac57600080fd5b6119b784828561270e565b509392505050565b6000813590506119ce81612a17565b92915050565b6000813590506119e381612a2e565b92915050565b6000813590506119f881612a45565b92915050565b600081359050611a0d81612a5c565b92915050565b600082601f830112611a2457600080fd5b8135611a34848260208601611943565b91505092915050565b600082601f830112611a4e57600080fd5b8135611a5e848260208601611981565b91505092915050565b600081359050611a7681612a73565b92915050565b600060208284031215611a8e57600080fd5b6000611a9c848285016119d4565b91505092915050565b600080600060608486031215611aba57600080fd5b6000611ac8868287016119bf565b9350506020611ad986828701611a67565b925050604084013567ffffffffffffffff811115611af657600080fd5b611b0286828701611a13565b9150509250925092565b600060208284031215611b1e57600080fd5b6000611b2c848285016119fe565b91505092915050565b60008060408385031215611b4857600080fd5b6000611b56858286016119fe565b9250506020611b6785828601611a67565b9150509250929050565b600080600060608486031215611b8657600080fd5b6000611b94868287016119fe565b9350506020611ba586828701611a67565b9250506040611bb686828701611a67565b9150509250925092565b600060208284031215611bd257600080fd5b6000611be084828501611a67565b91505092915050565b60008060408385031215611bfc57600080fd5b6000611c0a85828601611a67565b9250506020611c1b858286016119e9565b9150509250929050565b60008060008060008060c08789031215611c3e57600080fd5b6000611c4c89828a01611a67565b9650506020611c5d89828a01611a67565b9550506040611c6e89828a016119bf565b945050606087013567ffffffffffffffff811115611c8b57600080fd5b611c9789828a01611a13565b935050608087013567ffffffffffffffff811115611cb457600080fd5b611cc089828a01611a13565b92505060a087013567ffffffffffffffff811115611cdd57600080fd5b611ce989828a01611a3d565b9150509295509295509295565b6000611d028383611db0565b60208301905092915050565b611d17816126aa565b82525050565b611d26816126aa565b82525050565b611d3d611d38826126aa565b6127fc565b82525050565b6000611d4e826125e8565b611d588185612616565b9350611d63836125ae565b8060005b83811015611d94578151611d7b8882611cf6565b9750611d8683612609565b925050600181019050611d67565b5085935050505092915050565b611daa816126ce565b82525050565b611db9816126da565b82525050565b611dc8816126da565b82525050565b6000611dd9826125f3565b611de38185612627565b9350611df381856020860161271d565b611dfc816128b7565b840191505092915050565b6000611e12826125f3565b611e1c8185612638565b9350611e2c81856020860161271d565b611e35816128b7565b840191505092915050565b60008154611e4d81612750565b611e578186612638565b94506001821660008114611e725760018114611e8457611eb7565b60ff1983168652602086019350611eb7565b611e8d856125be565b60005b83811015611eaf57815481890152600182019150602081019050611e90565b808801955050505b50505092915050565b60008154611ecd81612750565b611ed78186612649565b94506001821660008114611ef25760018114611f0357611f36565b60ff19831686528186019350611f36565b611f0c856125be565b60005b83811015611f2e57815481890152600182019150602081019050611f0f565b838801955050505b50505092915050565b6000611f4a826125fe565b611f548185612654565b9350611f6481856020860161271d565b611f6d816128b7565b840191505092915050565b6000611f83826125fe565b611f8d8185612665565b9350611f9d81856020860161271d565b611fa6816128b7565b840191505092915050565b60008154611fbe81612750565b611fc88186612665565b94506001821660008114611fe35760018114611ff557612028565b60ff1983168652602086019350612028565b611ffe856125d3565b60005b8381101561202057815481890152600182019150602081019050612001565b808801955050505b50505092915050565b600061203e601f83612665565b9150612049826128d5565b602082019050919050565b6000612061601283612665565b915061206c826128fe565b602082019050919050565b6000612084602583612665565b915061208f82612927565b604082019050919050565b60006120a7601083612665565b91506120b282612976565b602082019050919050565b60006120ca602383612665565b91506120d58261299f565b604082019050919050565b60006120ed600b83612665565b91506120f8826129ee565b602082019050919050565b600060c08301600083015161211b600086018261219a565b50602083015161212e602086018261219a565b5060408301516121416040860182611d0e565b50606083015184820360608601526121598282611dce565b915050608083015184820360808601526121738282611dce565b91505060a083015184820360a086015261218d8282611f3f565b9150508091505092915050565b6121a381612704565b82525050565b6121b281612704565b82525050565b6121c96121c482612704565b612820565b82525050565b60006121db8284611d2c565b60148201915081905092915050565b60006121f68285611d2c565b60148201915061220682846121b8565b6020820191508190509392505050565b60006122228284611ec0565b915081905092915050565b600060208201905081810360008301526122478184611d43565b905092915050565b60006020820190506122646000830184611da1565b92915050565b600060208201905061227f6000830184611dbf565b92915050565b6000602082019050818103600083015261229f8184611e07565b905092915050565b600060208201905081810360008301526122c18184611e40565b905092915050565b600060208201905081810360008301526122e281612031565b9050919050565b6000602082019050818103600083015261230281612054565b9050919050565b6000602082019050818103600083015261232281612077565b9050919050565b600060208201905081810360008301526123428161209a565b9050919050565b60006020820190508181036000830152612362816120bd565b9050919050565b60006020820190508181036000830152612382816120e0565b9050919050565b600060208201905081810360008301526123a38184612103565b905092915050565b60006020820190506123c060008301846121a9565b92915050565b60006080820190506123db60008301876121a9565b81810360208301526123ed8186611e07565b905081810360408301526124018185611e07565b905081810360608301526124158184611f78565b905095945050505050565b600060808201905061243560008301876121a9565b81810360208301526124478186611e40565b9050818103604083015261245b8185611e40565b9050818103606083015261246f8184611fb1565b905095945050505050565b600060c08201905061248f60008301896121a9565b61249c60208301886121a9565b6124a96040830187611d1d565b81810360608301526124bb8186611e07565b905081810360808301526124cf8185611e07565b905081810360a08301526124e38184611f78565b9050979650505050505050565b600060608201905061250560008301866121a9565b61251260208301856121a9565b61251f6040830184611dbf565b949350505050565b6000612531612542565b905061253d8282612782565b919050565b6000604051905090565b600067ffffffffffffffff82111561256757612566612888565b5b612570826128b7565b9050602081019050919050565b600067ffffffffffffffff82111561259857612597612888565b5b6125a1826128b7565b9050602081019050919050565b6000819050602082019050919050565b60008190508160005260206000209050919050565b60008190508160005260206000209050919050565b600081519050919050565b600081519050919050565b600081519050919050565b6000602082019050919050565b600082825260208201905092915050565b600082825260208201905092915050565b600082825260208201905092915050565b600081905092915050565b600082825260208201905092915050565b600082825260208201905092915050565b600061268182612704565b915061268c83612704565b92508282101561269f5761269e61282a565b5b828203905092915050565b60006126b5826126e4565b9050919050565b60006126c7826126e4565b9050919050565b60008115159050919050565b6000819050919050565b600073ffffffffffffffffffffffffffffffffffffffff82169050919050565b6000819050919050565b82818337600083830152505050565b60005b8381101561273b578082015181840152602081019050612720565b8381111561274a576000848401525b50505050565b6000600282049050600182168061276857607f821691505b6020821081141561277c5761277b612859565b5b50919050565b61278b826128b7565b810181811067ffffffffffffffff821117156127aa576127a9612888565b5b80604052505050565b60006127be82612704565b91507fffffffffffffffffffffffffffffffffffffffffffffffffffffffffffffffff8214156127f1576127f061282a565b5b600182019050919050565b60006128078261280e565b9050919050565b6000612819826128c8565b9050919050565b6000819050919050565b7f4e487b7100000000000000000000000000000000000000000000000000000000600052601160045260246000fd5b7f4e487b7100000000000000000000000000000000000000000000000000000000600052602260045260246000fd5b7f4e487b7100000000000000000000000000000000000000000000000000000000600052604160045260246000fd5b6000601f19601f8301169050919050565b60008160601b9050919050565b7f53656e64657220646f6573206e6f74206861766520616374696f6e206b657900600082015250565b7f4b657920616c7265616479206578697374730000000000000000000000000000600082015250565b7f53656e64657220646f6573206e6f74206861766520636c61696d207369676e6560008201527f72206b6579000000000000000000000000000000000000000000000000000000602082015250565b7f416c726561647920657865637574656400000000000000000000000000000000600082015250565b7f53656e64657220646f6573206e6f742068617665206d616e6167656d656e742060008201527f6b65790000000000000000000000000000000000000000000000000000000000602082015250565b7f4e6f2073756368206b6579000000000000000000000000000000000000000000600082015250565b612a20816126aa565b8114612a2b57600080fd5b50565b612a37816126bc565b8114612a4257600080fd5b50565b612a4e816126ce565b8114612a5957600080fd5b50565b612a65816126da565b8114612a7057600080fd5b50565b612a7c81612704565b8114612a8757600080fd5b5056fea2646970667358221220b4b98bec38bc25f2656c3996b2ab60ce8111ae9733600135036996af432b30fe64736f6c63430008010033",
  "immutableReferences": {},
  "source": "// SPDX-License-Identifier: MIT\r\npragma solidity >=0.4.22 <0.9.0;\r\n\r\nimport './xERC735.sol';\r\nimport './xKeyHolder.sol';\r\n\r\n// **Warning!** This file is a protoype version of our work around ERC 725.\r\n// This file is now out of date and **should not be used**.\r\n// Our current identity contracts are here:\r\n// https://github.com/OriginProtocol/origin/tree/master/origin-contracts/contracts/identity\r\n\r\ncontract xClaimHolder is xKeyHolder, xERC735 {\r\n\r\n    mapping (bytes32 => Claim) claims;\r\n    mapping (uint256 => bytes32[]) claimsByType;\r\n\r\n    function getClaims(bytes32 claimID) public view returns (Claim memory) {\r\n        return claims[claimID];\r\n    }\r\n\r\n    function addClaim(\r\n        uint256 _claimType,\r\n        uint256 _scheme,\r\n        address _issuer,\r\n        bytes memory _signature,\r\n        bytes memory _data,\r\n        string memory _uri\r\n    )\r\n        public override returns (bytes32 claimRequestId){ //_issuer replace with addNewClaimHolder contract\r\n        bytes32 claimId = keccak256(abi.encodePacked(address(this), _claimType));\r\n\r\n        if (msg.sender != address(this)) {\r\n          require(keyHasPurpose(keccak256(abi.encodePacked(msg.sender)), 3), \"Sender does not have claim signer key\");\r\n        }\r\n\r\n        if (claims[claimId].issuer != _issuer) {\r\n            claimsByType[_claimType].push(claimId);\r\n        }\r\n\r\n        claims[claimId].claimType = _claimType;\r\n        claims[claimId].scheme = _scheme;\r\n        claims[claimId].issuer = _issuer;\r\n        claims[claimId].signature = _signature;\r\n        claims[claimId].data = _data;\r\n        claims[claimId].uri = _uri;\r\n\r\n        emit ClaimAdded(\r\n            claimId,\r\n            _claimType,\r\n            _scheme,\r\n            _issuer,\r\n            _signature,\r\n            _data,\r\n            _uri\r\n        );\r\n\r\n        return claimId;\r\n    }\r\n\r\n    function removeClaim(bytes32 _claimId) public override returns (bool success) {\r\n        if (msg.sender != address(this)) {\r\n          require(keyHasPurpose(keccak256(abi.encodePacked(msg.sender)), 1), \"Sender does not have management key\");\r\n        }\r\n\r\n        /* uint index; */\r\n        /* (index, ) = claimsByType[claims[_claimId].claimType].indexOf(_claimId);\r\n        claimsByType[claims[_claimId].claimType].removeByIndex(index); */\r\n\r\n        emit ClaimRemoved(\r\n            _claimId,\r\n            claims[_claimId].claimType,\r\n            claims[_claimId].scheme,\r\n            claims[_claimId].issuer,\r\n            claims[_claimId].signature,\r\n            claims[_claimId].data,\r\n            claims[_claimId].uri\r\n        );\r\n\r\n        delete claims[_claimId];\r\n        return true;\r\n    }\r\n\r\n    function getClaim(bytes32 _claimId)\r\n        public view override\r\n        returns(\r\n            uint256 claimType,\r\n            uint256 scheme,\r\n            address issuer,\r\n            bytes memory signature,\r\n            bytes memory data,\r\n            string memory uri\r\n        )\r\n    {\r\n        return (\r\n            claims[_claimId].claimType,\r\n            claims[_claimId].scheme,\r\n            claims[_claimId].issuer,\r\n            claims[_claimId].signature,\r\n            claims[_claimId].data,\r\n            claims[_claimId].uri\r\n        );\r\n    }\r\n\r\n    function getClaimIdsByType(uint256 _claimType)\r\n        public view override\r\n        returns(bytes32[] memory claimIds)\r\n    {\r\n        return claimsByType[_claimType];\r\n    }\r\n     function destroy(address payable addr)public{\r\n        selfdestruct(addr);\r\n    }\r\n\r\n}",
  "sourcePath": "D:\\XAMPP\\htdocs\\rpModule\\blockchain\\contracts\\xClaimHolder.sol",
  "compiler": {
    "name": "solc",
    "version": "0.8.1+commit.df193b15.Emscripten.clang"
  },
  "schemaVersion": "3.4.3",
  "updatedAt": "2022-01-27T13:42:54.667Z",
  "devdoc": {
    "kind": "dev",
    "methods": {},
    "version": 1
  },
  "userdoc": {
    "kind": "user",
    "methods": {},
    "version": 1
  }
}