{
  "contractName": "xClaimVerifier",
  "abi": [
    {
      "inputs": [
        {
          "internalType": "address",
          "name": "_trustedClaimHolder",
          "type": "address"
        }
      ],
      "stateMutability": "nonpayable",
      "type": "constructor"
    },
    {
      "anonymous": false,
      "inputs": [
        {
          "indexed": false,
          "internalType": "contract xClaimHolder",
          "name": "_identity",
          "type": "address"
        },
        {
          "indexed": false,
          "internalType": "uint256",
          "name": "claimType",
          "type": "uint256"
        },
        {
          "indexed": false,
          "internalType": "bytes",
          "name": "data",
          "type": "bytes"
        }
      ],
      "name": "ClaimDataInvalid",
      "type": "event"
    },
    {
      "anonymous": false,
      "inputs": [
        {
          "indexed": false,
          "internalType": "contract xClaimHolder",
          "name": "_identity",
          "type": "address"
        },
        {
          "indexed": false,
          "internalType": "uint256",
          "name": "claimType",
          "type": "uint256"
        },
        {
          "indexed": false,
          "internalType": "bytes",
          "name": "data",
          "type": "bytes"
        }
      ],
      "name": "ClaimDataValid",
      "type": "event"
    },
    {
      "anonymous": false,
      "inputs": [
        {
          "indexed": false,
          "internalType": "contract xClaimHolder",
          "name": "_identity",
          "type": "address"
        },
        {
          "indexed": false,
          "internalType": "uint256",
          "name": "claimType",
          "type": "uint256"
        }
      ],
      "name": "ClaimInvalid",
      "type": "event"
    },
    {
      "anonymous": false,
      "inputs": [
        {
          "indexed": false,
          "internalType": "contract xClaimHolder",
          "name": "_identity",
          "type": "address"
        },
        {
          "indexed": false,
          "internalType": "uint256",
          "name": "claimType",
          "type": "uint256"
        }
      ],
      "name": "ClaimValid",
      "type": "event"
    },
    {
      "inputs": [],
      "name": "trustedClaimHolder",
      "outputs": [
        {
          "internalType": "contract xClaimHolder",
          "name": "",
          "type": "address"
        }
      ],
      "stateMutability": "view",
      "type": "function"
    },
    {
      "inputs": [
        {
          "internalType": "contract xClaimHolder",
          "name": "_identity",
          "type": "address"
        },
        {
          "internalType": "uint256",
          "name": "_claimType",
          "type": "uint256"
        },
        {
          "internalType": "bytes",
          "name": "_data",
          "type": "bytes"
        }
      ],
      "name": "verifyClaimData",
      "outputs": [
        {
          "internalType": "bool",
          "name": "",
          "type": "bool"
        }
      ],
      "stateMutability": "nonpayable",
      "type": "function"
    },
    {
      "inputs": [
        {
          "internalType": "contract xClaimHolder",
          "name": "_identity",
          "type": "address"
        },
        {
          "internalType": "uint256",
          "name": "claimType",
          "type": "uint256"
        }
      ],
      "name": "checkClaim",
      "outputs": [
        {
          "internalType": "bool",
          "name": "claimValid",
          "type": "bool"
        }
      ],
      "stateMutability": "view",
      "type": "function"
    },
    {
      "inputs": [
        {
          "internalType": "contract xClaimHolder",
          "name": "_identity",
          "type": "address"
        },
        {
          "internalType": "uint256",
          "name": "claimType",
          "type": "uint256"
        }
      ],
      "name": "claimIsValid",
      "outputs": [
        {
          "internalType": "bool",
          "name": "claimValid",
          "type": "bool"
        }
      ],
      "stateMutability": "view",
      "type": "function"
    },
    {
      "inputs": [
        {
          "internalType": "bytes",
          "name": "sig",
          "type": "bytes"
        },
        {
          "internalType": "bytes32",
          "name": "dataHash",
          "type": "bytes32"
        }
      ],
      "name": "getRecoveredAddress",
      "outputs": [
        {
          "internalType": "address",
          "name": "addr",
          "type": "address"
        }
      ],
      "stateMutability": "pure",
      "type": "function"
    }
  ],
  "bytecode": "0x608060405234801561001057600080fd5b50604051620011ea380380620011ea8339818101604052810190610034919061008f565b806000806101000a81548173ffffffffffffffffffffffffffffffffffffffff021916908373ffffffffffffffffffffffffffffffffffffffff16021790555050610101565b600081519050610089816100ea565b92915050565b6000602082840312156100a157600080fd5b60006100af8482850161007a565b91505092915050565b60006100c3826100ca565b9050919050565b600073ffffffffffffffffffffffffffffffffffffffff82169050919050565b6100f3816100b8565b81146100fe57600080fd5b50565b6110d980620001116000396000f3fe608060405234801561001057600080fd5b50600436106100575760003560e01c80630382ad261461005c578063369383541461008c5780638b3f7227146100aa5780639fecd554146100da578063c3b129e31461010a575b600080fd5b61007660048036038101906100719190610882565b61013a565b6040516100839190610c4c565b60405180910390f35b61009461015f565b6040516100a19190610cf0565b60405180910390f35b6100c460048036038101906100bf91906108be565b610183565b6040516100d19190610c4c565b60405180910390f35b6100f460048036038101906100ef9190610882565b610375565b6040516101019190610c4c565b60405180910390f35b610124600480360381019061011f919061082e565b61059f565b6040516101319190610c31565b60405180910390f35b60006101468383610375565b156101545760019050610159565b600090505b92915050565b60008054906101000a900473ffffffffffffffffffffffffffffffffffffffff1681565b600061018f848461013a565b15610369576000806000606080606060008a8a6040516020016101b3929190610ba6565b6040516020818303038152906040528051906020012090508a73ffffffffffffffffffffffffffffffffffffffff1663c9100bcb826040518263ffffffff1660e01b81526004016102049190610c67565b60006040518083038186803b15801561021c57600080fd5b505afa158015610230573d6000803e3d6000fd5b505050506040513d6000823e3d601f19601f820116820180604052508101906102599190610925565b809750819850829950839a50849b50859c505050505050506000836040516020016102849190610b8f565b60405160208183030381529060405280519060200120905060008a6040516020016102af9190610b8f565b6040516020818303038152906040528051906020012082149050801561031c577f7e54aeae6370c736a777431d1b6499b1bf8c637a79cc7ba218c42e0c80eba7ee8d8d8d60405161030293929190610d0b565b60405180910390a16001995050505050505050505061036e565b7fbf207365b0ed61ed7c246fb715c47f510e96e0531d0842e6621f3ee9211722108d8d8d60405161034f93929190610d0b565b60405180910390a16000995050505050505050505061036e565b600090505b9392505050565b60008060008060608060008888604051602001610393929190610b63565b6040516020818303038152906040528051906020012090508873ffffffffffffffffffffffffffffffffffffffff1663c9100bcb826040518263ffffffff1660e01b81526004016103e49190610c67565b60006040518083038186803b1580156103fc57600080fd5b505afa158015610410573d6000803e3d6000fd5b505050506040513d6000823e3d601f19601f820116820180604052508101906104399190610925565b50809650819750829850839950849a505050505050600089898460405160200161046593929190610bd2565b6040516020818303038152906040528051906020012090506000816040516020016104909190610c0b565b60405160208183030381529060405280519060200120905060006104b4868361059f565b90506000816040516020016104c99190610b48565b60405160208183030381529060405280519060200120905060008054906101000a900473ffffffffffffffffffffffffffffffffffffffff1673ffffffffffffffffffffffffffffffffffffffff1663d202158d8260036040518363ffffffff1660e01b815260040161053d929190610c82565b60206040518083038186803b15801561055557600080fd5b505afa158015610569573d6000803e3d6000fd5b505050506040513d601f19601f8201168201806040525081019061058d9190610805565b9a505050505050505050505092915050565b60008060008060418651146105ba5760009350505050610649565b6020860151925060408601519150606086015160001a9050601b8160ff1610156105ee57601b816105eb9190610e02565b90505b6000600186838686604051600081526020016040526040516106139493929190610cab565b6020604051602081039080840390855afa158015610635573d6000803e3d6000fd5b505050602060405103519050809450505050505b92915050565b600061066261065d84610d6e565b610d49565b90508281526020810184848401111561067a57600080fd5b610685848285610ee0565b509392505050565b60006106a061069b84610d6e565b610d49565b9050828152602081018484840111156106b857600080fd5b6106c3848285610eef565b509392505050565b60006106de6106d984610d9f565b610d49565b9050828152602081018484840111156106f657600080fd5b610701848285610eef565b509392505050565b60008151905061071881611030565b92915050565b60008151905061072d81611047565b92915050565b6000813590506107428161105e565b92915050565b600082601f83011261075957600080fd5b813561076984826020860161064f565b91505092915050565b600082601f83011261078357600080fd5b815161079384826020860161068d565b91505092915050565b6000813590506107ab81611075565b92915050565b600082601f8301126107c257600080fd5b81516107d28482602086016106cb565b91505092915050565b6000813590506107ea8161108c565b92915050565b6000815190506107ff8161108c565b92915050565b60006020828403121561081757600080fd5b60006108258482850161071e565b91505092915050565b6000806040838503121561084157600080fd5b600083013567ffffffffffffffff81111561085b57600080fd5b61086785828601610748565b925050602061087885828601610733565b9150509250929050565b6000806040838503121561089557600080fd5b60006108a38582860161079c565b92505060206108b4858286016107db565b9150509250929050565b6000806000606084860312156108d357600080fd5b60006108e18682870161079c565b93505060206108f2868287016107db565b925050604084013567ffffffffffffffff81111561090f57600080fd5b61091b86828701610748565b9150509250925092565b60008060008060008060c0878903121561093e57600080fd5b600061094c89828a016107f0565b965050602061095d89828a016107f0565b955050604061096e89828a01610709565b945050606087015167ffffffffffffffff81111561098b57600080fd5b61099789828a01610772565b935050608087015167ffffffffffffffff8111156109b457600080fd5b6109c089828a01610772565b92505060a087015167ffffffffffffffff8111156109dd57600080fd5b6109e989828a016107b1565b9150509295509295509295565b6109ff81610e39565b82525050565b610a16610a1182610e39565b610f53565b82525050565b610a2581610e4b565b82525050565b610a3481610e57565b82525050565b610a4b610a4682610e57565b610f65565b82525050565b6000610a5c82610dd0565b610a668185610ddb565b9350610a76818560208601610eef565b610a7f81610fe9565b840191505092915050565b6000610a9582610dd0565b610a9f8185610dec565b9350610aaf818560208601610eef565b80840191505092915050565b610ac481610eaa565b82525050565b610adb610ad682610eaa565b610f53565b82525050565b610aea81610ece565b82525050565b6000610afd601c83610df7565b9150610b0882611007565b601c82019050919050565b610b1c81610e93565b82525050565b610b33610b2e82610e93565b610f81565b82525050565b610b4281610e9d565b82525050565b6000610b548284610a05565b60148201915081905092915050565b6000610b6f8285610a05565b601482019150610b7f8284610b22565b6020820191508190509392505050565b6000610b9b8284610a8a565b915081905092915050565b6000610bb28285610aca565b601482019150610bc28284610b22565b6020820191508190509392505050565b6000610bde8286610aca565b601482019150610bee8285610b22565b602082019150610bfe8284610a8a565b9150819050949350505050565b6000610c1682610af0565b9150610c228284610a3a565b60208201915081905092915050565b6000602082019050610c4660008301846109f6565b92915050565b6000602082019050610c616000830184610a1c565b92915050565b6000602082019050610c7c6000830184610a2b565b92915050565b6000604082019050610c976000830185610a2b565b610ca46020830184610ae1565b9392505050565b6000608082019050610cc06000830187610a2b565b610ccd6020830186610b39565b610cda6040830185610a2b565b610ce76060830184610a2b565b95945050505050565b6000602082019050610d056000830184610abb565b92915050565b6000606082019050610d206000830186610abb565b610d2d6020830185610b13565b8181036040830152610d3f8184610a51565b9050949350505050565b6000610d53610d64565b9050610d5f8282610f22565b919050565b6000604051905090565b600067ffffffffffffffff821115610d8957610d88610fba565b5b610d9282610fe9565b9050602081019050919050565b600067ffffffffffffffff821115610dba57610db9610fba565b5b610dc382610fe9565b9050602081019050919050565b600081519050919050565b600082825260208201905092915050565b600081905092915050565b600081905092915050565b6000610e0d82610e9d565b9150610e1883610e9d565b92508260ff03821115610e2e57610e2d610f8b565b5b828201905092915050565b6000610e4482610e73565b9050919050565b60008115159050919050565b6000819050919050565b6000610e6c82610e39565b9050919050565b600073ffffffffffffffffffffffffffffffffffffffff82169050919050565b6000819050919050565b600060ff82169050919050565b6000610eb582610ebc565b9050919050565b6000610ec782610e73565b9050919050565b6000610ed982610e93565b9050919050565b82818337600083830152505050565b60005b83811015610f0d578082015181840152602081019050610ef2565b83811115610f1c576000848401525b50505050565b610f2b82610fe9565b810181811067ffffffffffffffff82111715610f4a57610f49610fba565b5b80604052505050565b6000610f5e82610f6f565b9050919050565b6000819050919050565b6000610f7a82610ffa565b9050919050565b6000819050919050565b7f4e487b7100000000000000000000000000000000000000000000000000000000600052601160045260246000fd5b7f4e487b7100000000000000000000000000000000000000000000000000000000600052604160045260246000fd5b6000601f19601f8301169050919050565b60008160601b9050919050565b7f19457468657265756d205369676e6564204d6573736167653a0a333200000000600082015250565b61103981610e39565b811461104457600080fd5b50565b61105081610e4b565b811461105b57600080fd5b50565b61106781610e57565b811461107257600080fd5b50565b61107e81610e61565b811461108957600080fd5b50565b61109581610e93565b81146110a057600080fd5b5056fea2646970667358221220d285a19452dee49432cf21218b60a8103586deded3aca7b31eb5f7ffec9ebdfa64736f6c63430008010033",
  "immutableReferences": {},
  "source": "// SPDX-License-Identifier: GPL-3.0\r\npragma solidity >=0.7.0 <0.9.0;\r\n\r\nimport './xClaimHolder.sol';\r\n\r\n// **Warning!** This file is a protoype version of our work around ERC 725.\r\n// This file is now out of date and **should not be used**.\r\n// Our current identity contracts are here:\r\n// https://github.com/OriginProtocol/origin/tree/master/origin-contracts/contracts/identity\r\n\r\ncontract xClaimVerifier {\r\n\r\n  event ClaimValid(xClaimHolder _identity, uint256 claimType);\r\n  event ClaimInvalid(xClaimHolder _identity, uint256 claimType);\r\n  event ClaimDataValid(xClaimHolder _identity, uint256 claimType, bytes data);\r\n  event ClaimDataInvalid(xClaimHolder _identity, uint256 claimType, bytes data);\r\n\r\n  xClaimHolder public trustedClaimHolder;\r\n\r\n  constructor (address _trustedClaimHolder) {\r\n    trustedClaimHolder = xClaimHolder(_trustedClaimHolder);\r\n  }\r\n\r\n  function verifyClaimData (xClaimHolder _identity, uint256 _claimType, bytes memory _data) public returns(bool) {\r\n    if (checkClaim(_identity, _claimType)){\r\n      uint256 foundClaimType;\r\n      uint256 scheme;\r\n      address issuer;\r\n      bytes memory sig;\r\n      bytes memory data;\r\n      string memory uri;\r\n      bytes32 claimId = keccak256(abi.encodePacked(_identity, _claimType));\r\n      ( foundClaimType, scheme, issuer, sig, data , uri) = _identity.getClaim(claimId);\r\n      bytes32 hashData = keccak256(abi.encodePacked(data)); \r\n      bool validData = hashData == keccak256(abi.encodePacked(_data));\r\n      if (validData){\r\n        emit ClaimDataValid(_identity, _claimType, _data);\r\n        return true;\r\n      } else {\r\n        emit ClaimDataInvalid(_identity, _claimType, _data);\r\n        return false;\r\n      }\r\n    }\r\n    return false;\r\n  }\r\n\r\n  function checkClaim(xClaimHolder _identity, uint256 claimType)\r\n    public view\r\n    returns (bool claimValid)\r\n  {\r\n    if (claimIsValid(_identity, claimType)) {\r\n      // emit ClaimValid(_identity, claimType);\r\n      return true;\r\n    } else {\r\n      // emit ClaimInvalid(_identity, claimType);\r\n      return false;\r\n    }\r\n  }\r\n\r\n  function claimIsValid(xClaimHolder _identity, uint256 claimType)\r\n    public view\r\n\r\n    returns (bool claimValid)\r\n  {\r\n    uint256 foundClaimType;\r\n    uint256 scheme;\r\n    address issuer;\r\n    bytes memory sig;\r\n    bytes memory data;\r\n\r\n    // Construct claimId (identifier + claim type)\r\n    bytes32 claimId = keccak256(abi.encodePacked(address(_identity), claimType));\r\n\r\n    // Fetch claim from user\r\n    ( foundClaimType, scheme, issuer, sig, data, ) = _identity.getClaim(claimId);\r\n\r\n    bytes32 dataHash = keccak256(abi.encodePacked(_identity, claimType, data));\r\n    bytes32 prefixedHash = keccak256(abi.encodePacked(\"\\x19Ethereum Signed Message:\\n32\", dataHash));\r\n\r\n    // Recover address of data signer\r\n    address recovered = getRecoveredAddress(sig, prefixedHash);\r\n\r\n    // Take hash of recovered address\r\n    bytes32 hashedAddr = keccak256(abi.encodePacked(recovered));\r\n\r\n    // Does the trusted identifier have they key which signed the user's claim?\r\n    return trustedClaimHolder.keyHasPurpose(hashedAddr, 3);\r\n  }\r\n\r\n  function getRecoveredAddress(bytes memory sig, bytes32 dataHash)\r\n      pure\r\n    public\r\n      returns (address addr)\r\n  {\r\n      bytes32 ra;\r\n      bytes32 sa;\r\n      uint8 va;\r\n\r\n      // Check the signature length\r\n      if (sig.length != 65) {\r\n        return address(0);\r\n      }\r\n\r\n      // Divide the signature in r, s and v variables\r\n      assembly {\r\n        ra := mload(add(sig, 32))\r\n        sa := mload(add(sig, 64))\r\n        va := byte(0, mload(add(sig, 96)))\r\n      }\r\n\r\n      if (va < 27) {\r\n        va += 27;\r\n      }\r\n\r\n      address recoveredAddress = ecrecover(dataHash, va, ra, sa);\r\n\r\n      return (recoveredAddress);\r\n  }\r\n\r\n}",
  "sourcePath": "D:\\XAMPP\\htdocs\\rpModule\\blockchain\\contracts\\xClaimVerifier.sol",
  "compiler": {
    "name": "solc",
    "version": "0.8.1+commit.df193b15.Emscripten.clang"
  },
  "schemaVersion": "3.4.3",
  "updatedAt": "2022-01-27T13:42:54.689Z",
  "devdoc": {
    "kind": "dev",
    "methods": {},
    "version": 1
  },
  "userdoc": {
    "kind": "user",
    "methods": {},
    "version": 1
  }
}