{
  "contractName": "xIdentity",
  "abi": [
    {
      "inputs": [
        {
          "internalType": "uint256[]",
          "name": "_claimType",
          "type": "uint256[]"
        },
        {
          "internalType": "uint256[]",
          "name": "_scheme",
          "type": "uint256[]"
        },
        {
          "internalType": "address[]",
          "name": "_issuer",
          "type": "address[]"
        },
        {
          "internalType": "bytes",
          "name": "_signature",
          "type": "bytes"
        },
        {
          "internalType": "bytes",
          "name": "_data",
          "type": "bytes"
        },
        {
          "internalType": "string",
          "name": "_uri",
          "type": "string"
        },
        {
          "internalType": "uint256[]",
          "name": "_sigSizes",
          "type": "uint256[]"
        },
        {
          "internalType": "uint256[]",
          "name": "dataSizes",
          "type": "uint256[]"
        },
        {
          "internalType": "uint256[]",
          "name": "uriSizes",
          "type": "uint256[]"
        }
      ],
      "stateMutability": "nonpayable",
      "type": "constructor"
    },
    {
      "anonymous": false,
      "inputs": [
        {
          "indexed": true,
          "internalType": "uint256",
          "name": "executionId",
          "type": "uint256"
        },
        {
          "indexed": false,
          "internalType": "bool",
          "name": "approved",
          "type": "bool"
        }
      ],
      "name": "Approved",
      "type": "event"
    },
    {
      "anonymous": false,
      "inputs": [
        {
          "indexed": true,
          "internalType": "bytes32",
          "name": "claimId",
          "type": "bytes32"
        },
        {
          "indexed": true,
          "internalType": "uint256",
          "name": "claimType",
          "type": "uint256"
        },
        {
          "indexed": true,
          "internalType": "address",
          "name": "issuer",
          "type": "address"
        },
        {
          "indexed": false,
          "internalType": "uint256",
          "name": "signatureType",
          "type": "uint256"
        },
        {
          "indexed": false,
          "internalType": "bytes32",
          "name": "signature",
          "type": "bytes32"
        },
        {
          "indexed": false,
          "internalType": "bytes",
          "name": "claim",
          "type": "bytes"
        },
        {
          "indexed": false,
          "internalType": "string",
          "name": "uri",
          "type": "string"
        }
      ],
      "name": "ClaimAdded",
      "type": "event"
    },
    {
      "anonymous": false,
      "inputs": [
        {
          "indexed": true,
          "internalType": "bytes32",
          "name": "claimId",
          "type": "bytes32"
        },
        {
          "indexed": true,
          "internalType": "uint256",
          "name": "claimType",
          "type": "uint256"
        },
        {
          "indexed": false,
          "internalType": "uint256",
          "name": "scheme",
          "type": "uint256"
        },
        {
          "indexed": true,
          "internalType": "address",
          "name": "issuer",
          "type": "address"
        },
        {
          "indexed": false,
          "internalType": "bytes",
          "name": "signature",
          "type": "bytes"
        },
        {
          "indexed": false,
          "internalType": "bytes",
          "name": "data",
          "type": "bytes"
        },
        {
          "indexed": false,
          "internalType": "string",
          "name": "uri",
          "type": "string"
        }
      ],
      "name": "ClaimAdded",
      "type": "event"
    },
    {
      "anonymous": false,
      "inputs": [
        {
          "indexed": true,
          "internalType": "bytes32",
          "name": "claimId",
          "type": "bytes32"
        },
        {
          "indexed": true,
          "internalType": "uint256",
          "name": "claimType",
          "type": "uint256"
        },
        {
          "indexed": false,
          "internalType": "uint256",
          "name": "scheme",
          "type": "uint256"
        },
        {
          "indexed": true,
          "internalType": "address",
          "name": "issuer",
          "type": "address"
        },
        {
          "indexed": false,
          "internalType": "bytes",
          "name": "signature",
          "type": "bytes"
        },
        {
          "indexed": false,
          "internalType": "bytes",
          "name": "data",
          "type": "bytes"
        },
        {
          "indexed": false,
          "internalType": "string",
          "name": "uri",
          "type": "string"
        }
      ],
      "name": "ClaimChanged",
      "type": "event"
    },
    {
      "anonymous": false,
      "inputs": [
        {
          "indexed": true,
          "internalType": "bytes32",
          "name": "claimId",
          "type": "bytes32"
        },
        {
          "indexed": true,
          "internalType": "uint256",
          "name": "claimType",
          "type": "uint256"
        },
        {
          "indexed": false,
          "internalType": "uint256",
          "name": "scheme",
          "type": "uint256"
        },
        {
          "indexed": true,
          "internalType": "address",
          "name": "issuer",
          "type": "address"
        },
        {
          "indexed": false,
          "internalType": "bytes",
          "name": "signature",
          "type": "bytes"
        },
        {
          "indexed": false,
          "internalType": "bytes",
          "name": "data",
          "type": "bytes"
        },
        {
          "indexed": false,
          "internalType": "string",
          "name": "uri",
          "type": "string"
        }
      ],
      "name": "ClaimRemoved",
      "type": "event"
    },
    {
      "anonymous": false,
      "inputs": [
        {
          "indexed": true,
          "internalType": "uint256",
          "name": "claimRequestId",
          "type": "uint256"
        },
        {
          "indexed": true,
          "internalType": "uint256",
          "name": "claimType",
          "type": "uint256"
        },
        {
          "indexed": false,
          "internalType": "uint256",
          "name": "scheme",
          "type": "uint256"
        },
        {
          "indexed": true,
          "internalType": "address",
          "name": "issuer",
          "type": "address"
        },
        {
          "indexed": false,
          "internalType": "bytes",
          "name": "signature",
          "type": "bytes"
        },
        {
          "indexed": false,
          "internalType": "bytes",
          "name": "data",
          "type": "bytes"
        },
        {
          "indexed": false,
          "internalType": "string",
          "name": "uri",
          "type": "string"
        }
      ],
      "name": "ClaimRequested",
      "type": "event"
    },
    {
      "anonymous": false,
      "inputs": [
        {
          "indexed": true,
          "internalType": "uint256",
          "name": "executionId",
          "type": "uint256"
        },
        {
          "indexed": true,
          "internalType": "address",
          "name": "to",
          "type": "address"
        },
        {
          "indexed": true,
          "internalType": "uint256",
          "name": "value",
          "type": "uint256"
        },
        {
          "indexed": false,
          "internalType": "bytes",
          "name": "data",
          "type": "bytes"
        }
      ],
      "name": "Executed",
      "type": "event"
    },
    {
      "anonymous": false,
      "inputs": [
        {
          "indexed": true,
          "internalType": "uint256",
          "name": "executionId",
          "type": "uint256"
        },
        {
          "indexed": true,
          "internalType": "address",
          "name": "to",
          "type": "address"
        },
        {
          "indexed": true,
          "internalType": "uint256",
          "name": "value",
          "type": "uint256"
        },
        {
          "indexed": false,
          "internalType": "bytes",
          "name": "data",
          "type": "bytes"
        }
      ],
      "name": "ExecutionFailed",
      "type": "event"
    },
    {
      "anonymous": false,
      "inputs": [
        {
          "indexed": true,
          "internalType": "uint256",
          "name": "executionId",
          "type": "uint256"
        },
        {
          "indexed": true,
          "internalType": "address",
          "name": "to",
          "type": "address"
        },
        {
          "indexed": true,
          "internalType": "uint256",
          "name": "value",
          "type": "uint256"
        },
        {
          "indexed": false,
          "internalType": "bytes",
          "name": "data",
          "type": "bytes"
        }
      ],
      "name": "ExecutionRequested",
      "type": "event"
    },
    {
      "anonymous": false,
      "inputs": [
        {
          "indexed": true,
          "internalType": "bytes32",
          "name": "key",
          "type": "bytes32"
        },
        {
          "indexed": true,
          "internalType": "uint256",
          "name": "purpose",
          "type": "uint256"
        },
        {
          "indexed": true,
          "internalType": "uint256",
          "name": "keyType",
          "type": "uint256"
        }
      ],
      "name": "KeyAdded",
      "type": "event"
    },
    {
      "anonymous": false,
      "inputs": [
        {
          "indexed": true,
          "internalType": "bytes32",
          "name": "key",
          "type": "bytes32"
        },
        {
          "indexed": true,
          "internalType": "uint256",
          "name": "purpose",
          "type": "uint256"
        },
        {
          "indexed": true,
          "internalType": "uint256",
          "name": "keyType",
          "type": "uint256"
        }
      ],
      "name": "KeyRemoved",
      "type": "event"
    },
    {
      "inputs": [
        {
          "internalType": "uint256",
          "name": "_claimType",
          "type": "uint256"
        },
        {
          "internalType": "uint256",
          "name": "_scheme",
          "type": "uint256"
        },
        {
          "internalType": "address",
          "name": "_issuer",
          "type": "address"
        },
        {
          "internalType": "bytes",
          "name": "_signature",
          "type": "bytes"
        },
        {
          "internalType": "bytes",
          "name": "_data",
          "type": "bytes"
        },
        {
          "internalType": "string",
          "name": "_uri",
          "type": "string"
        }
      ],
      "name": "addClaim",
      "outputs": [
        {
          "internalType": "bytes32",
          "name": "claimRequestId",
          "type": "bytes32"
        }
      ],
      "stateMutability": "nonpayable",
      "type": "function"
    },
    {
      "inputs": [
        {
          "internalType": "bytes32",
          "name": "_key",
          "type": "bytes32"
        },
        {
          "internalType": "uint256",
          "name": "_purpose",
          "type": "uint256"
        },
        {
          "internalType": "uint256",
          "name": "_type",
          "type": "uint256"
        }
      ],
      "name": "addKey",
      "outputs": [
        {
          "internalType": "bool",
          "name": "success",
          "type": "bool"
        }
      ],
      "stateMutability": "nonpayable",
      "type": "function"
    },
    {
      "inputs": [
        {
          "internalType": "uint256",
          "name": "_id",
          "type": "uint256"
        },
        {
          "internalType": "bool",
          "name": "_approve",
          "type": "bool"
        }
      ],
      "name": "approve",
      "outputs": [
        {
          "internalType": "bool",
          "name": "success",
          "type": "bool"
        }
      ],
      "stateMutability": "nonpayable",
      "type": "function"
    },
    {
      "inputs": [
        {
          "internalType": "address payable",
          "name": "addr",
          "type": "address"
        }
      ],
      "name": "destroy",
      "outputs": [],
      "stateMutability": "nonpayable",
      "type": "function"
    },
    {
      "inputs": [
        {
          "internalType": "address",
          "name": "_to",
          "type": "address"
        },
        {
          "internalType": "uint256",
          "name": "_value",
          "type": "uint256"
        },
        {
          "internalType": "bytes",
          "name": "_data",
          "type": "bytes"
        }
      ],
      "name": "execute",
      "outputs": [
        {
          "internalType": "uint256",
          "name": "executionId",
          "type": "uint256"
        }
      ],
      "stateMutability": "nonpayable",
      "type": "function"
    },
    {
      "inputs": [
        {
          "internalType": "bytes32",
          "name": "_claimId",
          "type": "bytes32"
        }
      ],
      "name": "getClaim",
      "outputs": [
        {
          "internalType": "uint256",
          "name": "claimType",
          "type": "uint256"
        },
        {
          "internalType": "uint256",
          "name": "scheme",
          "type": "uint256"
        },
        {
          "internalType": "address",
          "name": "issuer",
          "type": "address"
        },
        {
          "internalType": "bytes",
          "name": "signature",
          "type": "bytes"
        },
        {
          "internalType": "bytes",
          "name": "data",
          "type": "bytes"
        },
        {
          "internalType": "string",
          "name": "uri",
          "type": "string"
        }
      ],
      "stateMutability": "view",
      "type": "function"
    },
    {
      "inputs": [
        {
          "internalType": "uint256",
          "name": "_claimType",
          "type": "uint256"
        }
      ],
      "name": "getClaimIdsByType",
      "outputs": [
        {
          "internalType": "bytes32[]",
          "name": "claimIds",
          "type": "bytes32[]"
        }
      ],
      "stateMutability": "view",
      "type": "function"
    },
    {
      "inputs": [
        {
          "internalType": "bytes32",
          "name": "claimID",
          "type": "bytes32"
        }
      ],
      "name": "getClaims",
      "outputs": [
        {
          "components": [
            {
              "internalType": "uint256",
              "name": "claimType",
              "type": "uint256"
            },
            {
              "internalType": "uint256",
              "name": "scheme",
              "type": "uint256"
            },
            {
              "internalType": "address",
              "name": "issuer",
              "type": "address"
            },
            {
              "internalType": "bytes",
              "name": "signature",
              "type": "bytes"
            },
            {
              "internalType": "bytes",
              "name": "data",
              "type": "bytes"
            },
            {
              "internalType": "string",
              "name": "uri",
              "type": "string"
            }
          ],
          "internalType": "struct xERC735.Claim",
          "name": "",
          "type": "tuple"
        }
      ],
      "stateMutability": "view",
      "type": "function"
    },
    {
      "inputs": [
        {
          "internalType": "bytes32",
          "name": "_key",
          "type": "bytes32"
        }
      ],
      "name": "getKey",
      "outputs": [
        {
          "internalType": "uint256",
          "name": "purpose",
          "type": "uint256"
        },
        {
          "internalType": "uint256",
          "name": "keyType",
          "type": "uint256"
        },
        {
          "internalType": "bytes32",
          "name": "key",
          "type": "bytes32"
        }
      ],
      "stateMutability": "view",
      "type": "function"
    },
    {
      "inputs": [
        {
          "internalType": "bytes32",
          "name": "_key",
          "type": "bytes32"
        }
      ],
      "name": "getKeyPurpose",
      "outputs": [
        {
          "internalType": "uint256",
          "name": "purpose",
          "type": "uint256"
        }
      ],
      "stateMutability": "view",
      "type": "function"
    },
    {
      "inputs": [
        {
          "internalType": "uint256",
          "name": "_purpose",
          "type": "uint256"
        }
      ],
      "name": "getKeysByPurpose",
      "outputs": [
        {
          "internalType": "bytes32[]",
          "name": "_keys",
          "type": "bytes32[]"
        }
      ],
      "stateMutability": "view",
      "type": "function"
    },
    {
      "inputs": [
        {
          "internalType": "bytes32",
          "name": "_key",
          "type": "bytes32"
        },
        {
          "internalType": "uint256",
          "name": "_purpose",
          "type": "uint256"
        }
      ],
      "name": "keyHasPurpose",
      "outputs": [
        {
          "internalType": "bool",
          "name": "result",
          "type": "bool"
        }
      ],
      "stateMutability": "view",
      "type": "function"
    },
    {
      "inputs": [
        {
          "internalType": "bytes32",
          "name": "_claimId",
          "type": "bytes32"
        }
      ],
      "name": "removeClaim",
      "outputs": [
        {
          "internalType": "bool",
          "name": "success",
          "type": "bool"
        }
      ],
      "stateMutability": "nonpayable",
      "type": "function"
    },
    {
      "inputs": [
        {
          "internalType": "bytes32",
          "name": "_key",
          "type": "bytes32"
        }
      ],
      "name": "removeKey",
      "outputs": [
        {
          "internalType": "bool",
          "name": "success",
          "type": "bool"
        }
      ],
      "stateMutability": "nonpayable",
      "type": "function"
    },
    {
      "inputs": [
        {
          "internalType": "bytes",
          "name": "_str",
          "type": "bytes"
        },
        {
          "internalType": "uint256",
          "name": "_offset",
          "type": "uint256"
        },
        {
          "internalType": "uint256",
          "name": "_length",
          "type": "uint256"
        }
      ],
      "name": "getBytes",
      "outputs": [
        {
          "internalType": "bytes",
          "name": "",
          "type": "bytes"
        }
      ],
      "stateMutability": "pure",
      "type": "function"
    },
    {
      "inputs": [
        {
          "internalType": "string",
          "name": "_str",
          "type": "string"
        },
        {
          "internalType": "uint256",
          "name": "_offset",
          "type": "uint256"
        },
        {
          "internalType": "uint256",
          "name": "_length",
          "type": "uint256"
        }
      ],
      "name": "getString",
      "outputs": [
        {
          "internalType": "string",
          "name": "",
          "type": "string"
        }
      ],
      "stateMutability": "pure",
      "type": "function"
    }
  ],
  "bytecode": "0x60806040523480156200001157600080fd5b506040516200447d3803806200447d833981810160405281019062000037919062000d6e565b6000336040516020016200004c919062001087565b6040516020818303038152906040528051906020012090508060016000838152602001908152602001600020600201819055506001806000838152602001908152602001600020600001819055506001806000838152602001908152602001600020600101819055506002600060018152602001908152602001600020819080600181540180825580915050600190039060005260206000200160009091909190915055600180600083815260200190815260200160002060000154827f480000bb1edad8ca1470381cc334b1917fbd51c6531f3a623ea8e0ec7e38a6e960405160405180910390a4506000806000905060008060005b8d51811015620006cb578b818151811062000187577f4e487b7100000000000000000000000000000000000000000000000000000000600052603260045260246000fd5b60200260200101518e8281518110620001c9577f4e487b7100000000000000000000000000000000000000000000000000000000600052603260045260246000fd5b6020026020010151604051602001620001e4929190620010a4565b6040516020818303038152906040528051906020012094506040518060c001604052808f838151811062000241577f4e487b7100000000000000000000000000000000000000000000000000000000600052603260045260246000fd5b602002602001015181526020018e838151811062000288577f4e487b7100000000000000000000000000000000000000000000000000000000600052603260045260246000fd5b602002602001015181526020018d8381518110620002cf577f4e487b7100000000000000000000000000000000000000000000000000000000600052603260045260246000fd5b602002602001015173ffffffffffffffffffffffffffffffffffffffff168152602001620003468d878c868151811062000332577f4e487b7100000000000000000000000000000000000000000000000000000000600052603260045260246000fd5b6020026020010151620006df60201b60201c565b81526020016200039f8c858b86815181106200038b577f4e487b7100000000000000000000000000000000000000000000000000000000600052603260045260246000fd5b6020026020010151620006df60201b60201c565b8152602001620003f88b868a8681518110620003e4577f4e487b7100000000000000000000000000000000000000000000000000000000600052603260045260246000fd5b60200260200101516200085860201b60201c565b81525060046000878152602001908152602001600020600082015181600001556020820151816001015560408201518160020160006101000a81548173ffffffffffffffffffffffffffffffffffffffff021916908373ffffffffffffffffffffffffffffffffffffffff160217905550606082015181600301908051906020019062000487929190620009d7565b506080820151816004019080519060200190620004a6929190620009d7565b5060a0820151816005019080519060200190620004c592919062000a68565b5090505087818151811062000503577f4e487b7100000000000000000000000000000000000000000000000000000000600052603260045260246000fd5b60200260200101518462000518919062001275565b935085818151811062000554577f4e487b7100000000000000000000000000000000000000000000000000000000600052603260045260246000fd5b60200260200101518362000569919062001275565b9250868181518110620005a5577f4e487b7100000000000000000000000000000000000000000000000000000000600052603260045260246000fd5b602002602001015182620005ba919062001275565b91506004600086815260200190815260200160002060020160009054906101000a900473ffffffffffffffffffffffffffffffffffffffff1673ffffffffffffffffffffffffffffffffffffffff166004600087815260200190815260200160002060000154867f46149b18aa084502c3f12bc75e19eda8bda8d102b82cce8474677a6d0d5f43c5600460008a815260200190815260200160002060010154600460008b8152602001908152602001600020600301600460008c8152602001908152602001600020600401600460008d8152602001908152602001600020600501604051620006ad9493929190620010d4565b60405180910390a48080620006c290620013b2565b91505062000143565b505050505050505050505050505062001511565b606060008267ffffffffffffffff81111562000724577f4e487b7100000000000000000000000000000000000000000000000000000000600052604160045260246000fd5b6040519080825280601f01601f191660200182016040528015620007575781602001600182028036833780820191505090505b5090506000808590505b84866200076f919062001275565b8110156200084b57868181518110620007b1577f4e487b7100000000000000000000000000000000000000000000000000000000600052603260045260246000fd5b602001015160f81c60f81b838381518110620007f6577f4e487b7100000000000000000000000000000000000000000000000000000000600052603260045260246000fd5b60200101907effffffffffffffffffffffffffffffffffffffffffffffffffffffffffffff1916908160001a90535081806200083290620013b2565b92505080806200084290620013b2565b91505062000761565b5081925050509392505050565b6060600084905060008367ffffffffffffffff811115620008a2577f4e487b7100000000000000000000000000000000000000000000000000000000600052604160045260246000fd5b6040519080825280601f01601f191660200182016040528015620008d55781602001600182028036833780820191505090505b5090506000808690505b8587620008ed919062001275565b811015620009c9578381815181106200092f577f4e487b7100000000000000000000000000000000000000000000000000000000600052603260045260246000fd5b602001015160f81c60f81b83838151811062000974577f4e487b7100000000000000000000000000000000000000000000000000000000600052603260045260246000fd5b60200101907effffffffffffffffffffffffffffffffffffffffffffffffffffffffffffff1916908160001a9053508180620009b090620013b2565b9250508080620009c090620013b2565b915050620008df565b508193505050509392505050565b828054620009e59062001346565b90600052602060002090601f01602090048101928262000a09576000855562000a55565b82601f1062000a2457805160ff191683800117855562000a55565b8280016001018555821562000a55579182015b8281111562000a5457825182559160200191906001019062000a37565b5b50905062000a64919062000af9565b5090565b82805462000a769062001346565b90600052602060002090601f01602090048101928262000a9a576000855562000ae6565b82601f1062000ab557805160ff191683800117855562000ae6565b8280016001018555821562000ae6579182015b8281111562000ae557825182559160200191906001019062000ac8565b5b50905062000af5919062000af9565b5090565b5b8082111562000b1457600081600090555060010162000afa565b5090565b600062000b2f62000b29846200115f565b62001136565b9050808382526020820190508285602086028201111562000b4f57600080fd5b60005b8581101562000b83578162000b68888262000c8c565b84526020840193506020830192505060018101905062000b52565b5050509392505050565b600062000ba462000b9e846200118e565b62001136565b9050808382526020820190508285602086028201111562000bc457600080fd5b60005b8581101562000bf8578162000bdd888262000d57565b84526020840193506020830192505060018101905062000bc7565b5050509392505050565b600062000c1962000c1384620011bd565b62001136565b90508281526020810184848401111562000c3257600080fd5b62000c3f84828562001310565b509392505050565b600062000c5e62000c5884620011f3565b62001136565b90508281526020810184848401111562000c7757600080fd5b62000c8484828562001310565b509392505050565b60008151905062000c9d81620014dd565b92915050565b600082601f83011262000cb557600080fd5b815162000cc784826020860162000b18565b91505092915050565b600082601f83011262000ce257600080fd5b815162000cf484826020860162000b8d565b91505092915050565b600082601f83011262000d0f57600080fd5b815162000d2184826020860162000c02565b91505092915050565b600082601f83011262000d3c57600080fd5b815162000d4e84826020860162000c47565b91505092915050565b60008151905062000d6881620014f7565b92915050565b60008060008060008060008060006101208a8c03121562000d8e57600080fd5b60008a015167ffffffffffffffff81111562000da957600080fd5b62000db78c828d0162000cd0565b99505060208a015167ffffffffffffffff81111562000dd557600080fd5b62000de38c828d0162000cd0565b98505060408a015167ffffffffffffffff81111562000e0157600080fd5b62000e0f8c828d0162000ca3565b97505060608a015167ffffffffffffffff81111562000e2d57600080fd5b62000e3b8c828d0162000cfd565b96505060808a015167ffffffffffffffff81111562000e5957600080fd5b62000e678c828d0162000cfd565b95505060a08a015167ffffffffffffffff81111562000e8557600080fd5b62000e938c828d0162000d2a565b94505060c08a015167ffffffffffffffff81111562000eb157600080fd5b62000ebf8c828d0162000cd0565b93505060e08a015167ffffffffffffffff81111562000edd57600080fd5b62000eeb8c828d0162000cd0565b9250506101008a015167ffffffffffffffff81111562000f0a57600080fd5b62000f188c828d0162000cd0565b9150509295985092959850929598565b62000f3d62000f3782620012d2565b62001400565b82525050565b6000815462000f528162001346565b62000f5e818662001253565b9450600182166000811462000f7c576001811462000f8f5762000fc6565b60ff198316865260208601935062000fc6565b62000f9a8562001229565b60005b8381101562000fbe5781548189015260018201915060208101905062000f9d565b808801955050505b50505092915050565b6000815462000fde8162001346565b62000fea818662001264565b945060018216600081146200100857600181146200101b5762001052565b60ff198316865260208601935062001052565b62001026856200123e565b60005b838110156200104a5781548189015260018201915060208101905062001029565b808801955050505b50505092915050565b620010668162001306565b82525050565b620010816200107b8262001306565b62001428565b82525050565b600062001095828462000f28565b60148201915081905092915050565b6000620010b2828562000f28565b601482019150620010c482846200106c565b6020820191508190509392505050565b6000608082019050620010eb60008301876200105b565b8181036020830152620010ff818662000f43565b9050818103604083015262001115818562000f43565b905081810360608301526200112b818462000fcf565b905095945050505050565b60006200114262001155565b90506200115082826200137c565b919050565b6000604051905090565b600067ffffffffffffffff8211156200117d576200117c62001490565b5b602082029050602081019050919050565b600067ffffffffffffffff821115620011ac57620011ab62001490565b5b602082029050602081019050919050565b600067ffffffffffffffff821115620011db57620011da62001490565b5b620011e682620014bf565b9050602081019050919050565b600067ffffffffffffffff82111562001211576200121062001490565b5b6200121c82620014bf565b9050602081019050919050565b60008190508160005260206000209050919050565b60008190508160005260206000209050919050565b600082825260208201905092915050565b600082825260208201905092915050565b6000620012828262001306565b91506200128f8362001306565b9250827fffffffffffffffffffffffffffffffffffffffffffffffffffffffffffffffff03821115620012c757620012c662001432565b5b828201905092915050565b6000620012df82620012e6565b9050919050565b600073ffffffffffffffffffffffffffffffffffffffff82169050919050565b6000819050919050565b60005b838110156200133057808201518184015260208101905062001313565b8381111562001340576000848401525b50505050565b600060028204905060018216806200135f57607f821691505b6020821081141562001376576200137562001461565b5b50919050565b6200138782620014bf565b810181811067ffffffffffffffff82111715620013a957620013a862001490565b5b80604052505050565b6000620013bf8262001306565b91507fffffffffffffffffffffffffffffffffffffffffffffffffffffffffffffffff821415620013f557620013f462001432565b5b600182019050919050565b60006200140d8262001414565b9050919050565b60006200142182620014d0565b9050919050565b6000819050919050565b7f4e487b7100000000000000000000000000000000000000000000000000000000600052601160045260246000fd5b7f4e487b7100000000000000000000000000000000000000000000000000000000600052602260045260246000fd5b7f4e487b7100000000000000000000000000000000000000000000000000000000600052604160045260246000fd5b6000601f19601f8301169050919050565b60008160601b9050919050565b620014e881620012d2565b8114620014f457600080fd5b50565b620015028162001306565b81146200150e57600080fd5b50565b612f5c80620015216000396000f3fe608060405234801561001057600080fd5b50600436106100ff5760003560e01c8063747442d311610097578063b61d27f611610066578063b61d27f614610332578063c9100bcb14610362578063d202158d14610397578063df9319be146103c7576100ff565b8063747442d314610272578063862642f5146102a25780639010f726146102d2578063b1a34e0d14610302576100ff565b8063262b54f5116100d3578063262b54f5146101b257806330690424146101e25780634eee424a146102125780635d2cfd6114610242576100ff565b8062f55d9d14610104578063032c1a8a1461012057806312aaac70146101505780631d38124014610182575b600080fd5b61011e60048036038101906101199190611dd2565b6103f7565b005b61013a60048036038101906101359190611e62565b610410565b60405161014791906127f1565b60405180910390f35b61016a60048036038101906101659190611e62565b610430565b60405161017993929190612936565b60405180910390f35b61019c60048036038101906101979190611ec7565b610487565b6040516101a99190612673565b60405180910390f35b6101cc60048036038101906101c79190611fe4565b61064b565b6040516101d99190612651565b60405180910390f35b6101fc60048036038101906101f79190611e62565b6106b6565b60405161020991906127cf565b60405180910390f35b61022c60048036038101906102279190611e62565b610903565b6040516102399190612673565b60405180910390f35b61025c60048036038101906102579190611f16565b610b26565b60405161026991906126a9565b60405180910390f35b61028c6004803603810190610287919061200d565b610c93565b6040516102999190612673565b60405180910390f35b6102bc60048036038101906102b79190611e62565b61101c565b6040516102c99190612673565b60405180910390f35b6102ec60048036038101906102e79190611fe4565b61111e565b6040516102f99190612651565b60405180910390f35b61031c60048036038101906103179190612049565b611189565b604051610329919061268e565b60405180910390f35b61034c60048036038101906103479190611dfb565b61146f565b60405161035991906127f1565b60405180910390f35b61037c60048036038101906103779190611e62565b611672565b60405161038e969594939291906128c0565b60405180910390f35b6103b160048036038101906103ac9190611e8b565b6118dc565b6040516103be9190612673565b60405180910390f35b6103e160048036038101906103dc9190611f7d565b611931565b6040516103ee91906126ed565b60405180910390f35b8073ffffffffffffffffffffffffffffffffffffffff16ff5b600060016000838152602001908152602001600020600001549050919050565b60008060006001600085815260200190815260200160002060000154600160008681526020019081526020016000206001015460016000878152602001908152602001600020600201549250925092509193909250565b600083600160008681526020019081526020016000206002015414156104e2576040517f08c379a00000000000000000000000000000000000000000000000000000000081526004016104d99061272f565b60405180910390fd5b3073ffffffffffffffffffffffffffffffffffffffff163373ffffffffffffffffffffffffffffffffffffffff1614610586576105463360405160200161052991906125f3565b6040516020818303038152906040528051906020012060016118dc565b610585576040517f08c379a000000000000000000000000000000000000000000000000000000000815260040161057c9061278f565b60405180910390fd5b5b836001600086815260200190815260200160002060020181905550826001600086815260200190815260200160002060000181905550816001600086815260200190815260200160002060010181905550600260008481526020019081526020016000208490806001815401808255809150506001900390600052602060002001600090919091909150558183857f480000bb1edad8ca1470381cc334b1917fbd51c6531f3a623ea8e0ec7e38a6e960405160405180910390a4600190509392505050565b6060600560008381526020019081526020016000208054806020026020016040519081016040528092919081815260200182805480156106aa57602002820191906000526020600020905b815481526020019060010190808311610696575b50505050509050919050565b6106be611aa4565b600460008381526020019081526020016000206040518060c001604052908160008201548152602001600182015481526020016002820160009054906101000a900473ffffffffffffffffffffffffffffffffffffffff1673ffffffffffffffffffffffffffffffffffffffff1673ffffffffffffffffffffffffffffffffffffffff16815260200160038201805461075690612bec565b80601f016020809104026020016040519081016040528092919081815260200182805461078290612bec565b80156107cf5780601f106107a4576101008083540402835291602001916107cf565b820191906000526020600020905b8154815290600101906020018083116107b257829003601f168201915b505050505081526020016004820180546107e890612bec565b80601f016020809104026020016040519081016040528092919081815260200182805461081490612bec565b80156108615780601f1061083657610100808354040283529160200191610861565b820191906000526020600020905b81548152906001019060200180831161084457829003601f168201915b5050505050815260200160058201805461087a90612bec565b80601f01602080910402602001604051908101604052809291908181526020018280546108a690612bec565b80156108f35780601f106108c8576101008083540402835291602001916108f3565b820191906000526020600020905b8154815290600101906020018083116108d657829003601f168201915b5050505050815250509050919050565b60003073ffffffffffffffffffffffffffffffffffffffff163373ffffffffffffffffffffffffffffffffffffffff16146109a9576109693360405160200161094c91906125f3565b6040516020818303038152906040528051906020012060016118dc565b6109a8576040517f08c379a000000000000000000000000000000000000000000000000000000000815260040161099f9061278f565b60405180910390fd5b5b6004600083815260200190815260200160002060020160009054906101000a900473ffffffffffffffffffffffffffffffffffffffff1673ffffffffffffffffffffffffffffffffffffffff166004600084815260200190815260200160002060000154837f3cf57863a89432c61c4a27073c6ee39e8a764bff5a05aebfbcdcdc80b2e6130a60046000878152602001908152602001600020600101546004600088815260200190815260200160002060030160046000898152602001908152602001600020600401600460008a8152602001908152602001600020600501604051610a989493929190612866565b60405180910390a46004600083815260200190815260200160002060008082016000905560018201600090556002820160006101000a81549073ffffffffffffffffffffffffffffffffffffffff0219169055600382016000610afb9190611af0565b600482016000610b0b9190611af0565b600582016000610b1b9190611b30565b505060019050919050565b606060008267ffffffffffffffff811115610b6a577f4e487b7100000000000000000000000000000000000000000000000000000000600052604160045260246000fd5b6040519080825280601f01601f191660200182016040528015610b9c5781602001600182028036833780820191505090505b5090506000808590505b8486610bb29190612abc565b811015610c8657868181518110610bf2577f4e487b7100000000000000000000000000000000000000000000000000000000600052603260045260246000fd5b602001015160f81c60f81b838381518110610c36577f4e487b7100000000000000000000000000000000000000000000000000000000600052603260045260246000fd5b60200101907effffffffffffffffffffffffffffffffffffffffffffffffffffffffffffff1916908160001a9053508180610c7090612c4f565b9250508080610c7e90612c4f565b915050610ba6565b5081925050509392505050565b6000610cc633604051602001610ca991906125f3565b6040516020818303038152906040528051906020012060026118dc565b610d05576040517f08c379a0000000000000000000000000000000000000000000000000000000008152600401610cfc9061270f565b60405180910390fd5b827fb3932da477fe5d6c8ff2eafef050c0f3a1af18fc07121001482600f36f3715d883604051610d359190612673565b60405180910390a26060600115158315151415610fe15760016003600086815260200190815260200160002060030160006101000a81548160ff0219169083151502179055506003600085815260200190815260200160002060000160009054906101000a900473ffffffffffffffffffffffffffffffffffffffff1673ffffffffffffffffffffffffffffffffffffffff1660036000868152602001908152602001600020600201604051610deb919061263a565b6000604051808303816000865af19150503d8060008114610e28576040519150601f19603f3d011682016040523d82523d6000602084013e610e2d565b606091505b5080925081935050508115610f265760016003600086815260200190815260200160002060030160016101000a81548160ff02191690831515021790555060036000858152602001908152602001600020600101546003600086815260200190815260200160002060000160009054906101000a900473ffffffffffffffffffffffffffffffffffffffff1673ffffffffffffffffffffffffffffffffffffffff16857f1f920dbda597d7bf95035464170fa58d0a4b57f13a1c315ace6793b9f63688b860036000898152602001908152602001600020600201604051610f1491906126cb565b60405180910390a46001915050611016565b60036000858152602001908152602001600020600101546003600086815260200190815260200160002060000160009054906101000a900473ffffffffffffffffffffffffffffffffffffffff1673ffffffffffffffffffffffffffffffffffffffff16857fe10c49d9f7c71da23262367013434763cfdb2332267641728d25cd712c5c6a6860036000898152602001908152602001600020600201604051610fcf91906126cb565b60405180910390a46000915050611016565b60006003600086815260200190815260200160002060030160006101000a81548160ff02191690831515021790555060019150505b92915050565b600081600160008481526020019081526020016000206002015414611076576040517f08c379a000000000000000000000000000000000000000000000000000000000815260040161106d906127af565b60405180910390fd5b6001600083815260200190815260200160002060010154600160008481526020019081526020016000206000015460016000858152602001908152602001600020600201547f585a4aef50f8267a92b32412b331b20f7f8b96f2245b253b9cc50dcc621d339760405160405180910390a46001600083815260200190815260200160002060008082016000905560018201600090556002820160009055505060019050919050565b60606002600083815260200190815260200160002080548060200260200160405190810160405280929190818152602001828054801561117d57602002820191906000526020600020905b815481526020019060010190808311611169575b50505050509050919050565b600080308860405160200161119f92919061260e565b6040516020818303038152906040528051906020012090503073ffffffffffffffffffffffffffffffffffffffff163373ffffffffffffffffffffffffffffffffffffffff161461125b5761121b336040516020016111fe91906125f3565b6040516020818303038152906040528051906020012060036118dc565b61125a576040517f08c379a00000000000000000000000000000000000000000000000000000000081526004016112519061274f565b60405180910390fd5b5b8573ffffffffffffffffffffffffffffffffffffffff166004600083815260200190815260200160002060020160009054906101000a900473ffffffffffffffffffffffffffffffffffffffff1673ffffffffffffffffffffffffffffffffffffffff16146112ff57600560008981526020019081526020016000208190806001815401808255809150506001900390600052602060002001600090919091909150555b876004600083815260200190815260200160002060000181905550866004600083815260200190815260200160002060010181905550856004600083815260200190815260200160002060020160006101000a81548173ffffffffffffffffffffffffffffffffffffffff021916908373ffffffffffffffffffffffffffffffffffffffff160217905550846004600083815260200190815260200160002060030190805190602001906113b4929190611b70565b50836004600083815260200190815260200160002060040190805190602001906113df929190611b70565b508260046000838152602001908152602001600020600501908051906020019061140a929190611bf6565b508573ffffffffffffffffffffffffffffffffffffffff1688827f46149b18aa084502c3f12bc75e19eda8bda8d102b82cce8474677a6d0d5f43c58a898989604051611459949392919061280c565b60405180910390a4809150509695505050505050565b6000600360008054815260200190815260200160002060030160019054906101000a900460ff16156114d6576040517f08c379a00000000000000000000000000000000000000000000000000000000081526004016114cd9061276f565b60405180910390fd5b83600360008054815260200190815260200160002060000160006101000a81548173ffffffffffffffffffffffffffffffffffffffff021916908373ffffffffffffffffffffffffffffffffffffffff160217905550826003600080548152602001908152602001600020600101819055508160036000805481526020019081526020016000206002019080519060200190611573929190611b70565b50828473ffffffffffffffffffffffffffffffffffffffff166000547f8afcfabcb00e47a53a8fc3e9f23ff47ee1926194bb1350dd007c50b412a6cee8856040516115be91906126a9565b60405180910390a46115f7336040516020016115da91906125f3565b6040516020818303038152906040528051906020012060016118dc565b8061162f575061162e3360405160200161161191906125f3565b6040516020818303038152906040528051906020012060026118dc565b5b15611643576116416000546001610c93565b505b60008081548092919061165590612c4f565b919050555060016000546116699190612b12565b90509392505050565b6000806000606080606060046000888152602001908152602001600020600001546004600089815260200190815260200160002060010154600460008a815260200190815260200160002060020160009054906101000a900473ffffffffffffffffffffffffffffffffffffffff16600460008b8152602001908152602001600020600301600460008c8152602001908152602001600020600401600460008d815260200190815260200160002060050182805461172f90612bec565b80601f016020809104026020016040519081016040528092919081815260200182805461175b90612bec565b80156117a85780601f1061177d576101008083540402835291602001916117a8565b820191906000526020600020905b81548152906001019060200180831161178b57829003601f168201915b505050505092508180546117bb90612bec565b80601f01602080910402602001604051908101604052809291908181526020018280546117e790612bec565b80156118345780601f1061180957610100808354040283529160200191611834565b820191906000526020600020905b81548152906001019060200180831161181757829003601f168201915b5050505050915080805461184790612bec565b80601f016020809104026020016040519081016040528092919081815260200182805461187390612bec565b80156118c05780601f10611895576101008083540402835291602001916118c0565b820191906000526020600020905b8154815290600101906020018083116118a357829003601f168201915b5050505050905095509550955095509550955091939550919395565b6000806000801b6001600086815260200190815260200160002060020154141561190a57600091505061192b565b82600160008681526020019081526020016000206000015411159050809150505b92915050565b6060600084905060008367ffffffffffffffff81111561197a577f4e487b7100000000000000000000000000000000000000000000000000000000600052604160045260246000fd5b6040519080825280601f01601f1916602001820160405280156119ac5781602001600182028036833780820191505090505b5090506000808690505b85876119c29190612abc565b811015611a9657838181518110611a02577f4e487b7100000000000000000000000000000000000000000000000000000000600052603260045260246000fd5b602001015160f81c60f81b838381518110611a46577f4e487b7100000000000000000000000000000000000000000000000000000000600052603260045260246000fd5b60200101907effffffffffffffffffffffffffffffffffffffffffffffffffffffffffffff1916908160001a9053508180611a8090612c4f565b9250508080611a8e90612c4f565b9150506119b6565b508193505050509392505050565b6040518060c001604052806000815260200160008152602001600073ffffffffffffffffffffffffffffffffffffffff1681526020016060815260200160608152602001606081525090565b508054611afc90612bec565b6000825580601f10611b0e5750611b2d565b601f016020900490600052602060002090810190611b2c9190611c7c565b5b50565b508054611b3c90612bec565b6000825580601f10611b4e5750611b6d565b601f016020900490600052602060002090810190611b6c9190611c7c565b5b50565b828054611b7c90612bec565b90600052602060002090601f016020900481019282611b9e5760008555611be5565b82601f10611bb757805160ff1916838001178555611be5565b82800160010185558215611be5579182015b82811115611be4578251825591602001919060010190611bc9565b5b509050611bf29190611c7c565b5090565b828054611c0290612bec565b90600052602060002090601f016020900481019282611c245760008555611c6b565b82601f10611c3d57805160ff1916838001178555611c6b565b82800160010185558215611c6b579182015b82811115611c6a578251825591602001919060010190611c4f565b5b509050611c789190611c7c565b5090565b5b80821115611c95576000816000905550600101611c7d565b5090565b6000611cac611ca784612992565b61296d565b905082815260208101848484011115611cc457600080fd5b611ccf848285612baa565b509392505050565b6000611cea611ce5846129c3565b61296d565b905082815260208101848484011115611d0257600080fd5b611d0d848285612baa565b509392505050565b600081359050611d2481612eb3565b92915050565b600081359050611d3981612eca565b92915050565b600081359050611d4e81612ee1565b92915050565b600081359050611d6381612ef8565b92915050565b600082601f830112611d7a57600080fd5b8135611d8a848260208601611c99565b91505092915050565b600082601f830112611da457600080fd5b8135611db4848260208601611cd7565b91505092915050565b600081359050611dcc81612f0f565b92915050565b600060208284031215611de457600080fd5b6000611df284828501611d2a565b91505092915050565b600080600060608486031215611e1057600080fd5b6000611e1e86828701611d15565b9350506020611e2f86828701611dbd565b925050604084013567ffffffffffffffff811115611e4c57600080fd5b611e5886828701611d69565b9150509250925092565b600060208284031215611e7457600080fd5b6000611e8284828501611d54565b91505092915050565b60008060408385031215611e9e57600080fd5b6000611eac85828601611d54565b9250506020611ebd85828601611dbd565b9150509250929050565b600080600060608486031215611edc57600080fd5b6000611eea86828701611d54565b9350506020611efb86828701611dbd565b9250506040611f0c86828701611dbd565b9150509250925092565b600080600060608486031215611f2b57600080fd5b600084013567ffffffffffffffff811115611f4557600080fd5b611f5186828701611d69565b9350506020611f6286828701611dbd565b9250506040611f7386828701611dbd565b9150509250925092565b600080600060608486031215611f9257600080fd5b600084013567ffffffffffffffff811115611fac57600080fd5b611fb886828701611d93565b9350506020611fc986828701611dbd565b9250506040611fda86828701611dbd565b9150509250925092565b600060208284031215611ff657600080fd5b600061200484828501611dbd565b91505092915050565b6000806040838503121561202057600080fd5b600061202e85828601611dbd565b925050602061203f85828601611d3f565b9150509250929050565b60008060008060008060c0878903121561206257600080fd5b600061207089828a01611dbd565b965050602061208189828a01611dbd565b955050604061209289828a01611d15565b945050606087013567ffffffffffffffff8111156120af57600080fd5b6120bb89828a01611d69565b935050608087013567ffffffffffffffff8111156120d857600080fd5b6120e489828a01611d69565b92505060a087013567ffffffffffffffff81111561210157600080fd5b61210d89828a01611d93565b9150509295509295509295565b600061212683836121d4565b60208301905092915050565b61213b81612b46565b82525050565b61214a81612b46565b82525050565b61216161215c82612b46565b612c98565b82525050565b600061217282612a2e565b61217c8185612a5c565b9350612187836129f4565b8060005b838110156121b857815161219f888261211a565b97506121aa83612a4f565b92505060018101905061218b565b5085935050505092915050565b6121ce81612b6a565b82525050565b6121dd81612b76565b82525050565b6121ec81612b76565b82525050565b60006121fd82612a39565b6122078185612a6d565b9350612217818560208601612bb9565b61222081612d53565b840191505092915050565b600061223682612a39565b6122408185612a7e565b9350612250818560208601612bb9565b61225981612d53565b840191505092915050565b6000815461227181612bec565b61227b8186612a7e565b9450600182166000811461229657600181146122a8576122db565b60ff19831686526020860193506122db565b6122b185612a04565b60005b838110156122d3578154818901526001820191506020810190506122b4565b808801955050505b50505092915050565b600081546122f181612bec565b6122fb8186612a8f565b9450600182166000811461231657600181146123275761235a565b60ff1983168652818601935061235a565b61233085612a04565b60005b8381101561235257815481890152600182019150602081019050612333565b838801955050505b50505092915050565b600061236e82612a44565b6123788185612a9a565b9350612388818560208601612bb9565b61239181612d53565b840191505092915050565b60006123a782612a44565b6123b18185612aab565b93506123c1818560208601612bb9565b6123ca81612d53565b840191505092915050565b600081546123e281612bec565b6123ec8186612aab565b9450600182166000811461240757600181146124195761244c565b60ff198316865260208601935061244c565b61242285612a19565b60005b8381101561244457815481890152600182019150602081019050612425565b808801955050505b50505092915050565b6000612462601f83612aab565b915061246d82612d71565b602082019050919050565b6000612485601283612aab565b915061249082612d9a565b602082019050919050565b60006124a8602583612aab565b91506124b382612dc3565b604082019050919050565b60006124cb601083612aab565b91506124d682612e12565b602082019050919050565b60006124ee602383612aab565b91506124f982612e3b565b604082019050919050565b6000612511600b83612aab565b915061251c82612e8a565b602082019050919050565b600060c08301600083015161253f60008601826125be565b50602083015161255260208601826125be565b5060408301516125656040860182612132565b506060830151848203606086015261257d82826121f2565b9150506080830151848203608086015261259782826121f2565b91505060a083015184820360a08601526125b18282612363565b9150508091505092915050565b6125c781612ba0565b82525050565b6125d681612ba0565b82525050565b6125ed6125e882612ba0565b612cbc565b82525050565b60006125ff8284612150565b60148201915081905092915050565b600061261a8285612150565b60148201915061262a82846125dc565b6020820191508190509392505050565b600061264682846122e4565b915081905092915050565b6000602082019050818103600083015261266b8184612167565b905092915050565b600060208201905061268860008301846121c5565b92915050565b60006020820190506126a360008301846121e3565b92915050565b600060208201905081810360008301526126c3818461222b565b905092915050565b600060208201905081810360008301526126e58184612264565b905092915050565b60006020820190508181036000830152612707818461239c565b905092915050565b6000602082019050818103600083015261272881612455565b9050919050565b6000602082019050818103600083015261274881612478565b9050919050565b600060208201905081810360008301526127688161249b565b9050919050565b60006020820190508181036000830152612788816124be565b9050919050565b600060208201905081810360008301526127a8816124e1565b9050919050565b600060208201905081810360008301526127c881612504565b9050919050565b600060208201905081810360008301526127e98184612527565b905092915050565b600060208201905061280660008301846125cd565b92915050565b600060808201905061282160008301876125cd565b8181036020830152612833818661222b565b90508181036040830152612847818561222b565b9050818103606083015261285b818461239c565b905095945050505050565b600060808201905061287b60008301876125cd565b818103602083015261288d8186612264565b905081810360408301526128a18185612264565b905081810360608301526128b581846123d5565b905095945050505050565b600060c0820190506128d560008301896125cd565b6128e260208301886125cd565b6128ef6040830187612141565b8181036060830152612901818661222b565b90508181036080830152612915818561222b565b905081810360a0830152612929818461239c565b9050979650505050505050565b600060608201905061294b60008301866125cd565b61295860208301856125cd565b61296560408301846121e3565b949350505050565b6000612977612988565b90506129838282612c1e565b919050565b6000604051905090565b600067ffffffffffffffff8211156129ad576129ac612d24565b5b6129b682612d53565b9050602081019050919050565b600067ffffffffffffffff8211156129de576129dd612d24565b5b6129e782612d53565b9050602081019050919050565b6000819050602082019050919050565b60008190508160005260206000209050919050565b60008190508160005260206000209050919050565b600081519050919050565b600081519050919050565b600081519050919050565b6000602082019050919050565b600082825260208201905092915050565b600082825260208201905092915050565b600082825260208201905092915050565b600081905092915050565b600082825260208201905092915050565b600082825260208201905092915050565b6000612ac782612ba0565b9150612ad283612ba0565b9250827fffffffffffffffffffffffffffffffffffffffffffffffffffffffffffffffff03821115612b0757612b06612cc6565b5b828201905092915050565b6000612b1d82612ba0565b9150612b2883612ba0565b925082821015612b3b57612b3a612cc6565b5b828203905092915050565b6000612b5182612b80565b9050919050565b6000612b6382612b80565b9050919050565b60008115159050919050565b6000819050919050565b600073ffffffffffffffffffffffffffffffffffffffff82169050919050565b6000819050919050565b82818337600083830152505050565b60005b83811015612bd7578082015181840152602081019050612bbc565b83811115612be6576000848401525b50505050565b60006002820490506001821680612c0457607f821691505b60208210811415612c1857612c17612cf5565b5b50919050565b612c2782612d53565b810181811067ffffffffffffffff82111715612c4657612c45612d24565b5b80604052505050565b6000612c5a82612ba0565b91507fffffffffffffffffffffffffffffffffffffffffffffffffffffffffffffffff821415612c8d57612c8c612cc6565b5b600182019050919050565b6000612ca382612caa565b9050919050565b6000612cb582612d64565b9050919050565b6000819050919050565b7f4e487b7100000000000000000000000000000000000000000000000000000000600052601160045260246000fd5b7f4e487b7100000000000000000000000000000000000000000000000000000000600052602260045260246000fd5b7f4e487b7100000000000000000000000000000000000000000000000000000000600052604160045260246000fd5b6000601f19601f8301169050919050565b60008160601b9050919050565b7f53656e64657220646f6573206e6f74206861766520616374696f6e206b657900600082015250565b7f4b657920616c7265616479206578697374730000000000000000000000000000600082015250565b7f53656e64657220646f6573206e6f74206861766520636c61696d207369676e6560008201527f72206b6579000000000000000000000000000000000000000000000000000000602082015250565b7f416c726561647920657865637574656400000000000000000000000000000000600082015250565b7f53656e64657220646f6573206e6f742068617665206d616e6167656d656e742060008201527f6b65790000000000000000000000000000000000000000000000000000000000602082015250565b7f4e6f2073756368206b6579000000000000000000000000000000000000000000600082015250565b612ebc81612b46565b8114612ec757600080fd5b50565b612ed381612b58565b8114612ede57600080fd5b50565b612eea81612b6a565b8114612ef557600080fd5b50565b612f0181612b76565b8114612f0c57600080fd5b50565b612f1881612ba0565b8114612f2357600080fd5b5056fea26469706673582212207a063b3bbec6ffabed1ebb6815b3d63d3f73d784e5dc965aebf4a711c7b0ed3e64736f6c63430008010033",
  "immutableReferences": {},
  "source": "// SPDX-License-Identifier: GPL-3.0\r\npragma solidity >=0.7.0 <0.9.0;\r\n\r\nimport './xClaimHolder.sol';\r\n\r\n// **Warning!** This file is a protoype version of our work around ERC 725.\r\n// This file is now out of date and **should not be used**.\r\n// Our current identity contracts are here:\r\n// https://github.com/OriginProtocol/origin/tree/master/origin-contracts/contracts/identity\r\n\r\n/**\r\n * NOTE: This contract exists as a convenience for deploying an identity with\r\n * some 'pre-signed' claims. If you don't care about that, just use ClaimHolder\r\n * instead.\r\n */\r\n\r\ncontract xIdentity is xClaimHolder {\r\n\r\n    constructor (uint256[]memory _claimType, uint256[]memory _scheme, address[]memory _issuer, bytes memory _signature, bytes memory _data, string memory _uri, uint256[] memory _sigSizes, uint256[] memory dataSizes,uint256[] memory uriSizes){\r\n        bytes32 claimId;\r\n        uint offset = 0;\r\n        uint uoffset = 0;\r\n        uint doffset = 0;\r\n\r\n        for (uint i = 0; i < _claimType.length; i++) {\r\n\r\n            claimId = keccak256(abi.encodePacked(_issuer[i], _claimType[i]));\r\n\r\n            claims[claimId] = Claim(\r\n                _claimType[i],\r\n                _scheme[i],\r\n                _issuer[i],\r\n                getBytes(_signature, offset, _sigSizes[i]),\r\n                getBytes(_data, doffset, dataSizes[i]),\r\n                getString(_uri, uoffset, uriSizes[i])\r\n            );\r\n\r\n            offset += _sigSizes[i];\r\n            uoffset += uriSizes[i];\r\n            doffset += dataSizes[i];\r\n\r\n            emit ClaimAdded(\r\n                claimId,\r\n                claims[claimId].claimType,\r\n                claims[claimId].scheme,\r\n                claims[claimId].issuer,\r\n                claims[claimId].signature,\r\n                claims[claimId].data,\r\n                claims[claimId].uri\r\n            );\r\n        }\r\n    }\r\n\r\n    function getBytes(bytes memory _str, uint256 _offset, uint256 _length) public pure returns (bytes memory) {\r\n        bytes memory sig = new bytes(_length);\r\n        uint256 j = 0;\r\n        for (uint256 k = _offset; k< _offset + _length; k++) {\r\n          sig[j] = _str[k];\r\n          j++;\r\n        }\r\n        return sig;\r\n    }\r\n\r\n    function getString(string memory _str, uint256 _offset, uint256 _length) public pure returns (string memory) {\r\n        bytes memory strBytes = bytes(_str);\r\n        bytes memory sig = new bytes(_length);\r\n        uint256 j = 0;\r\n        for (uint256 k = _offset; k< _offset + _length; k++) {\r\n          sig[j] = strBytes[k];\r\n          j++;\r\n        }\r\n        return string(sig);\r\n    }\r\n}",
  "sourcePath": "D:\\XAMPP\\htdocs\\rpModule\\blockchain\\contracts\\xIdentity.sol",
  "compiler": {
    "name": "solc",
    "version": "0.8.1+commit.df193b15.Emscripten.clang"
  },
  "schemaVersion": "3.4.3",
  "updatedAt": "2022-01-27T13:42:54.732Z",
  "devdoc": {
    "kind": "dev",
    "methods": {},
    "version": 1
  },
  "userdoc": {
    "kind": "user",
    "methods": {},
    "notice": "NOTE: This contract exists as a convenience for deploying an identity with some 'pre-signed' claims. If you don't care about that, just use ClaimHolder instead.",
    "version": 1
  }
}